:100000000A128A11F02F00308A000408840A82073D
:10001000003425342E3431343634733400342534EE
:080020002E342A34663400344A
:100300004230F000F00B82290000080064008001F8
:10031000840A040603190034040687290030831276
:1003200003134F1801300A128A1172230A128A111C
:10033000FA010030831203134F1801300A128A1198
:100340008E260A128A110800F101F10A00300A1201
:100350008A11BE210A128A110D30F400FB30F3001D
:10036000F30BB029F40BB029B52983120313CD0187
:10037000CE014F104E1CBD294F140800F200831609
:100380000313860172080319C629C729CC298312D1
:10039000031388170813D029831203130813881333
:1003A000710886008816D429D5290000831203130A
:1003B00088120A128A1180210A128A1108008312F7
:1003C0000313A7002708FF007F08A800F5292808C5
:1003D000840000080A128A11F4250A128A110130D9
:1003E000FF007F0883120313A807280884008313E3
:1003F0000008031DFC29FD29E72927082802080019
:10040000F60076080139831203134F11031D4F15AF
:1004100073080139CF10031DCF147308031D112A6F
:10042000132A0130142A0030F4007608031D192A1B
:100430001B2A01301C2A0030F500750774040438AB
:10044000FF007F08F10000300A128A11BE210A1253
:100450008A110800F6007308031D2F2A312A013083
:10046000322A0030F40002300310F40DFF3E031D69
:10047000342A7608031D3D2A3F2A0130402A0030E5
:10048000F50002300310F50DFF3E031D422A031054
:10049000750D74041038FF007F08F10000300A1257
:1004A0008A11BE210A128A110800F8005F2AF3019E
:1004B000F30A01300A128A112A220A128A11FF3025
:1004C000FF007F08F807780A0319672A682A772A45
:1004D000831203134C08803AF700FF30CD07013038
:1004E0004D07803AF702031C762A772A572A83128F
:1004F00003134D08803AF7004C08803AF7020318BE
:10050000822A832A872A4C08FF007F08CD00080032
:10051000F8007408031D8D2A8F2A0130902A0030BC
:10052000F5007308031D952A972A0130982A003098
:10053000F60001300310F60DFF3E031D9A2A7808DD
:10054000031DA32AA52A0130A62A0030F700013096
:100550000310F70DFF3E031DA82A0310770D760444
:1005600075040838FF007F08F10000300A128A1174
:10057000BE210A128A110800F80083120313CF1D4E
:10058000C22AC32AC82A6730F6000030F700CC2AF6
:100590004F30F6000030F70003104F1903140030FD
:1005A000031801307607F30077080318770AF40080
:1005B0007408803AF50080307502031DE12A78083E
:1005C0007302031CE42AE52AF32A831203134F1251
:1005D00078088038FF007F08F10000300A128A1185
:1005E000BE210A128A110800F800831203134B0877
:1005F000F13EFF007F08F900042BF30101300A12DD
:100600008A112A220A128A11FF30FF007F08F80798
:10061000780A03190C2B0D2B1C2B013083120313AA
:10062000CD07FF304D07803AF7007908803AF7028E
:10063000031C1B2B1C2BFD2A7908803AF700831220
:1006400003134D08803AF7020318272B282B2C2B75
:100650007908FF007F08CD000800F8007408031D2A
:10066000322B342B0130352B0030F50002300310D3
:10067000F50DFF3E031D372B7308031D402B422B46
:100680000130432B0030F60003300310F60DFF3E1F
:10069000031D452B7808031D4E2B502B0130512B89
:1006A0000030F70003300310F70DFF3E031D532BFE
:1006B0000310770D760475042038FF007F08F100E1
:1006C00000300A128A11BE210A128A117308031D12
:1006D0006A2B6E2B83120313CF15712B8312031316
:1006E000CF11080083120313B40000304F180130FB
:1006F000B7004E08FF007F08B8004B08013EFF001E
:100700007F08B9003408031D862B872B8A2BB5017F
:10071000B6018E2B4030B5000030B60035080A1205
:100720008A11BC220A128A119F2B2030FF007F08F9
:10073000F10001300A128A11BE210A128A11FF301B
:10074000FF007F0883120313B907390A031DA92B81
:10075000AA2B952B3808FF007F08FA003708031DE5
:10076000B22BB42B0130B52B00300A128A118E2621
:100770000A128A11080073087204710470040319C4
:10078000C22BC32B062CF901F90AD32B0130F80038
:100790000310F00DF10DF20DF30DF80BC82B013025
:1007A000FF007F08F907F31FD62BD72BC62B730842
:1007B0007702031DE52B72087602031DE52B7108F5
:1007C0007502031DE52B70087402031CE82BE92B4E
:1007D000F72B7008F4027108031C710FF502720800
:1007E000031C720FF6027308031C730FF70201302B
:1007F0000310F30CF20CF10CF00CFF3E031DF82B70
:100800000130F902031D052C062CD72B7708F300C5
:100810007608F2007508F1007408F0000800003056
:10082000FC000030FB000030FA000030F9007308D3
:1008300072047104700403191E2C1F2C6C2CFD0112
:10084000FD0A2F2C0130F8000310F00DF10DF20D10
:10085000F30DF80B242C0130FF007F08FD07F31F78
:10086000322C332C222C0130F8000310F90DFA0D34
:10087000FB0DFC0DF80B352C73087702031D4A2C79
:1008800072087602031D4A2C71087502031D4A2C5A
:1008900070087402031C4D2C4E2C5D2C7008F40261
:1008A0007108031C710FF5027208031C720FF60227
:1008B0007308031C730FF702791401300310F30C53
:1008C000F20CF10CF00CFF3E031D5E2C0130FD021A
:1008D000031D6B2C6C2C332C7C08F3007B08F2007E
:1008E0007A08F1007908F0000800FC008316031371
:1008F00088017C08031D7D2C7F2C0130802C00306A
:10090000FF007F08FC007908031D872C892C01302B
:100910008A2C0030FF007F08F9007C08FF007F0868
:10092000F3007908FF007F08F40001300A128A11F1
:100930002D230A128A117C08FF007F08F300790832
:10094000FF007F08F40001300A128A112D230A12D9
:100950008A11F301F40100300A128A1188220A1266
:100960008A110A128A11A4210A128A11F301013094
:100970000A128A1100220A128A11F301F30AF40101
:10098000F40A01300A128A1188220A128A1183128B
:100990000313CC01CF19CD2CCE2CD32C4F30FA0021
:1009A0000030FB00D72C2730FA000030FB007A081B
:1009B000FF007F08CB0008002E3084000C30FF00C1
:1009C00083138001840AFF0BE02C3930FF007F087D
:1009D00083120313BA00AC1FEE2CEF2C042D2D3024
:1009E0000A128A11F4250A128A11013083120313A4
:1009F000BA02A909AA09AB09AC09A90A0319AA0AEA
:100A00000319AB0A0319AC0A0030F3000030F200FE
:100A10000030F1000A30F0002C08F7002B08F60037
:100A20002A08F5002908F4000A128A11BB230A12C9
:100A30008A117008303EFF00013083120313BA029E
:100A40003A0884007F08831380002E30AD003A08F6
:100A50002D0203182C2D2D2D542D0030F3000030C5
:100A6000F2000030F1000A30F0002C08F7002B08EB
:100A7000F6002A08F5002908F4000A128A110F244A
:100A80000A128A11730883120313AC007208AB00B8
:100A90007108AA007008A9002C082B042A04290454
:100AA000031D532D542D042D3A080A128A11DF21FB
:100AB0000A128A110800831603138901880187012D
:100AC00086018501FF3087008312031389018801A5
:100AD000870186018501F90101300A128A11752406
:100AE0000A128A11003083120313BE000130BD00C8
:100AF000E230BC004030BB00FA0100300A128A111B
:100B00008E260A128A110A128A118E210A128A115D
:100B1000831203133E08AC003D08AB003C08AA005A
:100B20003B08A9000A128A11DC240A128A118312D6
:100B30000313070803199D2D9E2D972D071CA12D2A
:100B4000A22DB62D0A128A118E210A128A11FA01DB
:100B50000310831203134F1C0314003003180130D9
:100B60000A128A118E260A128A11E92D871CB92DC4
:100B7000BA2DC92D7D30BB07003003180130BC07EA
:100B8000003003180130BD07003003180130BE07E4
:100B9000E92D071DCC2DCD2DD92D8330BB07FF307E
:100BA000031CBC07FF30031CBD07FF30031CBE073E
:100BB000E92D871DDC2DDD2DE92DBB09BC09BD0903
:100BC000BE09BB0A0319BC0A0319BD0A0319BE0AF0
:100BD000E92D831203130708031DEF2DF02DE92DD6
:100BE000832D0A128A11002883120313A0004F19C3
:100BF000FA2DFB2D092E4C08FA00FB01FA1BFB0312
:100C00007A08FF3EA1007B080318013EFF3EA200C8
:100C1000122E01304B07A100A2010318A20ACB1F1C
:100C2000122EA203831203134E08FA00FB01FA1BD3
:100C3000FB0322087B06031D1F2E21087A06031DD5
:100C4000222E232E242E8D2E2008FF007F08F10057
:100C500001300A128A11BE210A128A11831203136B
:100C60004F1D332E342E532E4E08FA00FB01FA1B73
:100C7000FB030F304D07FC00FD010318FD0ACD1FDB
:100C8000422EFD037B087D06031D482E7A087C0654
:100C9000031D4B2E4C2E532E01300A128A11F422C2
:100CA0000A128A11652E831203134F19582E592EDA
:100CB000652E4E084D06031D5E2E5F2E652E0130FB
:100CC0000A128A1155220A128A11831203134F192C
:100CD0006A2E6B2E702EFF30A300FF30A400742EFE
:100CE0000130A3000030A4002308FF007F08CE07D6
:100CF000CF1C7B2E7C2E8D2E4F197F2E802E852E85
:100D0000FF30A500FF30A600892E0130A50000307D
:100D1000A6002508FF007F08CD07080083120313F3
:100D2000B30003104F1903140030031801304B07B0
:100D3000A000A1010318A10ACB1F9F2EA1037A08CE
:100D400083120313A200A301A21BA3032308803A6A
:100D5000A4002108803A2402031DB02E200822029C
:100D6000031CB32EB42EC52E0310831203134F1988
:100D700003140030031801304B07A700A801031823
:100D8000A80ACB1FC42EA803CC2E7A088312031303
:100D9000A700A801A71BA803831203133308031D90
:100DA000D22ED32ED62EA901AA01DA2E4030A900C8
:100DB0000030AA00270829070A128A11BC220A1249
:100DC0008A1183120313CF19E62EE72EEA2EAB0108
:100DD000AC01F72E3308031DEE2EF02E0130F12E5C
:100DE0000030A000A1012008AB002108AC004F108A
:100DF0002B1CFB2E4F147A0883120313A000A101B1
:100E0000A01BA1034C08A200A301A21BA303031073
:100E10004F1D03140030031801302202A4002308E0
:100E2000031C2303A5002508803AA6002108803A68
:100E30002602031D1D2F20082402031C202F212F12
:100E4000352F831203134C08A000A101A01BA1039E
:100E500003104F1D03140030031801302002AF00AF
:100E60002108031C2103B0003C2F7A0883120313CE
:100E7000AF00B001AF1BB00303104F1903140030D3
:100E8000031801304B07A000A1010318A10ACB1FD2
:100E90004A2FA103831203133008803AA2002108CD
:100EA000803A2202031D562F20082F02031C592FBF
:100EB0005A2F6B2F0310831203134F1903140030A2
:100EC000031801304B07AD00AE010318AE0ACB1F6B
:100ED0006A2FAE03B02F7A0883120313A000A1017A
:100EE000A01BA1034C08A200A301A21BA303031093
:100EF0004F1D03140030031801302202A400230800
:100F0000031C2303A5002508803AA6002108803A87
:100F10002602031D8D2F20082402031C902F912FE1
:100F2000A52F831203134C08A000A101A01BA1034D
:100F300003104F1D03140030031801302002B100CC
:100F40002108031C2103B200AC2F7A08831203137B
:100F5000B100B201B11BB2033208AE003108AD00DE
:100F6000831203132D08FF007F08CE004E08803A3D
:100F7000A0004D08803AA0020318BF2FC02FC82F31
:100F80004E084D020A128A1155220A128A11EF2FB9
:100F90004E08A000A101A01BA1030F304D07A20025
:100FA000A3010318A30ACD1FD62FA3038312031393
:100FB0002308803AA4002108803A2402031DE22F6E
:100FC000200822020318E52FE62FEF2F83120313C8
:100FD0004D084E020A128A11F4220A128A110800E0
:100FE00083120313CF0183133F3084004F300A1262
:100FF0008A1186210A128A1183010A128A115B2D35
:02400E00FA3F77
:00000001FF
