:060000000A128A11E62F2E
:10000800253084000C30FF0083138001840AFF0B25
:1000180008283030FF007F0883120313B100A31FA4
:10002800162817282C282D300A168A155B240A1240
:100038008A11013083120313B102A009A109A20990
:10004800A309A00A0319A10A0319A20A0319A30AFA
:100058000030F3000030F2000030F1000A30F00008
:100068002308F7002208F6002108F5002008F4000C
:100078000A168A15C4250A128A117008303EFF0034
:10008800013083120313B102310884007F088313FF
:1000980080002530A400310824020318542855286C
:1000A8007C280030F3000030F2000030F1000A3004
:1000B800F0002308F7002208F6002108F5002008C0
:1000C800F4000A168A1100200A128A117308831292
:1000D8000313A3007208A2007108A1007008A00011
:1000E8002308220421042004031D7B287C282C28B3
:1000F80031080A168A1577220A128A11080083160F
:100108000313BC00A130FF007F08AF00CB2F2530C0
:1001180043060319902891289D284308FF003C08AE
:1001280084007F08831380000130FF007F08BC072C
:10013800CB2FB001B101200884000A168A150A20C5
:100148000A128A112E3A031DAA28AB282029311732
:100158000130FF007F08A007200884000A168A15CE
:100168000A200A128A112A3A031DBB28BC28D8285B
:100178002F08840083130008C100840A0008C20005
:100188000230FF007F08AF07C21FCB28CC28D32836
:10019800C101C201FF30B005BF30B10531160130D1
:1001A800FF007F08A007B429C101C2010F290A3046
:1001B800F0000030F100831603134208F3004108F1
:1001C800F2000A168A1518230A128A117108831672
:1001D8000313C2007008C100200884000A168A159B
:1001E8000A200A128A11D03E83120313EA00FF3054
:1001F80003180030EB006A0883160313C1070318BD
:10020800C20A831203136B0883160313C207013053
:10021800FF007F08A007200884000A168A150A2014
:100228000A128A110A168A1550220A128A1103180C
:100238001E291F29DB28B429C101C2013116B4299E
:10024800831603133115D529831603132F08840049
:1002580083130008AD000030AE000130FF007F08B6
:10026800AF072D082E04031D3A293B293F29913059
:10027800AD008030AE00AB01AC014A2901308316D5
:100288000313AB070318AC0A0030AC072B082D0783
:1002980084002E0803182E0A83120313FF000A167F
:1002A8008A1500200A128A11003A031D5C295D296B
:1002B8004229831603134108420403196429652956
:1002C800A3294208803A83120313EA008316031312
:1002D8002C08803A831203136A02031D77298316B8
:1002E80003132B08410203187A297B29A3298316B3
:1002F80003134208AC004108AB00A3292E0883125F
:100308000313FF00831603132D08840083120313BD
:100318000A168A1500200A128A11FF008316031391
:100328003C0884007F08831380000130AD07031860
:10033800AE0A0030AE070130FF007F08BC0701306D
:1003480083160313AB020030031CAC03AC022B0A68
:10035800031DB2292C0A031DB229B3298229CB2FE8
:10036800013083160313A007FF30200784000A1604
:100378008A150A200A128A11C30083120313EA009D
:10038800EB016B08003A0319CA29CB2F6A08003A17
:100398000319DF2F663A03192429153A0319282966
:1003A800CB2F0030300583120313EA000730831681
:1003B8000313310583120313EB006A086B04031956
:1003C800E629E729782F83160313311EEC29ED2936
:1003D800F1290630C1000030C2002F0884008313C1
:1003E8000008BD00840A0008BE00840A0008BF0097
:1003F800840A0008C0000430FF007F08AF074008E7
:10040800F3003F08F2003E08F1003D08F00000301C
:10041800F7000030F6000030F5000030F4000A164E
:100428008A155E270A128A1103181B2A1C2A392AE0
:10043800831603134008F3003F08F2003E08F1005A
:100448003D08F0000A168A1533220A128A11730829
:1004580083160313C0007208BF007108BE0070083D
:10046800BD000330B0040030B10483160313B60195
:10047800B7014008F3003F08F2003E08F1003D08CC
:10048800F0000030F7000030F6000030F5000030D2
:10049800F4000A168A1523250A128A110318552A08
:1004A800562A462B0310831603133F0D400D823E38
:1004B800B600FF3003180030B700FF30B607031846
:1004C800B70AFF30B7070330F0000030F1003708F3
:1004D800F3003608F2000A168A1518230A128A1140
:1004E800710883160313B7007008B6000A30F600C7
:1004F8000030F7003708F9003608F8000A168A15A0
:100508007B260A128A11770883160313B700760828
:10051800B600B71F902A912A972AFF30B60703180A
:10052800B70AFF30B7073603FF3A0A128A15402187
:100538000A128A11831203133D0883160313BB00A2
:10054800831203133C0883160313BA0083120313A0
:100558003B0883160313B900831203133A08831662
:100568000313B800400883120313A3008316031370
:100578003F0883120313A200831603133E08831255
:100588000313A100831603133D0883120313A0006D
:10059800831603133B0883120313A7008316031360
:1005A8003A0883120313A60083160313390883122B
:1005B8000313A50083160313380883120313A4003A
:1005C8000A128A159F240A128A1183120313230818
:1005D80083160313BB008312031322088316031325
:1005E800BA0083120313210883160313B900831278
:1005F8000313200883160313B8003B08F3003A08D6
:10060800F2003908F1003808F0003F30F700803078
:10061800F6000030F5000030F4000A168A155E274F
:100628000A128A110318192B1A2B232BFF30831651
:100638000313B6070318B70AFF30B707462B83160C
:1006480003133B08F3003A08F2003908F1003808B0
:10065800F0004130F7002030F6000030F50000309F
:10066800F4000A168A155E270A128A11031C3D2B0C
:100678003E2B462B013083160313B6070318B70A1F
:100688000030B707831603134208803AFF00803012
:100698007F02031D512B0D3041020318542B552B9B
:1006A8009C2B8316031341080A168A116D230A121C
:1006B8008A11831203133D08D1003C08D0003B087F
:1006C800CF003A08CE0083160313400883120313A1
:1006D800D500831603133F0883120313D40083162F
:1006E80003133E0883120313D300831603133D0834
:1006F80083120313D2000A168A1178250A128A1166
:1007080083120313510883160313C00083120313C3
:10071800500883160313BF00831203134F08831670
:100728000313BE00831203134E0883160313BD0080
:10073800831603133708803AFF0080307F02031DB9
:10074800A72B0A3036020318AA2BAB2BFC2B8316D7
:1007580003134008F3003F08F2003E08F1003D088B
:10076800F0000030F7000030F6000030F5000030EF
:10077800F4000A168A1523250A128A110318C52BB4
:10078800C62B6E2C83160313400883120313D00064
:10079800831603133F0883120313CF008316031332
:1007A8003E0883120313CE00831603133D088312F9
:1007B8000313CD000A168A15E2260A128A1183123B
:1007C800031350084F044E044D04031DEC2BED2B6E
:1007D8006E2C831603133708803AFF0080307F029F
:1007E800031DF82B02303602031CFB2BFC2B6E2C4E
:1007F800831603133B08F3003A08F2003908F100A6
:100808003808F0004030F7008930F6007030F50005
:100818005F30F4000A168A155E270A128A11031837
:10082800162C172C202CF73083160313B607031841
:10083800B70AFF30B707282CF83083160313B6071A
:100848000318B70AFF30B70736080A128A1540217D
:100858000A128A11831203133D0883160313BB007F
:10086800831203133C0883160313BA00831203137D
:100878003B0883160313B900831203133A0883163F
:100888000313B8004008F3003F08F2003E08F100E7
:100898003D08F0003B08F7003A08F6003908F50073
:1008A8003808F4000A168A11DD210A128A11730821
:1008B80083160313B5007208B4007108B3007008FA
:1008C800B2000030C0000030BF000030BE00003071
:1008D800BD00F22C83160313400883120313D000C3
:1008E800831603133F0883120313CF0083160313E1
:1008F8003E0883120313CE00831603133D088312A8
:100908000313CD000A168A15E2260A128A118312E9
:100918000313500883160313B500831203134F08FB
:1009280083160313B400831203134E0883160313AC
:10093800B300831203134D0883160313B20035085E
:10094800F3003408F2003308F1003208F0000030F8
:100958000A168A1166200A128A1173088312031371
:10096800E5007208E4007108E3007008E2008316ED
:100978000313400883120313E900831603133F0887
:1009880083120313E800831603133E08831203132C
:10099800E700831603133D0883120313E6000A16C3
:1009A8008A15F4220A128A11831203136508831622
:1009B8000313C00083120313640883160313BF00D4
:1009C80083120313630883160313BE0083120313F1
:1009D800620883160313BD00B601B701C301C30A39
:1009E800430883120313EA0001300310EA0DFF3EA7
:1009F800031DF92C03106A0D693E84000A168A1536
:100A08000A200A128A11EB000A168A150A200A120D
:100A18008A11EC000A168A150A200A128A11ED00BA
:100A28000A168A150A200A128A11EE006E08831621
:100A380003133502031D362D831203136D08831625
:100A480003133402031D362D831203136C08831617
:100A580003133302031D362D831203136B08831609
:100A6800031332020318392D3A2D3B2D452D013041
:100A7800FF007F08C3070A304306031D442D452D98
:100A8800F42C0330300583120313EA000030831678
:100A98000313310583120313EB006A086B0403196F
:100AA800562D572DCF2D2D30FF00831603133C08EC
:100AB80084007F08831380000130FF007F08BC0793
:100AC800CF2D430883120313EA0001300310EA0D07
:100AD800FF3E031D6A2D03106A0D693E84000A1645
:100AE8008A150A200A128A11F0000A168A150A20A5
:100AF8000A128A11F1000A168A150A200A128A11A6
:100B0800F2000A168A150A200A128A11F3008316BF
:100B180003133508F7003408F6003308F5003208E7
:100B2800F4000A168A1100200A128A117308831623
:100B38000313BB007208BA007108B9007008B80046
:100B48000030F3000030F2000030F1000A30F0000D
:100B58003B08F7003A08F6003908F5003808F400B1
:100B68000A168A15C4250A128A11730883160313F4
:100B7800BB007208BA007108B9007008B8003808DC
:100B8800303EFF003C0884007F088313800001305A
:100B9800FF007F08BC07013083160313C302430A12
:100BA800031DD72DD82D652DEC2D3030FF00831671
:100BB80003133C0884007F08831380000130FF0082
:100BC8007F08BC07FF30B6070318B70AFF30B7071E
:100BD8003708803AFF0080307F02031DF52D013071
:100BE80036020318F82DF92DD92D83160313420860
:100BF800803AFF0080307F02031D042E0930410235
:100C0800031C072E082E0F2E0830FF007F088316BE
:100C18000313C300152E831603134108FF007F0832
:100C2800C300430883120313EA00EB016A08831622
:100C38000313C102831203136B0883160313031CE7
:100C4800C203C202430803192A2E2B2E362E2E3039
:100C5800FF003C0884007F08831380000130FF00F8
:100C68007F08BC0743080A128A1540210A128A1114
:100C7800831203133D0883160313AA008312031378
:100C88003C0883160313A900831203133B08831639
:100C98000313A800831203133A0883160313A7004B
:100CA8002A0883120313A700831603132908831243
:100CB8000313A60083160313280883120313A50041
:100CC80083160313270883120313A4008316031340
:100CD800400883120313A300831603133F088312EB
:100CE8000313A200831603133E0883120313A10003
:100CF800831603133D0883120313A0000A128A15F2
:100D08009F240A128A11831203132308D000220891
:100D1800CF002108CE002008CD000A168A15E22649
:100D28000A128A1183120313500883160313B5009D
:100D3800831203134F0883160313B400831203139B
:100D48004E0883160313B300831203134D0883164A
:100D58000313B200582F430883120313EA0001302B
:100D68000310EA0DFF3E031DB42E03106A0D693E01
:100D780084000A168A150A200A128A11F0000A1637
:100D88008A150A200A128A11F1000A168A150A2001
:100D98000A128A11F2000A168A150A200A128A1102
:100DA800F300831603133508F7003408F6003308F8
:100DB800F5003208F4000A168A1100200A128A1176
:100DC800730883160313BB007208BA007108B900D0
:100DD8007008B8000030F3000030F2000030F10075
:100DE8000A30F0003B08F7003A08F6003908F50029
:100DF8003808F4000A168A15C4250A128A117308DD
:100E080083160313BB007208BA007108B900700892
:100E1800B8003808303EFF003C0884007F08831380
:100E280080000130FF007F08BC07430883120313CA
:100E3800EA0001300310EA0DFF3E031D1E2F0310C8
:100E48006A0D693E84000A168A150A200A128A1158
:100E5800F0000A168A150A200A128A11F1000A16E9
:100E68008A150A200A128A11F2000A168A150A201F
:100E78000A128A11F300831603133508F7003408A1
:100E8800F6003308F5003208F4000A168A15C4255E
:100E98000A128A11730883160313B5007208B40086
:100EA8007108B3007008B2000130C302430A031D81
:100EB8005E2F5F2FAF2E712F3030FF003C0884006B
:100EC8007F08831380000130FF007F08BC07FF30D4
:100ED800C1070318C20AFF30C20741084204031DB4
:100EE800762F772F602FCB2F8316031341084204E8
:100EF800031D7F2F802F8E2F3508340433043204CE
:100F0800031D872F882F8E2F0130C1070318C20AAF
:100F18000030C2074208803A803C031D952F4108E3
:100F280043020318982F992F9A2FAD2F8316031376
:100F38004208803A83120313EA0080306A02031DD4
:100F4800A92F83160313430841020318AC2FAD2FB2
:100F5800AD2F033083160313300583120313EA0001
:100F6800003083160313310583120313EB006A085C
:100F78006B040319C02FC12FCB2F2D30FF00831610
:100F880003133C0884007F088313800098280130ED
:100F980083160313A007FF30200784000A168A155A
:100FA8000A200A128A11FF007F08C3004308031DA4
:100FB800DE2FDF2F8B28831603133C08840083134E
:100FC8008001080083120313EF0183160313E40161
:100FD800E201E30183160317900191019201930145
:100FE8009401950196019701980199019A019B0135
:080FF80083010A168A119B2AED
:10100200F501F31F052806280D28F209F309F20A53
:101012000319F30AF501F50AF11F10281128162801
:10102200F009F109F00A0319F10A700871040319B1
:101032001B281C284B28F401F40A2A28013003102B
:10104200F00DF10DFF3E031D20280130FF007F0847
:10105200F407F11F2D282E281F2871087302031D83
:10106200342870087202031C372838283E2870087A
:10107200F2027108031CF303F30201300310F10CB6
:10108200F00CFF3E031D3F280130F402031D4A28E5
:101092004B282E28750803194F2850285528F20985
:1010A200F309F20A0319F30A7308F1007208F00057
:1010B200080083120313B200831603136418622814
:1010C2006328682883120313A001A10177288312E1
:1010D20003133208031D6E28702801307128003076
:1010E200F800F9017808A0007908A1006F10201C0F
:1010F2007B286F148316031364188028812888289C
:101102004F3083120313A2000030A3009B288312E6
:1011120003136F188D288E2893282730A4000030DF
:10112200A50097286730A4000030A5002508A30079
:101132002408A200831603136308F800F90183123E
:10114200031323087906031DA82822087806031D25
:10115200AB28AC28B02883160313E301F5288316C5
:1011620003136418B528B628BD284F308312031321
:10117200A8000030A900C328273083120313A80057
:101182000030A9002908803A803C031DCA2828089B
:101192007702031CCD28CE28E62883160313641891
:1011A200D328D428DB284F3083120313AA0000303F
:1011B200AB00E128273083120313AA000030AB00F2
:1011C2002B08A7002A08A600EF287708F800F901E3
:1011D200780883120313A6007908A7002608FF00E7
:1011E2007F0883160313E300641CF828F9282329D7
:1011F20027307702031CFE28FF2806292730831296
:101202000313AC000030AD000F297708F800F90194
:10121200780883120313AC007908AD003208031D6D
:10122200132914291729AE01AF011B294030AE0042
:101232000030AF002C082E070A168A158F230A12D7
:101242008A153F294F307702031C28292929302982
:101252004F3083120313B0000030B10039297708F0
:10126200F800F901780883120313B0007908B1007D
:1012720030080A168A158F230A128A15080083126B
:101282000313CC00CC1F46294729F42ACC09CC0AE7
:101292004C08803A123E031C4F295029382A0A3042
:1012A200F6000030F7004C08F200F301F21BF303E2
:1012B2006430F0000030F1000A128A1501200A128F
:1012C2008A157108F9007008F8000A168A157B263B
:1012D2000A128A15760883120313BE000130031026
:1012E200BE0DFF3E031D702903103E0D593E8400C2
:1012F2000A168A150A200A128A15BF000A168A15CA
:101302000A200A128A15C0000A168A150A200A1231
:101312008A15C1000A168A150A200A128A15C20005
:101322004208A3004108A2004008A1003F08A00013
:101332006430F6000030F7004C08F800F901F81BA1
:10134200F9030A168A157B260A128A157608831271
:101352000313C30001300310C30DFF3E031DAC296C
:101362000310430D7D3E84000A168A150A200A12D4
:101372008A15C4000A168A150A200A128A15C5009F
:101382000A168A150A200A128A15C6000A168A1532
:101392000A200A128A15C7004708A7004608A600B5
:1013A2004508A5004408A4000A128A159F240A12BF
:1013B2008A15831203132308CB002208CA002108CE
:1013C200C9002008C8000A30F0000030F1004C08C3
:1013D200F200F301F21BF3030A128A1501200A122A
:1013E2008A15700883120313BE0001300310BE0D6C
:1013F200FF3E031DF72903103E0D353E84000A16F9
:101402008A150A200A128A15BF000A168A150A20AE
:101412000A128A15C0000A168A150A200A128A15AB
:10142200C1000A168A150A200A128A15C200420849
:10143200A3004108A2004008A1003F08A0004B08F9
:10144200A7004A08A6004908A5004808A4000A12F5
:101452008A159F240A128A15831203132308BD00DA
:101462002208BC002108BB002008BA009E2C4C08B0
:10147200803A753E031C3E2A3F2AC72A0A30F000F2
:101482000030F1004C08F200F301F21BF3030A12E0
:101492008A1501200A128A15700883120313BE00EE
:1014A20001300310BE0DFF3E031D522A03103E0DF4
:1014B200353E84000A168A150A200A128A15BF00D0
:1014C2000A168A150A200A128A15C0000A168A15F7
:1014D2000A200A128A15C1000A168A150A200A125F
:1014E2008A15C2004208A3004108A2004008A100D8
:1014F2003F08A0000A30F6000030F7004C08F80060
:10150200F901F81BF9030A168A157B260A128A15B5
:10151200760883120313C30001300310C30DFF3E8C
:10152200031D8E2A0310430D593E84000A168A15A4
:101532000A200A128A15C4000A168A150A200A12FB
:101542008A15C5000A168A150A200A128A15C600CB
:101552000A168A150A200A128A15C7004708A70028
:101562004608A6004508A5004408A4000A128A15E8
:101572009F240A128A15831203132308BD0022082E
:10158200BC002108BB002008BA009E2C4C08BE00FB
:1015920001300310BE0DFF3E031DCA2A03103E0D8B
:1015A200353E84000A168A150A200A128A15BF00DF
:1015B2000A168A150A200A128A15C0000A168A1506
:1015C2000A200A128A15C1000A168A150A200A126E
:1015D2008A15C2004208BD004108BC004008BB0099
:1015E2003F08BA009E2C4C08803A123E031CFA2A8D
:1015F200FB2AE32B0A30F6000030F7004C08F20019
:10160200F301F21BF3036430F0000030F1000A1220
:101612008A1501200A128A157108F9007008F8006B
:101622000A168A157B260A128A1576088312031374
:10163200BE0001300310BE0DFF3E031D1B2B031025
:101642003E0D253E84000A168A150A200A128A15C2
:10165200BF000A168A150A200A128A15C0000A1645
:101662008A150A200A128A15C1000A168A150A204A
:101672000A128A15C2004208A3004108A2004008CB
:10168200A1003F08A0006430F6000030F7004C08CB
:10169200F800F901F81BF9030A168A157B260A12CB
:1016A2008A15760883120313C30001300310C30D99
:1016B200FF3E031D572B0310430D493E84000A16BB
:1016C2008A150A200A128A15C4000A168A150A20E7
:1016D2000A128A15C5000A168A150A200A128A15E4
:1016E200C6000A168A150A200A128A15C700470878
:1016F200A7004608A6004508A5004408A4000A124F
:101702008A159F240A128A15831203132308CB0019
:101712002208CA002108C9002008C8000A30F000C7
:101722000030F1004C08F200F301F21BF3030A123D
:101732008A1501200A128A15700883120313BE004B
:1017420001300310BE0DFF3E031DA22B03103E0D00
:10175200013E84000A168A150A200A128A15BF0061
:101762000A168A150A200A128A15C0000A168A1554
:101772000A200A128A15C1000A168A150A200A12BC
:101782008A15C2004208A3004108A2004008A10035
:101792003F08A0004B08A7004A08A6004908A50078
:1017A2004808A4000A128A159F240A128A15831275
:1017B20003132308BD002208BC002108BB00200837
:1017C200BA009E2C4C08803A753E031CE92BEA2B8A
:1017D200722C0A30F0000030F1004C08F200F301E4
:1017E200F21BF3030A128A1501200A128A157008E5
:1017F20083120313BE0001300310BE0DFF3E031D12
:10180200FD2B03103E0D013E84000A168A150A20A4
:101812000A128A15BF000A168A150A200A128A15A8
:10182200C0000A168A150A200A128A15C1000A1671
:101832008A150A200A128A15C2004208A30041082A
:10184200A2004008A1003F08A0000A30F6000030C4
:10185200F7004C08F800F901F81BF9030A168A157B
:101862007B260A128A15760883120313C3000130FD
:101872000310C30DFF3E031D392C0310430D253EFB
:1018820084000A168A150A200A128A15C4000A164A
:101892008A150A200A128A15C5000A168A150A2014
:1018A2000A128A15C6000A168A150A200A128A1511
:1018B200C7004708A7004608A6004508A500440837
:1018C200A4000A128A159F240A128A15831203138E
:1018D2002308BD002208BC002108BB002008BA0072
:1018E2009E2C4C08BE0001300310BE0DFF3E031DAE
:1018F200752C03103E0D013E84000A168A150A203B
:101902000A128A15BF000A168A150A200A128A15B7
:10191200C0000A168A150A200A128A15C1000A1680
:101922008A150A200A128A15C2004208BD0041081F
:10193200BC004008BB003F08BA0008008312031332
:1019420023088039FF007F08AD002308A80028077C
:10195200FF007F08B300A21FAF2CB02CB12C3314B0
:1019620033080319B52CB62CC52C330A031DBA2C27
:10197200BB2CC32C0030A3000030A2000030A10019
:101982000030A000A217CD2C0030A3000030A2002E
:101992000030A1000030A00027088039FF007F0836
:1019A200AD062708A8002807FF007F08B200A61F7F
:1019B200DB2CDC2CDD2C321432080319E12CE22C56
:1019C200F12C320A031DE62CE72CEF2C0030A70085
:1019D2000030A6000030A5000030A400A617F92CA4
:1019E2000030A7000030A6000030A5000030A4009F
:1019F20032080319FD2CFE2C032D3308031D022D82
:101A0200032D0C2D0030A3000030A2000030A100F5
:101A12000030A000FF2F2008FF007F08F0002608FA
:101A22000A168A153D230A128A15710883120313B6
:101A3200B9007008B8003808A800A901AA01AB01D2
:101A42002B08B1002A08B0002908AF002808AE0010
:101A52003908A800A901AA01AB012B08B7002A087E
:101A6200B6002908B5002808B4002108FF007F0845
:101A7200F00025080A168A153D230A128A157108F4
:101A820083120313B9007008B8003808A800A9012E
:101A9200AA01AB012808AE07290803110318013E69
:101AA2000319542DAF072A0803110318013E031925
:101AB2005B2DB0072B0803110318013E0319622D99
:101AC200B1073908A800A901AA01AB012808B40787
:101AD200290803110318013E0319702DB5072A08BE
:101AE20003110318013E0319772DB6072B080311C2
:101AF2000318013E03197E2DB7072208FF007F0855
:101B0200F00024080A168A153D230A128A15710864
:101B120083120313B9007008B8003808A800A9019D
:101B2200AA01AB012808AE07290803110318013ED8
:101B320003199C2DAF072A0803110318013E03194C
:101B4200A32DB0072B0803110318013E0319AA2D78
:101B5200B1073908A800A901AA01AB012808B407F6
:101B6200290803110318013E0319B82DB5072A08E5
:101B720003110318013E0319BF2DB6072B080311E9
:101B82000318013E0319C62DB7070830A800031039
:101B9200AE0DAF0DB00DB10DA80BC82D2108FF0081
:101BA2007F08F00024080A168A153D230A128A15B6
:101BB200710883120313B9007008B8003808A8002E
:101BC2003908A900AA01AB012808AE0729080311A8
:101BD2000318013E0319EE2DAF072A08031103185B
:101BE200013E0319F52DB0072B0803110318013E1E
:101BF2000319FC2DB1072008FF007F08F00025081B
:101C02000A168A153D230A128A15710883120313D4
:101C1200B9007008B8003808A8003908A900AA015C
:101C2200AB012808AE07290803110318013E031966
:101C32001B2EAF072A0803110318013E0319222E97
:101C4200B0072B0803110318013E0319292EB1070F
:101C52000830A8000310AE0DAF0DB00DB10DA80BEA
:101C62002B2E2008FF007F08F00024080A168A1590
:101C72003D230A128A15710883120313B9007008F2
:101C8200B8003808A8003908A900AA01AB01280841
:101C9200AE07290803110318013E0319512EAF079D
:101CA2002A0803110318013E0319582EB0072B0806
:101CB20003110318013E03195F2EB1072108FF002B
:101CC2007F08F00026080A168A153D230A128A1593
:101CD200710883120313B9007008B8003808A8000D
:101CE2003908A900AA01AB012808B4072908031181
:101CF2000318013E03197E2EB5072A0803110318A3
:101D0200013E0319852EB6072B0803110318013E65
:101D120003198C2EB7072208FF007F08F000250860
:101D22000A168A153D230A128A15710883120313B3
:101D3200B9007008B8003808A8003908A900AA013B
:101D4200AB012808B407290803110318013E03193F
:101D5200AB2EB5072A0803110318013E0319B22E50
:101D6200B6072B0803110318013E0319B92EB70752
:101D72002208FF007F08F00026080A168A153D2374
:101D82000A128A15710883120313B9007008B80089
:101D92003808A8003908A900AA01AB0108300310CD
:101DA200A80DA90DAA0DAB0DFF3E031DD02E2808CC
:101DB200B407290803110318013E0319E12EB507E0
:101DC2002A0803110318013E0319E82EB6072B084F
:101DD20003110318013E0319EF2EB7072E08A800BE
:101DE2002F08A9003008AA003108AB0018300310F0
:101DF200AB0CAA0CA90CA80CFF3E031DF82E280858
:101E0200B407290803110318013E0319092FB50766
:101E12002A0803110318013E0319102FB6072B08D5
:101E220003110318013E0319172FB7070830A80042
:101E32000310AE0DAF0DB00DB10DA80B192F330865
:101E42003207A800A901A90D2808823EB800290876
:101E52000318013EFF3EB9004B2F0130A8000310CA
:101E6200B40DB50DB60DB70DA80B302FB11F3A2F1B
:101E72003B2F3C2F34140130A8000310AE0DAF0DE0
:101E8200B00DB10DA80B3E2FFF30B8070318B90AE9
:101E9200FF30B907B61F4E2F4F2F2E2FB201B11FA1
:101EA200532F542F702FFF302E05A800FF302F051F
:101EB200A900FF303005AA007F303105AB002B08A6
:101EC2002A04290428040319672F682F6B2FB201F3
:101ED200B20A702F341C6E2F6F2F702F682F3208AA
:101EE2000319742F752FA62F0130B4070030031881
:101EF2000130B507003003180130B607003003186F
:101F02000130B707371C862F872FA62F3408A80069
:101F12003508A9003608AA003708AB000130AC002A
:101F22002B0DAB0CAA0CA90CA80CAC0B912F2B08F7
:101F3200B7002A08B6002908B5002808B400013005
:101F4200B8070318B90A0030B9073908803AFF0008
:101F520080307F02031DAF2FFF303802031CB22FE7
:101F6200B32FBE2F7F3083120313B7008030B60029
:101F72000030B5000030B400F32F83120313390888
:101F8200803AFF0080307F02031DC92F01303802E2
:101F92000318CC2FCD2FD92F003083120313B70093
:101FA2000030B6000030B5000030B400AD01F32FB0
:101FB200831203133808FF007F08B300FF30B40513
:101FC200FF30B5057F30B6050030B705331CEA2F68
:101FD200EB2FEC2FB6173308A8000310280CFF00D4
:101FE2007F08B7002D08FF007F08B7043708A30059
:101FF2003608A2003508A1003408A000080000300D
:10200200FC000030FB000030FA000030F9007308D9
:1020120072047104700403190F2810285D28FD0151
:10202200FD0A20280130F8000310F00DF10DF20D29
:10203200F30DF80B15280130FF007F08FD07F31F91
:102042002328242813280130F8000310F90DFA0D73
:10205200FB0DFC0DF80B262873087702031D3B28A5
:1020620072087602031D3B2871087502031D3B2886
:1020720070087402031C3E283F284E287008F402A0
:102082007108031C710FF5027208031C720FF6022D
:102092007308031C730FF702791401300310F30C59
:1020A200F20CF10CF00CFF3E031D4F280130FD0233
:1020B200031D5C285D2824287C08F3007B08F200BD
:1020C2007A08F1007908F0000800F800780803198E
:1020D2006B286C288028F31F6F28702880287009CD
:1020E200FA007109FB007209FC007309FD00FA0A8B
:1020F2000319FB0A0319FC0A0319FD0A882873084D
:10210200FD007208FC007108FB007008FA007308F9
:10211200720471047004031D8F28902899280030DE
:10212200F3000030F2000030F1000030F0001F290F
:102132009630FF007F08F900AB280130FF007F08CE
:10214200F90701300310FD0CFC0CFB0CFA0CFF3EEE
:10215200031DA328FE307D05031DB028B1289E284B
:10216200CD280130FF007F08F9070130FA0700305F
:1021720003180130FB07003003180130FC07003060
:1021820003180130FD0701300310FD0CFC0CFB0CA1
:10219200FA0CFF3E031DC528FF307D05031DD22822
:1021A200D328B228DF280130F9020130F4000310ED
:1021B200FA0DFB0DFC0DFD0DF40BD828FC1BE228DB
:1021C200E328E928023079020318E828E928D4280C
:1021D2007918EC28ED28F528FF30FA05FF30FB05C9
:1021E2007F30FC05FF30FD050310F90C7908F4007F
:1021F200F501F601F70118300310F40DF50DF60D97
:10220200F70DFF3E031DFD287408FA047508FB0450
:102212007608FC047708FD047808031911291229AD
:102222001729F31F152916291729FD177D08F30011
:102232007C08F2007B08F1007A08F00008007008C0
:10224200F8007108F9007208FA000310790D7A0D8E
:10225200FF007F0883120313A5002508031D3229FE
:1022620033293C290030F3000030F2000030F10045
:102272000030F000DC297408F8007508F9007608CF
:10228200FA000310790D7A0DFF007F08A4002408DC
:10229200031D4C294D294E293329F117FF30F00532
:1022A200FF30F1050030F205F517FF30F405FF307D
:1022B200F5050030F6050030A3000030A200003022
:1022C200A1000030A0007F30A50298302407F8005A
:1022D2007808A5021830FF007F08A4000130F8003A
:1022E2000310A00DA10DA20DA30DF80B7129760804
:1022F2007202031D822975087102031D8229740866
:102302007002031C8529862991297408F002750838
:10231200031C750FF1027608031C760AF2022014E0
:1023220001300310F00DF10DF20DFF3E031D922955
:102332000130A402031D9E299F296F29A51FA229EE
:10234200A329BD292508803A973E0318A929AA295D
:10235200AB29332901300310A30CA20CA10CA00C51
:10236200FF3E031DAC290130FF007F08A507031DB6
:10237200BB29BC29AB29D42918302502031CC22948
:10238200C329CF2933290130F8000310A00DA10D74
:10239200A20DA30DF80BC6290130A5022508031DC5
:1023A200D329D429C4292308F3002208F2002108E2
:1023B200F1002008F00008000310720D730DFF00F9
:1023C2007F0883120313A5002508031DE929EA29C2
:1023D200F3290030F3000030F2000030F100003049
:1023E200F0009A2A0310760D770DFF007F08A400F3
:1023F2002408031DFD29FE29FF29EA29F217FF30CF
:10240200F005FF30F105FF30F2050030F305F61755
:10241200FF30F405FF30F505FF30F6050030F70513
:102422000030A3000030A2000030A1000030A00064
:102432007F30A502A0302407F8007808A5022030DA
:10244200FF007F08A4000130F8000310A00DA10DC9
:10245200A20DA30DF80B262A77087302031D3B2A4F
:1024620076087202031D3B2A75087102031D3B2A7E
:1024720074087002031C3E2A3F2A4E2A7408F00296
:102482007508031C750FF1027608031C760FF20221
:102492007708031C770FF30220140130F8000310B1
:1024A200F00DF10DF20DF30DF80B502A0130A402DC
:1024B200031D5C2A5D2A242AA51F602A612A7B2A21
:1024C2002508803A9F3E0318672A682A692AEA2962
:1024D20001300310A30CA20CA10CA00CFF3E031DA3
:1024E2006A2A0130FF007F08A507031D792A7A2A8C
:1024F200692A922A20302502031C802A812A8D2AE9
:10250200EA290130F8000310A00DA10DA20DA30DC0
:10251200F80B842A0130A5022508031D912A922A6C
:10252200822A2308F3002208F2002108F100200881
:10253200F0000800831603138901880187018601D0
:1025420085018312031389018801870186018501B0
:10255200F90101300A168A1571250A168A118316A5
:102562000313E101F70100300A128A155A200A16F4
:102572008A11453083160313C700AA30C600733090
:10258200C500A230C4000330FF007F08C8000A164D
:102592008A15BB230A168A11FF007F0883160313CC
:1025A200E00003300A168A15D3220A168A1183160E
:1025B20003136008DC00DD01DE01DF015F08831226
:1025C2000313A300831603135E0883120313A200EE
:1025D200831603135D0883120313A10083160313EA
:1025E2005C0883120313A0000A128A1104200A163F
:1025F2008A11F7018316031361080319012B032BB8
:102602000130042B00300A128A155A200A168A1148
:1026120083160313610803190F2B112B0130122BA0
:1026220000300A168A1518260A168A118316031311
:102632006008DC00DD01DE01DF015F0883120313A5
:10264200A300831603135E0883120313A2008316EA
:1026520003135D0883120313A100831603135C089E
:1026620083120313A0000A128A1104200A168A1187
:10267200F7018316031361080319402B422B013023
:10268200432B0030FF007F08E1006108031D4A2B45
:102692004C2B01304D2B00300A128A155A200A1693
:1026A2008A110D3083160313DE00AF30DD00B53022
:1026B200DC00DC0B5A2BDD0B5A2BDE0B5A2B612B69
:1026C2008316031361080A168A1518260A168A1138
:1026D200BA2A0A128A11002883120313CD006E301F
:1026E2004D02031C752B762B832C3F30A300003048
:1026F200A2000030A1000030A0006430F5000030DC
:10270200F6004D08BE00BF013E08F7003F08F80082
:102712000A168A159A240A168A1175088312031357
:10272200C00001300310C00DFF3E031D932B0310A8
:10273200400D7D3E84000A168A150A200A168A1167
:10274200C1000A168A150A200A168A11C2000A1640
:102752008A150A200A168A11C3000A168A150A2047
:102762000A168A11C4004408A7004308A6004208BA
:10277200A5004108A4000A128A159F240A168A118C
:10278200831203132308CC002208CB002108CA00BD
:102792002008C9000A30F5000030F6004D08BE00DE
:1027A200BF013E08F2003F08F3006430F000003041
:1027B200F1000A168A1521240A168A117108F800F6
:1027C2007008F7000A168A159A240A168A117508E3
:1027D20083120313C00001300310C00DFF3E031D1E
:1027E200ED2B0310400D593E84000A168A150A206B
:1027F2000A168A11C1000A168A150A200A168A11B7
:10280200C2000A168A150A200A168A11C3000A167D
:102812008A150A200A168A11C4004408A300430834
:10282200A2004208A1004108A0004C08A7004B08E2
:10283200A6004A08A5004908A4000A128A159F2486
:102842000A168A11831203132308C8002208C7003C
:102852002108C6002008C5000A30F0000030F1004F
:102862004D08BE00BF013E08F2003F08F3000A1601
:102872008A1521240A168A11700883120313C000D4
:1028820001300310C00DFF3E031D422C0310400D0A
:10289200353E84000A168A150A200A168A11C100DA
:1028A2000A168A150A200A168A11C2000A168A1501
:1028B2000A200A168A11C3000A168A150A200A1665
:1028C2008A11C4004408A3004308A2004208A100E0
:1028D2004108A0004808A7004708A6004608A5002E
:1028E2004508A4000A128A159F240A168A11831227
:1028F20003132308BD002208BC002108BB002008E6
:10290200BA00772D0B304D02031C882C892C342DF4
:102912003F30A3000030A2000030A1000030A00030
:102922000A30F5000030F6004D08BE00BF013E0837
:10293200F7003F08F8000A168A159A240A168A1127
:10294200750883120313C00001300310C00DFF3E4F
:10295200031DA62C0310400D593E84000A168A1549
:102962000A200A168A11C1000A168A150A200A16B6
:102972008A11C2000A168A150A200A168A11C30091
:102982000A168A150A200A168A11C4004408A700EA
:102992004308A6004208A5004108A4000A128A15AD
:1029A2009F240A168A11831203132308CC002208DB
:1029B200CB002108CA002008C9000A30F00000300C
:1029C200F1004D08BE00BF013E08F2003F08F300CF
:1029D2000A168A1521240A168A1170088312031313
:1029E200C00001300310C00DFF3E031DF32C031085
:1029F200400D353E84000A168A150A200A168A11ED
:102A0200C1000A168A150A200A168A11C2000A167D
:102A12008A150A200A168A11C3000A168A150A2084
:102A22000A168A11C4004408A3004308A2004208FF
:102A3200A1004108A0004C08A7004B08A6004A08C4
:102A4200A5004908A4000A128A159F240A168A11B1
:102A5200831203132308BD002208BC002108BB0017
:102A62002008BA00772D3F30A3000030A2000030CA
:102A7200A1000030A0004D08BE0001300310BE0DC1
:102A8200FF3E031D3F2D03103E0D353E84000A1606
:102A92008A150A200A168A11BF000A168A150A2008
:102AA2000A168A11C0000A168A150A200A168A1105
:102AB200C1000A168A150A200A168A11C2004208A3
:102AC200A7004108A6004008A5003F08A4000A127A
:102AD2008A159F240A168A11831203132308BD0044
:102AE2002208BC002108BB002008BA00080083129B
:102AF200031351088039FF007F08DE005108D60019
:102B02005607FF007F08E000D01F882D892D8A2DEF
:102B12006014600803198E2D8F2D9F2D600A031DEE
:102B2200932D942D9C2D0030D1000030D000003028
:102B3200CF000030CE00D017D101A72D0030D10038
:102B42000030D0000030CF000030CE005508803970
:102B5200FF007F08DF005F085E060319B12DB22D6A
:102B6200B32D5E175508D6005607FF007F08DF0019
:102B7200D41FBC2DBD2DBE2D5F145F080319C22DBD
:102B8200C32DD32D5F0A031DC72DC82DD02D0030B4
:102B9200D5000030D4000030D3000030D200D4176A
:102BA200D501DB2D0030D5000030D4000030D30039
:102BB2000030D20060085F020318E02DE12D252EBF
:102BC2005E1FE42DE52DE92D8030FF007F08DE0633
:102BD2006008FF007F08E1005F08FF007F08E00057
:102BE2006108FF007F08DF004E08FF007F08E10058
:102BF2005208FF007F08CE006108FF007F08D20064
:102C02004F08FF007F08E1005308FF007F08CF0054
:102C12006108FF007F08D3005008FF007F08E10031
:102C22005408FF007F08D0006108FF007F08D4002D
:102C32005108FF007F08E1005508FF007F08D1001E
:102C42006108FF007F08D500E1015F08D600D701C7
:102C52005708D90060085602D800031CD903590846
:102C6200803AFF0080307F02031D392E1A3058024D
:102C7200031C3C2E3D2E7A2E83120313510850045E
:102C82004F044E04031D462E482E0130492E0030BB
:102C9200FF007F08E1000030D1000030D00000309A
:102CA200CF000030CE005F08FF007F08E000822ED8
:102CB200611C5C2E5D2E662E6108D6000310560C38
:102CC2000138FF007F08E100682E0310E10C4E1C62
:102CD2006B2E6C2E6D2EE1170130D600510DD10CEA
:102CE200D00CCF0CCE0CD60B6F2E0130FF007F081C
:102CF200E007831203135F086002031C812E822EF9
:102D0200592E5E1B852E862ED12E6008031D8A2E1B
:102D12008B2E942E0030D1000030D0000030CF0036
:102D22000030CE00FF2F5208CE07530803110318BC
:102D3200013E03199D2ECF07540803110318013ECB
:102D42000319A42ED007550803110318013E0319D5
:102D5200AB2ED107511CAE2EAF2E852F611CB22E89
:102D6200B32EBC2E6108D6000310560C0138FF00AA
:102D72007F08E100BE2E0310E10C4E1CC12EC22EB4
:102D8200C32EE1170130D600510DD10CD00CCF0C5F
:102D9200CE0CD60BC52E0130FF007F08E007852F31
:102DA2005108803AFF005508803A7F02031DE32E46
:102DB20054085002031DE32E53084F02031DE32E55
:102DC20052084E020318E62EE72E3F2FFF30D600A0
:102DD200FF30D700FF30D800FF30D9005208DA00A8
:102DE2005308DB005408DC005508DD004E08DA0207
:102DF2004F08031C4F0FFE2EFF2EDB025008031C50
:102E0200500F042F052FDC025108031C510F0A2F0B
:102E12000B2FDD025A08D6075B0803185B0F122F2F
:102E2200132FD7075C0803185C0F182F192FD80728
:102E32005D0803185D0AD9075908D1005808D00067
:102E42005708CF005608CE008030FF007F08DE060C
:102E5200E109E10A6108031D2F2F302F4D2F0130A8
:102E6200CE07003003180130CF07003003180130BD
:102E7200D007003003180130D1074D2F5208CE027F
:102E82005308031C530FCF025408031C540FD002E3
:102E92005508031C550FD102510850044F044E042B
:102EA200031D542F552F812F6108031D592F5A2FAF
:102EB200812F0030D1000030D0000030CF00003030
:102EC200CE00FF2F0130D6000310CE0DCF0DD00D56
:102ED200D10DD60B652FE11F6F2F702F712F4E145E
:102EE200611C742F752F782F0314E10D7A2F0310B4
:102EF200E10D600803197E2F7F2F812F0130E00240
:102F0200D01F842F852F632FDF01E11F892F8A2F86
:102F1200982F61087F3903198F2F902F932FDF018C
:102F2200DF0A982F4E1C962F972F982F902F5F080D
:102F320003199C2F9D2FD12F0130CE07003003188B
:102F42000130CF07003003180130D00700300318DA
:102F52000130D107511CAE2FAF2FD12F4E08D60012
:102F62004F08D7005008D8005108D9000130DA00C4
:102F7200590DD90CD80CD70CD60CDA0BB92F59082D
:102F8200D1005808D0005708CF005608CE00600A7A
:102F92000319CC2FCD2FD12F0130FF007F08E0077E
:102FA200600A0319D52FD62FDB2F6008031DDA2FF5
:102FB200DB2FE92F0030D1000030D0000030CF00ED
:102FC2000030CE006008031DE72FE82FE92FDE0155
:102FD200601CEC2FED2FEF2FD017F32F7F30FF0067
:102FE2007F08D0056008D6000310560CFF007F084A
:102FF200D100DE1FFD2FFE2FFF2FD1170800FF1B70
:103002000A2883137F1883170008840A0319FF0A0A
:10301200080018308A000408840A82070034003449
:10302200003480343F3400340034203441340034DE
:103032000034C8344234003400347A344434003426
:1030420040341C34463400345034C33447340034E2
:103052002434743449348034963418344B34203454
:10306200BC34BE344C3428346B346E344E34F934B0
:10307200023415345034EC347834AD346034CA340C
:10308200F234493471340034003480343F34CD3466
:10309200CC34CC343D340A34D73423343C346F340A
:1030A200123483343A341734B734D1343834AC342C
:1030B200C53427343734BD34373486343534953407
:1030C200BF34D63433347734CC342B3432345F3497
:1030D200703489343034FF34E634DB342E3408342F
:1030E200E5343C341E3460344234A2340D340134AD
:1030F2000034003400340A340034003400346434C0
:10310200003400340034E834033400340034103422
:10311200273400340034A03486340134003440347F
:1031220042340F34003480349634983400340034FE
:10313200E134F53405340034CA349A343B3428344B
:103142006E3475346C346C342934003425342E34A6
:10315200313436347334003425342E342A34663410
:02316200003437
:10345A004230F000F00B2F2A0000080073087204B3
:10346A007104700403193A2A3B2A3D2A8030F30674
:10347A000800F101F10A00300A168A15B2220A166A
:10348A008A150D30F400FB30F300F30B4A2AF40BD3
:10349A004A2A4F2A0800F100F0013A307102031853
:1034AA00572A582A602A30307102031C5D2A5E2A84
:1034BA00602AF001F00A700C0800F70077088316FA
:1034CA000313E3026F2AF30100300A168A156423F4
:1034DA000A168A150130F702770A031D752A762A19
:1034EA00682A0800FA007A08FF007F08FB00892A88
:1034FA007B08840000080A168A155B240A168A15B6
:10350A000130FF007F08FB077B0884008313000853
:10351A00031D902A912A7D2A7A087B020800F60068
:10352A007308031D992A9B2A01309C2A0030F40053
:10353A007608031DA12AA32A0130A42A0030F50027
:10354A00750774040438FF007F08F10000300A167A
:10355A008A15B2220A168A150800F2008316031386
:10356A00860172080319BA2ABB2AC02A83120313D6
:10357A0088170813C42A83120313081388137108BF
:10358A0086008816C82AC92A0000831203138812E3
:10359A000A168A152D220A168A150800FC00FB0154
:1035AA007C080A168A1562220A168A15E22A20302F
:1035BA000A168A155B240A168A150130FB07FF30A2
:1035CA007B07FA007C087A02031CEC2AED2ADC2A23
:1035DA007C080A168A1562220A168A1508008030A3
:1035EA0083120313E5066908D1006808D00067084A
:1035FA00CF006608CE006508D5006408D4006308C9
:10360A00D3006208D2000A168A1178250A168A158A
:10361A00831203135108E5005008E4004F08E30041
:10362A004E08E2000800F401F501701C1D2B1E2B48
:10363A00242B7208F4070318F50A7308F5070130FA
:10364A000310F20DF30DFF3E031D252B013003106D
:10365A00F10CF00CFF3E031D2C2B70087104031DA6
:10366A00372B382B1A2B7508F1007408F000080064
:10367A00F800F401F5017008F200F3017208F6008F
:10368A007308F700781C4A2B4B2B512B7608F4074A
:10369A000318F50A7708F50701300310F60DF70D40
:1036AA00FF3E031D522B0310F80C7808031D5E2BF6
:1036BA005F2B472B7508F1007408F0000800F6002C
:1036CA007308031D692B6B2B01306C2B0030F4003F
:1036DA0002300310F40DFF3E031D6E2B7608031D06
:1036EA00772B792B01307A2B0030F500023003104A
:1036FA00F50DFF3E031D7C2B0310750D7404103865
:10370A00FF007F08F10000300A168A15B2220A1655
:10371A008A150800F60083160313641C952B962B52
:10372A009B2B6730F4000030F5009F2B4F30F400DC
:10373A000030F5007508803AF30080307302031DEB
:10374A00A82B76087402031CAB2BAC2BBA2B831262
:10375A000313EF1076088038FF007F08F10000306D
:10376A000A168A15B2220A168A1508009E30FF0028
:10377A007F0883160313A0004808C900CA01490834
:10378A00A1004A08A2004708A6004608A500450865
:10379A00A4004408A300CB300A128A1183200A1617
:1037AA008A159830FF007F0883160313A000CB30D8
:1037BA00FF007F08A100CB300A128A1183200A1663
:1037CA008A15CB300A168A1577220A168A15080036
:1037DA00F8007408031DF22BF42B0130F52B00308E
:1037EA00F5007308031DFA2BFC2B0130FD2B00306A
:1037FA00F60001300310F60DFF3E031DFF2B78087B
:10380A00031D082C0A2C01300B2C0030F700013064
:10381A000310F70DFF3E031D0D2C0310770D7604E0
:10382A0075040838FF007F08F10000300A168A156F
:10383A00B2220A168A150800700871040319262C88
:10384A00272C562CF401F40A352C01300310F00D04
:10385A00F10DFF3E031D2B2C0130FF007F08F407FA
:10386A00F11F382C392C2A2C71087302031D3F2CA6
:10387A0070087202031C422C432C492C7008F20275
:10388A007108031CF303F30201300310F10CF00C6E
:10389A00FF3E031D4A2C0130F402031D552C562C01
:1038AA00392C7308F1007208F0000800F50083163D
:1038BA0003136418612C622C672C4F30F600003019
:1038CA00F7007A2C831203136F186C2C6D2C722C50
:1038DA002730F8000030F900762C6730F800003005
:1038EA00F9007908F7007808F600831603136308CD
:1038FA00F300F40177087406031D852C7608730615
:10390A00031D882C892C8B2CE3018F2C0130FF009E
:10391A007F08E3077508FF007F08F10001300A16E7
:10392A008A15B2220A168A150800F901FA017508E1
:10393A0076040319A12CA22CD92CFB01FB0AB02C6A
:10394A0001300310F50DF60DFF3E031DA62C0130C4
:10395A00FF007F08FB07F61FB32CB42CA52C0130FF
:10396A000310F90DFA0DFF3E031DB52C76087802F7
:10397A00031DC12C75087702031CC42CC52CCC2C42
:10398A007508F7027608031CF803F8027914013067
:10399A000310F60CF50CFF3E031DCD2C0130FB0283
:1039AA00031DD82CD92CB42C7A08F6007908F50016
:1039BA000800F8007408031DE32CE52C0130E62CFE
:1039CA000030F50002300310F50DFF3E031DE82C10
:1039DA007308031DF12CF32C0130F42C0030F6008F
:1039EA0003300310F60DFF3E031DF62C7808031D65
:1039FA00FF2C012D0130022D0030F7000330031097
:103A0A00F70DFF3E031D042D0310770D7604750490
:103A1A002038FF007F08F10000300A168A15B2220A
:103A2A000A168A157308031D1B2D1F2D83160313EF
:103A3A006414222D831603136410080000307005E5
:103A4A00F80000307105F90080307205FA007F3005
:103A5A007305FB007B087A0479047804031D362D6C
:103A6A00372D3F2D0030F3000030F2000030F10016
:103A7A000030F00000307405F80000307505F900D8
:103A8A0080307605FA007F307705FB007B087A04E0
:103A9A0079047804031D522D532D5B2D0030F70055
:103AAA000030F6000030F5000030F40077087306A5
:103ABA00031D692D76087206031D692D75087106A6
:103ACA00031D692D7408700603196C2D6D2D6F2D59
:103ADA000310702D03140800FA00831603138801DB
:103AEA007A08031D792D7B2D01307C2D0030FF00D3
:103AFA007F08FA007908031D832D852D0130862D54
:103B0A000030FF007F08F9007A08FF007F08F30001
:103B1A007908FF007F08F40001300A168A15DE24AE
:103B2A000A168A157A08FF007F08F3007908FF0051
:103B3A007F08F40001300A168A15DE240A168A154F
:103B4A00F301F40100300A168A15ED230A168A15C4
:103B5A000A168A153E220A168A15F30101300A1638
:103B6A008A1594220A168A15F301F30AF401F40A53
:103B7A0001300A168A15ED230A168A1508007308F9
:103B8A007204710470040319CB2DCC2D0F2EF90188
:103B9A00F90ADC2D0130F8000310F00DF10DF20DD9
:103BAA00F30DF80BD12D0130FF007F08F907F31F41
:103BBA00DF2DE02DCF2D73087702031DEE2D72083D
:103BCA007602031DEE2D71087502031DEE2D700895
:103BDA007402031CF12DF22D002E7008F4027108F4
:103BEA00031C710FF5027208031C720FF6027308A8
:103BFA00031C730FF70201300310F30CF20CF10CE3
:103C0A00F00CFF3E031D012E0130F902031D0E2E9A
:103C1A000F2EE02D7708F3007608F2007508F10000
:103C2A007408F000080083120313B30000306F1801
:103C3A000130B400831603136308031D252E272EB3
:103C4A000130282E0030FF007F0883120313B500CD
:103C5A00831603136418322E332E3A2E4F308312F2
:103C6A000313B7000030B800402E27308312031325
:103C7A00B7000030B8003708FF007F08B600F70128
:103C8A003308031D492E4B2E01304C2E00300A12E8
:103C9A008A155A200A168A15582E20300A168A15AD
:103CAA005B240A168A15013083120313B602360AF8
:103CBA00031D602E612E522E340801396F10031D28
:103CCA006F143508FF007F0883160313E3006308A7
:103CDA00FF007F08F7000030831203136F180130CA
:103CEA000A128A155A200A168A150800FB01F71FBC
:103CFA007F2E802E872EF609F709F60A0319F70A8E
:103D0A00FB01FB0AF91F8A2E8B2E942EF809F9095A
:103D1A00F80A0319F90A0130FF007F08FB06FC01C3
:103D2A00FD017608770403199B2E9C2ED32EFA01E7
:103D3A00FA0AAA2E01300310F60DF70DFF3E031DF5
:103D4A00A02E0130FF007F08FA07F71FAD2EAE2E16
:103D5A009F2E01300310FC0DFD0DFF3E031DAF2EFB
:103D6A0077087902031DBB2E76087802031CBE2E43
:103D7A00BF2EC62E7608F8027708031CF903F9024B
:103D8A007C1401300310F70CF60CFF3E031DC72EFE
:103D9A000130FA02031DD22ED32EAE2E7B08031950
:103DAA00D72ED82EDD2EFC09FD09FC0A0319FD0ABF
:103DBA007D08F7007C08F60008000310831203133D
:103DCA004F0D500DFF007F08D6005608031DEE2E3A
:103DDA00EF2EF82E0030D0000030CF000030CE0099
:103DEA000030CD005D2F4D08D1004E08D2004F089B
:103DFA00D3005008D4001F300310D40CD30CD20CBB
:103E0A00D10CFF3E031D012F5108FF007F08D5008A
:103E1A00CF17FF30CD05FF30CE05FF30CF0500307C
:103E2A00D0059630D602D61F1B2F1C2F362F5608C8
:103E3A00803A973E0318222F232F242FEF2E01308A
:103E4A000310D00CCF0CCE0CCD0CFF3E031D252F3A
:103E5A000130FF007F08D607031D342F352F242F8A
:103E6A004D2F20305602031C3B2F3C2F482FEF2E9C
:103E7A000130D1000310CD0DCE0DCF0DD00DD10BD9
:103E8A003F2F0130D6025608031D4C2F4D2F3D2FD0
:103E9A0055080319512F522F5D2FCD09CE09CF098D
:103EAA00D009CD0A0319CE0A0319CF0A0319D00A79
:103EBA00080000307005F80000307105F900803004
:103ECA007205FA007F307305FB007B087A047904D7
:103EDA007804031D712F722F7A2F0030F3000030FF
:103EEA00F2000030F1000030F00000307405F800F4
:103EFA0000307505F90080307605FA007F307705C5
:103F0A00FB007B087A0479047804031D8D2F8E2F19
:103F1A00962F0030F7000030F6000030F500003030
:103F2A00F400F31F992F9A2FBE2F0030F8000030AB
:103F3A00F9000030FA008030FB007008F8027108BE
:103F4A00031C710FA92FAA2FF9027208031C720F02
:103F5A00AF2FB02FFA027308031C730FB52FB62FB9
:103F6A00FB027B08F3007A08F2007908F10078086E
:103F7A00F000F71FC12FC22FE62F0030F8000030E3
:103F8A00F9000030FA008030FB007408F802750866
:103F9A00031C750FD12FD22FF9027608031C760F56
:103FAA00D72FD82FFA027708031C770FDD2FDE2FC1
:103FBA00FB027B08F7007A08F6007908F500780812
:103FCA00F4008030F3068030F70677087302031D89
:103FDA00F82F76087202031DF82F75087102031D67
:103FEA00F82F740870020318FB2FFC2FFE2F031002
:063FFA00FF2F0314080074
:02400E00FA3F77
:00000001FF
