:060000000A128A11F02F24
:10000C0064008001840A04060319003404060728DE
:10001C00F800831203135508F13EFF007F08F90026
:10002C001E28F30101300A128A1514270A128A11AC
:10003C00FF30FF007F08F807780A031926282728C5
:10004C003628013083120313D707FF305707803A45
:10005C00F7007908803AF702031C35283628172850
:10006C007908803AF700831203135708803AF70295
:10007C0003184128422846287908FF007F08D7003A
:10008C000800F8007408031D4C284E2801304F2836
:10009C000030F50002300310F50DFF3E031D512812
:1000AC007308031D5A285C2801305D280030F600C7
:1000BC0003300310F60DFF3E031D5F287808031D67
:1000CC0068286A2801306B280030F70003300310D1
:1000DC00F70DFF3E031D6D280310770D7604750494
:1000EC002038FF007F08F10000300A128A15C9265B
:1000FC000A128A117308031D84288828831203139B
:10010C00D9158B2883120313D911080083120313FA
:10011C00B400003059180130B7005808FF007F08B0
:10012C00B8005508013EFF007F08B9003408031DD4
:10013C00A028A128A428B501B601A8284030B500F4
:10014C000030B60035080A128A153F270A128A11A8
:10015C00B9282030FF007F08F10001300A128A15FF
:10016C00C9260A128A11FF30FF007F08831203137D
:10017C00B907390A031DC328C428AF283808FF0063
:10018C007F08FA003708031DCC28CE280130CF2871
:10019C0000300A128A118E260A128A11080073087E
:1001AC007204710470040319DC28DD282029F9017C
:1001BC00F90AED280130F8000310F00DF10DF20DE5
:1001CC00F30DF80BE2280130FF007F08F907F31F4D
:1001DC00F028F128E02873087702031DFF28720825
:1001EC007602031DFF2871087502031DFF28700895
:1001FC007402031C0229032911297008F4027108E6
:10020C00031C710FF5027208031C720FF6027308BF
:10021C00031C730FF70201300310F30CF20CF10CFA
:10022C00F00CFF3E031D12290130F902031D1F299A
:10023C002029F1287708F3007608F2007508F10000
:10024C007408F0000800FA005729F30100300A1274
:10025C008A1514270A128A11831203135808570699
:10026C00031D39293A294E2901300A128A1599277A
:10027C000A128A114E29F30100300A128A1514272A
:10028C000A128A1101300A128A1599270A128A1148
:10029C00FF30FF007F08FA077A0A031D56295729F9
:1002AC004129FF30FA0701307A07803A7F3E031C60
:1002BC00602961297029831203135608803AF900CA
:1002CC00FF30D80701305807803AF902031C6F2918
:1002DC0070292B29831203135808803AF900560809
:1002EC00803AF90203187B297C2980295608FF00E3
:1002FC007F08D80008000030FC000030FB00003004
:10030C00FA000030F90073087204710470040319C8
:10031C0090299129DE29FD01FD0AA1290130F8005F
:10032C000310F00DF10DF20DF30DF80B96290130C1
:10033C00FF007F08FD07F31FA429A529942901308C
:10034C00F8000310F90DFA0DFB0DFC0DF80BA729A5
:10035C0073087702031DBC2972087602031DBC29A1
:10036C0071087502031DBC2970087402031CBF2997
:10037C00C029CF297008F4027108031C710FF50213
:10038C007208031C720FF6027308031C730FF7023A
:10039C00791401300310F30CF20CF10CF00CFF3E4D
:1003AC00031DD0290130FD02031DDD29DE29A529FD
:1003BC007C08F3007B08F2007A08F1007908F00061
:1003CC000800FC008316031388017C08031DEF2929
:1003DC00F1290130F2290030FF007F08FC00790878
:1003EC00031DF929FB290130FC290030FF007F088F
:1003FC00F9007C08FF007F08F3007908FF007F08F4
:10040C00F40001300A128A1147200A128A117C0862
:10041C00FF007F08F3007908FF007F08F40001302B
:10042C000A128A1147200A128A11F301F4010030D2
:10043C000A128A15CC270A128A110A128A15AF26BB
:10044C000A128A11F30101300A128A15EA260A12DD
:10045C008A11F301F30AF401F40A01300A128A1525
:10046C00CC270A128A1183120313D601D9193F2AF9
:10047C00402A452A4F30FA000030FB00492A273029
:10048C00FA000030FB007A08FF007F08D500080056
:10049C0083120313A000942AF301F30A00300A120A
:1004AC008A1514270A128A11831203135808FA00AA
:1004BC00FB01FA1BFB030F305707FC00FD0103186F
:1004CC00FD0AD71F6A2AFD037B087D06031D702ACF
:1004DC007A087C06031D732A742A892A01300A12B1
:1004EC008A110E200A128A11892AF301F30A0030AC
:1004FC000A128A1514270A128A1101300A128A115B
:10050C000E200A128A11FF30FF007F08831203139A
:10051C00A007200A031D932A942A7B2AFF30A007E8
:10052C0001302007803A7F3E031C9D2A9E2AAB2A6D
:10053C000130D807FF305807803AFA005508803A46
:10054C00FA02031CAA2AAB2A522A5508803AFA004E
:10055C005808803AFA020318B42AB52AB92A550861
:10056C00FF007F08D800080083120313A900591953
:10057C00C02AC12ACB2A01305507AA00AB010318A7
:10058C00AB0AD51FCA2AAB03D82A5608A700A80164
:10059C00A71BA8032708FF3EAA0028080318013E42
:1005AC00FF3EAB00831203132A08FF007F08AC0048
:1005BC00591DE12AE22AE92A01300A128A1129215D
:1005CC000A128A11EF2A01300A128A114E220A12DB
:1005DC008A11F301031083120313591D0314003005
:1005EC00031801300A128A15EA260A128A11042B02
:1005FC0020300A128A11B7230A128A11FF30FF0029
:10060C007F0883120313A907290A03190E2B0F2B3A
:10061C00152B58082C06031D142B152BFE2AF30141
:10062C000310591D03140030031801300A128A15E7
:10063C00EA260A128A1183120313591D262B272B23
:10064C002E2B01300A128A114E220A128A11342BD7
:10065C0001300A128A1129210A128A11080030303D
:10066C0084000C30FF0083138001840AFF0B392BAC
:10067C003B30FF007F0883120313BC00AE1F472BD7
:10068C00482B5D2B2D300A128A11B7230A128A11BE
:10069C00013083120313BC02AB09AC09AD09AE09DE
:1006AC00AB0A0319AC0A0319AD0A0319AE0A0030E0
:1006BC00F3000030F2000030F1000A30F0002E0898
:1006CC00F7002D08F6002C08F5002B08F4000A1290
:1006DC008A11D5200A128A117008303EFF000130B1
:1006EC0083120313BC023C0884007F088313800030
:1006FC003030AF003C082F020318852B862BAD2B16
:10070C000030F3000030F2000030F1000A30F0004D
:10071C002E08F7002D08F6002C08F5002B08F40025
:10072C000A128A1181210A128A1173088312031387
:10073C00AE007208AD007108AC007008AB002E085A
:10074C002D042C042B04031DAC2BAD2B5D2B3C0872
:10075C00A7000030A8000A128A156B270A128A110A
:10076C00080083120313A0005919BD2BBE2BCC2BF0
:10077C005608FA00FB01FA1BFB037A08FF3EA100A6
:10078C007B080318013EFF3EA200D52B0130550714
:10079C00A100A2010318A20AD51FD52BA203831214
:1007AC0003135808FA00FB01FA1BFB0322087B0613
:1007BC00031DE22B21087A06031DE52BE62BE82B03
:1007CC000814512C2008FF007F08F10001300A1298
:1007DC008A15C9260A128A1183120313591DF72B85
:1007EC00F82B172C5808FA00FB01FA1BFB030F30EF
:1007FC005707FC00FD010318FD0AD71F062CFD034B
:10080C007B087D06031D0C2C7A087C06031D0F2C1F
:10081C00102C172C01300A128A110E200A128A1180
:10082C00292C8312031359191C2C1D2C292C580804
:10083C005706031D222C232C292C01300A128A1551
:10084C0099270A128A118312031359192E2C2F2C53
:10085C00342CFF30A300FF30A400382C0130A3004F
:10086C000030A4002308FF007F08D807D91C3F2CB8
:10087C00402C512C5919432C442C492CFF30A500E9
:10088C00FF30A6004D2C0130A5000030A600250835
:10089C00FF007F08D707080083160313890188011E
:1008AC00870186018501FF308700831203138901BC
:1008BC008801870186018501F90101300A128A112C
:1008CC00E7210A128A116130FF007F08831203139B
:1008DC00C800FA0100300A128A118E260A128A11F7
:1008EC00013083120313A7008030A8000A128A1566
:1008FC006B270A128A118312031307080319872C1A
:10090C00882C812C071C8B2C8C2CB52C613048022C
:10091C00031C912C922C982C7B304802031C972C96
:10092C00982C9D2C6130C4000030C500A42C4808C4
:10093C00C100C2014108C4004208C5004408FF00C0
:10094C007F08C80048080A128A11B7230A128A11B4
:10095C000130FF007F0883120313C807102D871C7A
:10096C00B82CB92CC22C0130C80201300A128A11E1
:10097C00BA220A128A11102D071DC52CC62CD02C98
:10098C006130FF007F08C8000A128A1599260A12E6
:10099C008A11102D871DD32CD42CDB2C01300A127C
:1009AC008A1129210A128A11102D071EDE2CDF2C28
:1009BC00E62C01300A128A114E220A128A11102DCD
:1009CC00871EE92CEA2CF12C01300A128A110E2018
:1009DC000A128A11102D071FF42CF52CFC2C013057
:1009EC000A128A1599270A128A11102D871FFF2CBB
:1009FC00002D102DFB011430FF007F08FC0004308B
:100A0C00FF007F08FD0003300A128A116B250A12C1
:100A1C008A11102D831203130708031D162D172D91
:100A2C00102D5808C600C701C61BC7035708FF0086
:100A3C007F08FA000310591C03140030031801300E
:100A4C000A128A118E260A128A1101300A128A1190
:100A5C008C200A128A11831203134608AB00470834
:100A6C00AC000030AC1BFF30AD00AE000A128A1196
:100A7C0035230A128A1101300A128A114E220A12E7
:100A8C008A11831203135708AB008039031DFF3002
:100A9C00AC00AD00AE000A128A1135230A128A117D
:100AAC00831203134608FF007F08FA000310591C39
:100ABC0003140030031801300A128A118E260A1210
:100ACC008A11812C0A128A11002883120313B70091
:100ADC007C08803AB4007B08803AB4020318772D66
:100AEC00782D792D8D2E7B08803AB4005608803AEB
:100AFC00B402031C822D832D892D7B08B800B9010B
:100B0C00B81BB9038E2D5608B800B901B81BB90330
:100B1C003808FF007F08FB007C08803AB4005508B9
:100B2C00803AB402031C9B2D9C2DA22D5508BA00B3
:100B3C00BB01BA1BBB03A72D7C08BA00BB01BA1BB7
:100B4C00BB033A08FF007F08FC007B087C02B40062
:100B5C00B501031CB503FC1FB42DB503FB1FB92D48
:100B6C0083120313B50A831203133508803AFF006E
:100B7C0080307F02031DC42D103034020318C72DA2
:100B8C00C82DCF2D0F3083120313BC000030BD00D5
:100B9C00DF2D7B087C0283120313BC00BD01031CF8
:100BAC00BD03FC1FDA2DBD03FB1FDF2D83120313C6
:100BBC00BD0A831203133C08F13EFF007F08BE0000
:100BCC007B08FF007F08FA000030591801300A1228
:100BDC008A118E260A128A11752E0D308312031378
:100BEC00B600AF30B500B530B400B40BFB2DB50B6F
:100BFC00FB2DB60BFB2D022E831203133E08FF00B8
:100C0C007F08BF002D2E01300A128A110E200A1205
:100C1C008A117D08FF007F0883120313C000242E65
:100C2C00023083120313B6004530B500A930B4006E
:100C3C00B40B1E2EB50B1E2EB60B1E2E01308312BE
:100C4C000313C002400A031D2C2E2D2E162E01302C
:100C5C00BF023F0A031D332E342E092E0D30831292
:100C6C000313B600AF30B500B530B400B40B3C2E56
:100C7C00B50B3C2EB60B3C2E432E831203133E08B1
:100C8C00FF007F08BF006E2E01300A128A159927CB
:100C9C000A128A117D08FF007F0883120313C0001B
:100CAC00652E023083120313B6004530B500A9300F
:100CBC00B400B40B5F2EB50B5F2EB60B5F2E01305C
:100CCC0083120313C002400A031D6D2E6E2E572E85
:100CDC000130BF023F0A031D742E752E4A2E0130BF
:100CEC0083120313B702370A031D7D2E7E2EF32DBC
:100CFC000D3083120313B600AF30B500B530B4001D
:100D0C00B40B862EB50B862EB60B862E8D2E0800B8
:100D1C0083120313B300D919942E952E982EA70184
:100D2C00A801A52E3308031D9C2E9E2E01309F2E4C
:100D3C000030A000A1012008A7002108A80059102C
:100D4C00271CA92E59147A0883120313A000A101A1
:100D5C00A01BA1035608A200A301A21BA30303100E
:100D6C00591D03140030031801302202A40023087B
:100D7C00031C2303A5002508803AA6002108803A0D
:100D8C002602031DCB2E20082402031CCE2ECF2EB0
:100D9C00E32E831203135608A000A101A01BA1038C
:100DAC000310591D03140030031801302002AB004E
:100DBC002108031C2103AC00EA2E7A0883120313CA
:100DCC00AB00AC01AB1BAC0303105919031400307E
:100DDC00031801305507A000A1010318A10AD51F63
:100DEC00F82EA103831203132C08803AA2002108C9
:100DFC00803A2202031D042F20082B02031C072F0C
:100E0C00082F192F031083120313591903140030E0
:100E1C00031801305507A900AA010318AA0AD51F07
:100E2C00182FAA035E2F7A0883120313A000A101C6
:100E3C00A01BA1035608A200A301A21BA30303102D
:100E4C00591D03140030031801302202A40023089A
:100E5C00031C2303A5002508803AA6002108803A2C
:100E6C002602031D3B2F20082402031C3E2F3F2F7C
:100E7C00532F831203135608A000A101A01BA1033A
:100E8C000310591D03140030031801302002AD006B
:100E9C002108031C2103AE005A2F7A088312031376
:100EAC00AD00AE01AD1BAE032E08AA002D08A900A3
:100EBC00831203132908FF007F08D8005808803AD2
:100ECC00A0005708803AA00203186D2F6E2F762FC2
:100EDC00580857020A128A1599270A128A119D2F4F
:100EEC005808A000A101A01BA1030F305707A200B6
:100EFC00A3010318A30AD71F842FA3038312031380
:100F0C002308803AA4002108803A2402031D902F64
:100F1C00200822020318932F942F9D2F8312031362
:100F2C00570858020A128A110E200A128A1103104D
:100F3C008312031359190314003003180130550799
:100F4C00A000A1010318A10AD51FAD2FA1037A0897
:100F5C0083120313A200A301A21BA3032308803A4C
:100F6C00A4002108803A2402031DBE2F200822026F
:100F7C00031CC12FC22FD32F031083120313591933
:100F8C0003140030031801305507AF00B0010318EB
:100F9C00B00AD51FD22FB003DA2F7A0883120313AD
:100FAC00AF00B001AF1BB003831203133308031D52
:100FBC00E02FE12FE42FB101B201E82F4030B10056
:100FCC000030B2002F0831070A128A153F270A1287
:100FDC008A11080083120313D9018313493084004A
:100FEC0059300A128A1106200A128A1183010A1238
:100FFC008A11522CFF1B0A2883137F1883170008B1
:10100C00840A0319FF0A080008308A000408840ABD
:10101C0082070034543468346934733420346934AE
:10102C00733420346E346F347434203463346F343E
:10103C006F346C342134213421340A340034253497
:10104C002E34313436347334003425342E342A346F
:04105C0066340034C2
:101D26004230F000F00B952E0000080000308312C0
:101D36000313591801300A128A118C200A128A15C7
:101D4600FA01003083120313591801300A128A115E
:101D56008E260A128A150800F101F10A00300A12CD
:101D66008A15C9260A128A150D30F400FB30F300D5
:101D7600F30BBB2EF40BBB2EC02E83120313D7011D
:101D8600D8015910581CC82E59140800F2008316A1
:101D96000313860172080319D12ED22ED72E831271
:101DA600031388170813DB2E8312031308138813F3
:101DB600710886008816DF2EE02E000083120313BA
:101DC60088120A128A1593260A128A150800F60046
:101DD60076080139831203135911031D5915730827
:101DE6000139D910031DD9147308031DFB2EFD2ECE
:101DF6000130FE2E0030F4007608031D032F052F58
:101E06000130062F0030F500750774040438FF0012
:101E16007F08F10000300A128A15C9260A128A15AF
:101E26000800F6007308031D192F1B2F01301C2F05
:101E36000030F40002300310F40DFF3E031D1E2F88
:101E46007608031D272F292F01302A2F0030F50091
:101E560002300310F50DFF3E031D2C2F0310750DE8
:101E660074041038FF007F08F10000300A128A154A
:101E7600C9260A128A150800F60083120313D91D13
:101E8600452F462F4B2F6730F4000030F5004F2FBB
:101E96004F30F4000030F5007508803AF3008030CA
:101EA6007302031D582F76087402031C5B2F5C2FE8
:101EB6006A2F83120313591276088038FF007F08B1
:101EC600F10000300A128A15C9260A128A1508007E
:101ED600831203132708A9002808AA00882F2A08B6
:101EE600FF00290884000A128A1500200A128A15A2
:101EF6000A128A11B7230A128A15013083120313B4
:101F0600A9070318AA0A0030AA072A08FF00290809
:101F160084000A128A1500200A128A15003A031D47
:101F2600952F962F722F270829020800F800A32F55
:101F3600F301F30A01300A128A1514270A128A15C8
:101F4600FF30FF007F08F807780A0319AB2FAC2F84
:101F5600BB2F831203135608803AF700FF30D707CA
:101F660001305707803AF702031CBA2FBB2F9B2F6D
:101F7600831203135708803AF7005608803AF7028F
:101F86000318C62FC72FCB2F5608FF007F08D70090
:101F96000800F8007408031DD12FD32F0130D42F69
:101FA6000030F5007308031DD92FDB2F0130DC2F1D
:101FB6000030F60001300310F60DFF3E031DDE2F44
:101FC6007808031DE72FE92F0130EA2F0030F700CC
:101FD60001300310F70DFF3E031DEC2F0310770DA4
:101FE600760475040838FF007F08F10000300A12F5
:0A1FF6008A15C9260A128A15080090
:02400E00FA3F77
:00000001FF
