:060000000A128A11F82F1C
:100B16004230F000F00B8D2D00000800F50075083E
:100B2600F400740773040438FF007F08F1000030F6
:100B36000A128A11D3250A128A110800F101F10A54
:100B460000300A128A11D3250A128A110D30F400D8
:100B5600FB30F300F30BAD2DF40BAD2DB22D0800D9
:100B6600F7007308F50001300310F50DFF3E031D75
:100B7600B72D7708F60001300310F60DFF3E031D72
:100B8600BF2D0310760D750474040838FF007F0826
:100B9600F10000300A128A11D3250A128A110800C0
:100BA600F20083160313860172080319DB2DDC2D70
:100BB600E12D8312031388170813E52D83120313FF
:100BC60008138813710886008816E92DEA2D00009F
:100BD6008312031388120A128A118B250A128A11AC
:100BE6000800F100FF30831603138600710803190D
:100BF600FD2DFE2D0C2E831203130817081B042E41
:100C0600082E8312031388170B2E831203138813DF
:100C1600102E83120313881308178816122E132E0C
:100C260000008312031388120A128A118B250A12F6
:100C36008A118312031306080800F60083120313B1
:100C460033080319272E282E2D2E6730F400003086
:100C5600F500312E4F30F4000030F5007508803A6B
:100C6600F30080307302031D3A2E76087402031CCB
:100C76003D2E3E2E4C2E83120313B4017608803887
:100C8600FF007F08F10000300A128A11D3250A12EC
:100C96008A110800F8007408F50002300310F50DFB
:100CA600FF3E031D512E7308F60003300310F60DA8
:100CB600FF3E031D592E7808F70003300310F70D89
:100CC600FF3E031D612E0310770D76047504203850
:100CD600FF007F08F10000300A128A11D3250A129C
:100CE6008A117308FF007F0883120313B3000800FC
:100CF600FD00831203133308031D822E832E882ED4
:100D06004F30FA000030FB008C2E2730FA000030FE
:100D1600FB007A08FF007F08FC00F7017D080A1235
:100D26008A11F0260A128A11A22E2030FF007F08AF
:100D3600F10001300A128A11D3250A128A110130F4
:100D4600FC027C0A031DA82EA92E982EF7017D0809
:100D56000A128A11F0260A128A110800FA0083166E
:100D6600031388017A08FF007F08F3007908FF0063
:100D76007F08F40001300A128A114D260A128A11E0
:100D86007A08FF007F08F3007908FF007F08F40067
:100D960001300A128A114D260A128A11F301F40152
:100DA60000300A128A11B3250A128A110A128A1110
:100DB600A1250A128A11F30101300A128A1191251E
:100DC6000A128A11F301F30AF401F40A01300A1235
:100DD6008A11B3250A128A11080083120313A00090
:100DE6003303031DF72EF82E1E2F27307702031C20
:100DF600FD2EFE2E032F2730A1000030A2000A2F61
:100E06007708F800F9017808A1007908A2002008FF
:100E1600031D0E2F0F2F122FA301A401162F4030F2
:100E2600A3000030A400210823070A128A112026F5
:100E36000A128A11362F4F307702031C232F242FD4
:100E4600292F4F30A5000030A600302F7708F80074
:100E5600F9017808A5007908A60025080A128A1162
:100E660020260A128A1108008316031389018801B5
:100E76008701860185018312031389018801870191
:100E860086018501F90101300A128A11B1260A127A
:100E96008A116130FF007F0883120313B200F70145
:100EA60000300A128A11F0260A128A117A30831249
:100EB600031332060319602F612F6F2F613032063C
:100EC6000319662F672F6F2F3208013EAE000030E0
:100ED60003180130AF00732F6130AE000030AF0051
:100EE6002E08FF007F08B200B1010D30AA000030C5
:100EF600AB008D2F3208FF007F08F10001300A1287
:100F06008A11D3250A128A110130FF007F08831245
:100F16000313B207FF30AA070318AB0AFF30AB076B
:100F26002A0A031D9A2F2B0A031D9A2F9B2F7D2F0A
:100F36000D30AC000030AD00DE2F3108FF007F0819
:100F4600F70000300A128A11F0260A128A110130BF
:100F56000A128A11F4250A128A11FF007F088312E9
:100F66000313B2003108FF007F08F70001300A12B0
:100F76008A11F0260A128A110130FF007F088312B7
:100F86000313B1073208FF007F08F10001300A128F
:100F96008A11D3250A128A110D3083120313A90070
:100FA600AF30A800B530A700A70BD72FA80BD72FB7
:100FB600A90BD72FDE2FFF3083120313AC070318BC
:100FC600AD0AFF30AD072C0A031DED2F2D0A031DB8
:100FD600ED2FEE2FA02F01300A128A117B260A125E
:100FE6008A11592F0A128A11002883120313B3019A
:0A0FF600B40183010A128A11372F9B
:02400E00FA3F77
:00000001FF
