:060000000A128A11EC2F28
:10000E00F8007408031D0C280E2801300F2800304C
:10001E00F5007308031D1428162801301728003028
:10002E00F60001300310F60DFF3E031D1928780867
:10003E00031D22282428013025280030F700013026
:10004E000310F70DFF3E031D27280310770D7604CE
:10005E0075040838FF007F08F10000300A128A1577
:10006E0062220A128A11080083120313B200EC18DE
:10007E00412842284528A001A10152283208031D1B
:10008E0049284B2801304C280030F800F901780837
:10009E00A0007908A1006C10201C56286C14831245
:1000AE000313EC185B285C2861284F30A200003047
:1000BE00A30072286C18642865286A282730A400CB
:1000CE000030A5006E286730A4000030A50025087A
:1000DE00A3002408A2006B08F800F9012308790692
:1000EE00031D7B2822087806031D7E287F28812881
:1000FE00EB01BA28EC18842885288A284F30A800EE
:10010E000030A9008E282730A8000030A900290849
:10011E00803A803C031D952828087702031C9828F6
:10012E009928AD2883120313EC189E289F28A42823
:10013E004F30AA000030AB00A8282730AA000030AC
:10014E00AB002B08A7002A08A600B6287708F800EF
:10015E00F901780883120313A6007908A700260870
:10016E00FF007F08EB00EC1CBD28BE28E4282730DA
:10017E007702031CC328C428C9282730AC000030DE
:10018E00AD00D0287708F800F9017808AC0079089E
:10019E00AD003208031DD428D528D828AE01AF01F2
:1001AE00DC284030AE000030AF002C082E070A12BB
:1001BE008A15CE220A128A11FC284F307702031CB0
:1001CE00E928EA28EF284F30B0000030B100F628B9
:1001DE007708F800F9017808B0007908B100300806
:1001EE000A128A15CE220A128A11080083120313EC
:1001FE005808B8005708B7005608B6005508B5009D
:10020E000A128A159D250A128A11831203133808C1
:10021E00C2003708C1003608C0003508BF000A12F8
:10022E008A1519260A128A11FF007F0883120313FA
:10023E00DA000030F3000030F2000030F100003040
:10024E00F0005808F7005708F6005608F500550854
:10025E00F4000A128A15A2260A128A1103183829E6
:10026E0039295229831203135808F3005708F20054
:10027E005608F1005508F0000A128A1510220A12CB
:10028E008A11730883120313D8007208D7007108FD
:10029E00D6007008D500831203135808B80057080B
:1002AE00B7005608B6005508B5000A128A159D25E6
:1002BE000A128A11831203133508BF003608C000D4
:1002CE000030C01BFF30C100C20001300A128A1577
:1002DE0044270A128A11831203134208D0004108E0
:1002EE00CF004008CE003F08CD005808D400570874
:1002FE00D3005608D2005508D1000A128A1583225F
:10030E000A128A11831203135008D8004F08D7001F
:10031E004E08D6004D08D50059080319972998297B
:10032E00E3292E300A128A15FA220A128A11E329BB
:10033E000A30BF000030C0005808A7005708A600BA
:10034E005608A5005508A4004130A3002030A20095
:10035E000030A1000030A0000A128A118B240A126C
:10036E008A11831203132308D8002208D70021080C
:10037E00D6002008D5005808B8005708B700560810
:10038E00B6005508B5000A128A159D250A128A1163
:10039E00831203133608C2003508C1000A128A15EB
:1003AE0076240A128A11831203133F08303E0A1272
:1003BE008A15FA220A128A11013083120313D90206
:1003CE00590A0319EB29EC29F6290130FF007F08A1
:1003DE00DA0711305A02031CF529F6299F29080065
:1003EE0073088039FF007F08F80073088312031327
:1003FE00A0002007FF007F08FA00F21F072A082A34
:10040E00092A7A147A0803190D2A0E2A1E2A7A0A44
:10041E00031D122A132A1B2A0030F3000030F200AB
:10042E000030F1000030F000F217F301262A003000
:10043E00F3000030F2000030F1000030F0007708D9
:10044E008039FF007F08F900790878060319302AF1
:10045E00312A322A78177708A0002007FF007F087C
:10046E00F900F61F3B2A3C2A3D2A79147908031914
:10047E00412A422A522A790A031D462A472A4F2A1E
:10048E000030F7000030F6000030F5000030F400C8
:10049E00F617F7015A2A0030F7000030F600003048
:1004AE00F5000030F4007A08790203185F2A602AFA
:1004BE00A42A781F632A642A682A8030FF007F08E6
:1004CE00F8067A08FF007F08FB007908FF007F0816
:1004DE00FA007B08FF007F08F9007008FF007F0814
:1004EE00FB007408FF007F08F0007B08FF007F0808
:1004FE00F4007108FF007F08FB007508FF007F08FD
:10050E00F1007B08FF007F08F5007208FF007F08EE
:10051E00FB007608FF007F08F2007B08FF007F08D3
:10052E00F6007308FF007F08FB007708FF007F08C6
:10053E00F3007B08FF007F08F700FB017908A0009D
:10054E00A1012108A3007A082002A200031CA30324
:10055E002308803AFF0080307F02031DB82A1A302C
:10056E002202031CBB2ABC2AFB2A730872047104E4
:10057E007004031DC32AC52A0130C62A0030FF00AD
:10058E007F08FB000030F3000030F2000030F10075
:10059E000030F0007908FF007F08FA00012B7B1C69
:1005AE00D92ADA2AE52A7B0883120313A000031046
:1005BE00200C0138FF007F08FB00E72A0310FB0C1C
:1005CE00701CEA2AEB2AEC2AFB1701308312031364
:1005DE00A000730DF30CF20CF10CF00CA00BF02A32
:1005EE000130FF007F08FA0779087A02031C002BFE
:1005FE00012BD62A781B042B052B542B7A08031DAE
:10060E00092B0A2B132B0030F3000030F2000030C0
:10061E00F1000030F0008A2C7408F0077508031101
:10062E000318013E03191C2BF1077608031103185A
:10063E00013E0319232BF207770803110318013E1D
:10064E0003192A2BF307731C2D2B2E2B0C2C7B1C22
:10065E00312B322B3D2B7B0883120313A00003108A
:10066E00200C0138FF007F08FB003F2B0310FB0C12
:10067E00701C422B432B442BFB17013083120313A8
:10068E00A000730DF30CF20CF10CF00CA00B482B28
:10069E000130FF007F08FA070C2C7308803AFF0028
:1006AE007708803A7F02031D662B76087202031DBF
:1006BE00662B75087102031D662B740870020318F1
:1006CE00692B6A2BC42BFF3083120313A000FF305B
:1006DE00A100FF30A200FF30A3007408A40075082B
:1006EE00A5007608A6007708A7007008A402710876
:1006FE00031C710F832B842BA5027208031C720F2F
:10070E00892B8A2BA6027308031C730F8F2B902B39
:10071E00A7022408A00725080318250F972B982B4E
:10072E00A10726080318260F9D2B9E2BA20727082C
:10073E000318270AA3072308F3002208F200210852
:10074E00F1002008F0008030FF007F08F806FB095A
:10075E00FB0A7B08031DB42BB52BD22B0130F007FF
:10076E00003003180130F107003003180130F20792
:10077E00003003180130F307D22B7408F00275080D
:10078E00031C750FF1027608031C760FF202770830
:10079E00031C770FF3027308720471047004031DB7
:1007AE00D92BDA2B082C7B08031DDE2BDF2B082C14
:1007BE000030F3000030F2000030F1000030F000A5
:1007CE008A2C013083120313A0000310F00DF10DDB
:1007DE00F20DF30DA00BEC2BFB1FF62BF72BF82BCA
:1007EE0070147B1CFB2BFC2BFF2B0314FB0D012C1D
:1007FE000310FB0D7A080319052C062C082C01306A
:10080E00FA02F21F0B2C0C2CE82BF901FB1F102CFB
:10081E00112C1F2C7B087F390319162C172C1A2C20
:10082E00F901F90A1F2C701C1D2C1E2C1F2C172CC5
:10083E0079080319232C242C5A2C0130F007003090
:10084E0003180130F107003003180130F2070030B1
:10085E0003180130F307731C352C362C5A2C7008F4
:10086E0083120313A0007108A1007208A20073087E
:10087E00A3000130A400230DA30CA20CA10CA00C0C
:10088E00A40B422C2308F3002208F2002108F100E9
:10089E002008F0007A0A0319552C562C5A2C0130D8
:1008AE00FF007F08FA077A0A03195E2C5F2C642C6E
:1008BE007A08031D632C642C722C0030F300003078
:1008CE00F2000030F1000030F0007A08031D702CA9
:1008DE00712C722CF8017A1C752C762C782CF21750
:1008EE007C2C7F30FF007F08F2057A0883120313F9
:1008FE00A0000310200CFF007F08F300F81F882CC7
:10090E00892C8A2CF31708008312031323088039CD
:10091E00FF007F08A8002308F9007907FF007F0871
:10092E00AE00A21F9B2C9C2C9D2C2E142E0803195E
:10093E00A12CA22CB12C2E0A031DA62CA72CAF2C59
:10094E000030A3000030A2000030A1000030A00053
:10095E00A217B92C0030A3000030A2000030A10075
:10096E000030A00027088039FF007F08A80627085E
:10097E00F9007907FF007F08AD00A61FC72CC82C11
:10098E00C92C2D142D080319CD2CCE2CDD2C2D0A9F
:10099E00031DD22CD32CDB2C0030A7000030A60078
:1009AE000030A5000030A400A617E52C0030A700EB
:1009BE000030A6000030A5000030A4002D08031959
:1009CE00E92CEA2CEF2C2E08031DEE2CEF2CF82C24
:1009DE000030A3000030A2000030A1000030A000C3
:1009EE00EB2F2008FF007F08F00026080A128A1558
:1009FE00A7220A128A11710883120313B400700819
:100A0E00B3003308F900FA01FB01FC017C08AC00CD
:100A1E007B08AB007A08AA007908A9003408F9000F
:100A2E00FA01FB01FC017C08B2007B08B1007A08D8
:100A3E00B0007908AF002108FF007F08F0002508FC
:100A4E000A128A15A7220A128A1171088312031339
:100A5E00B4007008B3003308F900FA01FB01FC0181
:100A6E007908A9077A0803110318013E0319402DCE
:100A7E00AA077B0803110318013E0319472DAB0784
:100A8E007C0803110318013E03194E2DAC073408E0
:100A9E00F900FA01FB01FC017908AF077A0803118E
:100AAE000318013E03195C2DB0077B0803110318D0
:100ABE00013E0319632DB1077C0803110318013E93
:100ACE0003196A2DB2072208FF007F08F0002408E0
:100ADE000A128A15A7220A128A11710883120313A9
:100AEE00B4007008B3003308F900FA01FB01FC01F1
:100AFE007908A9077A0803110318013E0319882DF6
:100B0E00AA077B0803110318013E03198F2DAB07AB
:100B1E007C0803110318013E0319962DAC07340807
:100B2E00F900FA01FB01FC017908AF077A080311FD
:100B3E000318013E0319A42DB0077B0803110318F7
:100B4E00013E0319AB2DB1077C0803110318013EBA
:100B5E000319B22DB2070830F9000310A90DAA0D22
:100B6E00AB0DAC0DF90BB42D2108FF007F08F00082
:100B7E0024080A128A15A7220A128A1171088312F2
:100B8E000313B4007008B3003308F9003408FA00F8
:100B9E00FB01FC017908A9077A0803110318013E2D
:100BAE000319DA2DAA077B0803110318013E031956
:100BBE00E12DAB077C0803110318013E0319E82D44
:100BCE00AC072008FF007F08F00025080A128A15DE
:100BDE00A7220A128A11710883120313B400700837
:100BEE00B3003308F9003408FA00FB01FC01790860
:100BFE00A9077A0803110318013E0319072EAA0745
:100C0E007B0803110318013E03190E2EAB077C0857
:100C1E0003110318013E0319152EAC070830F90015
:100C2E000310A90DAA0DAB0DAC0DF90B172E200854
:100C3E00FF007F08F00024080A128A15A7220A1264
:100C4E008A11710883120313B4007008B3003308BD
:100C5E00F9003408FA00FB01FC017908A9077A08AB
:100C6E0003110318013E03193D2EAA077B08031139
:100C7E000318013E0319442EAB077C080311031819
:100C8E00013E03194B2EAC072108FF007F08F00030
:100C9E0026080A128A15A7220A128A1171088312CF
:100CAE000313B4007008B3003308F9003408FA00D7
:100CBE00FB01FC017908AF077A0803110318013E06
:100CCE0003196A2EB0077B0803110318013E03199E
:100CDE00712EB1077C0803110318013E0319782EFB
:100CEE00B2072208FF007F08F00025080A128A15B5
:100CFE00A7220A128A11710883120313B400700816
:100D0E00B3003308F9003408FA00FB01FC0179083E
:100D1E00AF077A0803110318013E0319972EB00787
:100D2E007B0803110318013E03199E2EB1077C08A0
:100D3E0003110318013E0319A52EB2072208FF0066
:100D4E007F08F00026080A128A15A7220A128A11B5
:100D5E00710883120313B4007008B3003308F9004E
:100D6E003408FA00FB01FC0108300310F90DFA0DEE
:100D7E00FB0DFC0DFF3E031DBC2E7908AF077A0854
:100D8E0003110318013E0319CD2EB0077B08031182
:100D9E000318013E0319D42EB1077C080311031862
:100DAE00013E0319DB2EB2072908F9002A08FA00C2
:100DBE002B08FB002C08FC0018300310FC0CFB0C5D
:100DCE00FA0CF90CFF3E031DE42E7908AF077A08E2
:100DDE0003110318013E0319F52EB0077B0803110A
:100DEE000318013E0319FC2EB1077C0803110318EA
:100DFE00013E0319032FB2070830F9000310A90DA5
:100E0E00AA0DAB0DAC0DF90B052F2E082D07F90011
:100E1E00FA01FA0D7908823EB3007A080318013EF2
:100E2E00FF3EB400372F0130F9000310AF0DB00DA7
:100E3E00B10DB20DF90B1C2FAC1F262F272F282F0B
:100E4E002F140130F9000310A90DAA0DAB0DAC0D36
:100E5E00F90B2A2FFF30B3070318B40AFF30B4077B
:100E6E00B11F3A2F3B2F1A2FAD01AC1F3F2F402F32
:100E7E005C2FFF302905F900FF302A05FA00FF30FC
:100E8E002B05FB007F302C05FC007C087B047A04CC
:100E9E0079040319532F542F572FAD01AD0A5C2F30
:100EAE002F1C5A2F5B2F5C2F542F2D080319602FE8
:100EBE00612F922F0130AF07003003180130B007B9
:100ECE00003003180130B107003003180130B207AB
:100EDE00321C722F732F922F2F08F9003008FA0050
:100EEE003108FB003208FC000130FD007C0DFC0CCB
:100EFE00FB0CFA0CF90CFD0B7D2F7C08B2007B0865
:100F0E00B1007A08B0007908AF000130B3070318BA
:100F1E00B40A0030B4073408803AFF0080307F02F4
:100F2E00031D9B2FFF303302031C9E2F9F2FAA2FD2
:100F3E007F3083120313B2008030B1000030B00056
:100F4E000030AF00DF2F831203133408803AFF0006
:100F5E0080307F02031DB52F013033020318B82FE6
:100F6E00B92FC52F003083120313B2000030B10029
:100F7E000030B0000030AF00A801DF2F8312031342
:100F8E003308FF007F08AE00FF30AF05FF30B0051D
:100F9E007F30B1050030B2052E1CD62FD72FD82F9B
:100FAE00B1172E08F9000310790CFF007F08B2006C
:100FBE002808FF007F08B2043208A3003108A200FF
:100FCE003008A1002F08A000080083120313EC01C3
:100FDE00DF01E001E101E201E301E401E501E601E7
:100FEE00E701E801E901EA01EB0183010A128A1522
:020FFE00372D8D
:101414004230F000F00B0C2A00000800730872043C
:10142400710470040319172A182A1A2A8030F30643
:101434000800F101F10A00300A128A1562220A1228
:101444008A150D30F400FB30F300F30B272AF40B5C
:10145400272A2C2A0800FA003B2A7A08840000086C
:101464000A128A15FA220A128A150130FF007F082F
:10147400FA077A08840083130008031D422A432ACA
:101484002F2A0800F6007308031D492A4B2A01304D
:101494004C2A0030F4007608031D512A532A0130E7
:1014A400542A0030F500750774040438FF007F08DF
:1014B400F10000300A128A1562220A128A15080005
:1014C400F200831603138601720803196A2A6B2A31
:1014D400702A8312031388170813742A83120313C0
:1014E40008138813710886008816782A792A000060
:1014F4008312031388120A128A150A220A128A1501
:101504000800803083120313D0065408F3005308F4
:10151400F2005208F1005108F0005008F7004F089B
:10152400F6004E08F5004D08F4000A128A11F7215E
:101534000A128A15730883120313D0007208CF00AD
:101544007108CE007008CD000800F800F401F50120
:101554007008F200F3017208F6007308F700781CB3
:10156400B42AB52ABB2A7608F4070318F50A7708C3
:10157400F50701300310F60DF70DFF3E031DBC2ADD
:101584000310F80C7808031DC82AC92AB12A750863
:10159400F1007408F0000800F60083120313EC1C39
:1015A400D42AD52ADA2A6730F4000030F500DE2A7E
:1015B4004F30F4000030F5007508803AF3008030B5
:1015C4007302031DE72A76087402031CEA2AEB2A35
:1015D400F92A831203136C1176088038FF007F0800
:1015E400F10000300A128A1562220A128A150800D4
:1015F400F50083120313EC18002B012B062B4F303C
:10160400F6000030F700172B6C18092B0A2B0F2B50
:101614002730F8000030F900132B6730F800003051
:10162400F9007908F7007808F6006B08F300F40174
:1016340077087406031D202B76087306031D232BDD
:10164400242B262BEB012A2B0130FF007F08EB070C
:101654007508FF007F08F10001300A128A15622222
:101664000A128A150800F8007408031D3A2B3C2B53
:1016740001303D2B0030F50002300310F50DFF3E24
:10168400031D3F2B7308031D482B4A2B01304B2BA2
:101694000030F60003300310F60DFF3E031D4D2B02
:1016A4007808031D562B582B0130592B0030F700B6
:1016B40003300310F70DFF3E031D5B2B0310770D62
:1016C400760475042038FF007F08F10000300A1208
:1016D4008A1562220A128A157308031D722B762B4F
:1016E40083120313EC14792B83120313EC100800F8
:1016F400FA008316031388017A08031D822B842BB6
:101704000130852B0030FF007F08FA007908031DA3
:101714008C2B8E2B01308F2B0030FF007F08F900BB
:101724007A08FF007F08F3007908FF007F08F400BF
:1017340001300A128A1535230A128A157A08FF0025
:101744007F08F3007908FF007F08F40001300A12D3
:101754008A1535230A128A15F301F40100300A129E
:101764008A1107200A128A150A128A151B220A12E4
:101774008A15F30101300A128A1544220A128A15C5
:10178400F301F30AF401F40A01300A128A11072062
:101794000A128A150800730872047104700403198C
:1017A400D42BD52B182CF901F90AE52B0130F800BC
:1017B4000310F00DF10DF20DF30DF80BDA2B0130DF
:1017C400FF007F08F907F31FE82BE92BD82B7308D8
:1017D4007702031DF72B72087602031DF72B71089D
:1017E4007502031DF72B70087402031CFA2BFB2BE4
:1017F400092C7008F4027108031C710FF5027208B9
:10180400031C720FF6027308031C730FF7020130F6
:101814000310F30CF20CF10CF00CFF3E031D0A2C28
:101824000130F902031D172C182CE92B7708F3005B
:101834007608F2007508F1007408F00008008312BD
:101844000313B30000306C180130B6006B08031D9D
:101854002C2C2E2C01302F2C0030FF007F08B700D9
:10186400EC18352C362C3B2C4F30B4000030B5002E
:101874003F2C2730B4000030B5003408FF007F0847
:10188400B800F7013308031D482C4A2C01304B2CB7
:1018940000300A128A113B200A128A15572C203074
:1018A4000A128A15FA220A128A15013083120313C6
:1018B400B802380A031D5F2C602C512C36080139FC
:1018C4006C10031D6C143708FF007F08EB006B08D5
:1018D400FF007F08F70000306C1801300A128A11EB
:1018E4003B200A128A15080083120313C401C21F85
:1018F4007C2C7D2C842CC109C209C10A0319C20A9B
:10190400C401C40AC01F872C882C8D2CBF09C009B0
:10191400BF0A0319C00A3F0840040319922C932CF0
:10192400C22CC301C30AA12C01300310BF0DC00D8A
:10193400FF3E031D972C0130FF007F08C307C01F23
:10194400A42CA52C962C40084202031DAB2C3F0866
:101954004102031CAE2CAF2CB52C3F08C102400839
:10196400031CC203C20201300310C00CBF0CFF3EB3
:10197400031DB62C0130C302031DC12CC22CA52C9F
:1019840044080319C62CC72CCC2CC109C209C10AAE
:101994000319C20A4208C0004108BF000800003011
:1019A400FC000030FB000030FA000030F90073083E
:1019B4007204710470040319E02CE12C2E2DFD0136
:1019C400FD0AF12C0130F8000310F00DF10DF20DB9
:1019D400F30DF80BE62C0130FF007F08FD07F31F21
:1019E400F42CF52CE42C0130F8000310F90DFA0D59
:1019F400FB0DFC0DF80BF72C73087702031D0C2D5F
:101A040072087602031D0C2D71087502031D0C2D3E
:101A140070087402031C0F2D102D1F2D7008F40282
:101A24007108031C710FF5027208031C720FF60291
:101A34007308031C730FF702791401300310F30CBD
:101A4400F20CF10CF00CFF3E031D202D0130FD02C1
:101A5400031D2D2D2E2DF52C7C08F3007B08F200A0
:101A64007A08F1007908F00008008316031389014D
:101A74008801870186018501831203138901880186
:101A8400870186018501F90101300A128A157A233A
:101A94000A128A1583120313DE01F70100300A12B9
:101AA4008A113B200A128A15CA3083120313D80004
:101AB4001630D700B030D6007930D5000330FF009F
:101AC4007F08D9000A128A11FD200A128A15F7012B
:101AD400831203135E080319702D722D0130732DC8
:101AE4000030FF007F08DE005E08031D7A2D7C2D88
:101AF40001307D2D00300A128A113B200A128A150A
:101B0400831203135E080A128A1521240A128A1505
:101B14000D3083120313DD00AF30DC00B530DB0081
:101B2400DB0B922DDC0B922DDD0B922D992D562D76
:101B34000A128A110028031083120313370D380D7B
:101B4400FF007F08BE003E08031DA92DAA2DB32D5A
:101B54000030B8000030B7000030B6000030B500E7
:101B6400182E3508B9003608BA003708BB00380803
:101B7400BC001F300310BC0CBB0CBA0CB90CFF3EEC
:101B8400031DBC2D3908FF007F08BD00B717FF30C7
:101B9400B505FF30B605FF30B7050030B8059630FF
:101BA400BE02BE1FD62DD72DF12D3E08803A973E9A
:101BB4000318DD2DDE2DDF2DAA2D01300310B80C06
:101BC400B70CB60CB50CFF3E031DE02D0130FF0031
:101BD4007F08BE07031DEF2DF02DDF2D082E2030CA
:101BE4003E02031CF62DF72D032EAA2D0130B90059
:101BF4000310B50DB60DB70DB80DB90BFA2D0130A4
:101C0400BE023E08031D072E082EF82D3D080319B9
:101C14000C2E0D2E182EB509B609B709B809B50A48
:101C24000319B60A0319B70A0319B80A080043309E
:101C340084000B30FF0083138001840AFF0B1D2EE8
:101C44004D30FF007F0883120313CE00C21F2B2EDA
:101C54002C2E3F2E2D300A128A15FA220A128A15CA
:101C640083120313BF09C009C109C209BF0A0319BA
:101C7400C00A0319C10A0319C20A0030F300003074
:101C8400F2000030F1000A30F0004208F700410889
:101C9400F6004008F5003F08F4000A128A15CD2327
:101CA4000A128A157008303EFF00013083120313B4
:101CB400CE024E0884007F088313800043304E0216
:101CC400031C652E662E962E0030F3000030F200C1
:101CD4000030F1000A30F0004208F7004108F60035
:101CE4004008F5003F08F4000A128A15D1240A12AC
:101CF4008A15730883120313C2007208C1007108A5
:101D0400C0007008BF004208031D952E4108031D42
:101D1400952E4008031D952E02303F02031D922E7E
:101D24000318952E962E3F2E4E080A128A152D2240
:101D34000A128A15831203134E080A3C433E080014
:101D440000307005F80000307105F900803072052C
:101D5400FA007F307305FB007B087A047904780469
:101D6400031DB52EB62EBE2E0030F3000030F20057
:101D74000030F1000030F00000307405F80000304D
:101D84007505F90080307605FA007F307705FB0091
:101D94007B087A0479047804031DD12ED22EDA2E1E
:101DA4000030F7000030F6000030F5000030F40099
:101DB400F31FDD2EDE2E022F0030F8000030F90074
:101DC4000030FA008030FB007008F8027108031C30
:101DD400710FED2EEE2EF9027208031C720FF32E12
:101DE400F42EFA027308031C730FF92EFA2EFB0269
:101DF4007B08F3007A08F2007908F1007808F00013
:101E0400F71F052F062F2A2F0030F8000030F900A5
:101E14000030FA008030FB007408F8027508031CD7
:101E2400750F152F162FF9027608031C760F1B2F3A
:101E34001C2FFA027708031C770F212F222FFB0295
:101E44007B08F7007A08F6007908F5007808F400B2
:101E54008030F3068030F70677087302031D3C2FA9
:101E640076087202031D3C2F75087102031D3C2F76
:101E74007408700203183F2F402F422F0310432F82
:101E84000314080083120313C700470803194B2FD8
:101E94004C2F602FC21F4F2F502F602F3F09C900B6
:101EA4004009CA004109CB004209CC00C90A031900
:101EB400CA0A0319CB0A0319CC0A682F4208CC00BA
:101EC4004108CB004008CA003F08C9004208410449
:101ED40040043F04031D6F2F702F792F0030C20080
:101EE4000030C1000030C0000030BF00FF2F96302A
:101EF400FF007F08C8008B2F0130FF007F08C80750
:101F040001300310CC0CCB0CCA0CC90CFF3E031DD2
:101F1400832FFE304C05031D902F912F7E2FAD2F64
:101F24000130FF007F08C8070130C90700300318DB
:101F34000130CA07003003180130CB070030031802
:101F44000130CC0701300310CC0CCB0CCA0CC90CEB
:101F5400FF3E031DA52FFF304C05031DB22FB32FE9
:101F6400922FBF2F0130C8020130C3000310C90DE6
:101F7400CA0DCB0DCC0DC30BB82FCB1BC22FC32F57
:101F8400C92F023048020318C82FC92FB42F48188C
:101F9400CC2FCD2FD52FFF30C905FF30CA057F3098
:101FA400CB05FF30CC050310C80C4808C300C4019E
:101FB400C501C60118300310C30DC40DC50DC60DEF
:101FC400FF3E031DDD2F4308C9044408CA04450825
:101FD400CB044608CC0447080319F12FF22FF72F3E
:101FE400C21FF52FF62FF72FCC174C08C2004B0851
:0C1FF400C1004A08C0004908BF000800F6
:02400E00FA3F77
:00000001FF
