:100000000A128A11F02F00308A000408840A82073D
:100010000034003425342E34313436347334003413
:0A00200025342E342A3466340034EF
:10050E004230F000F00B892A0000080064008001E0
:10051E00840A04060319003404068E2AF101F10A36
:10052E0000300A128A11AF220A128A110D30F4001D
:10053E00FB30F300F30BA12AF40BA12AA62A831297
:10054E000313C501C6014710461CAE2A4714080006
:10055E00F20083160313860172080319B72AB82A0C
:10056E00BD2A8312031388170813C12A831203139B
:10057E0008138813710886008816C52AC62A00003B
:10058E008312031388120A128A1187220A128A1101
:10059E000800F700DA2AF301F30A01300A128A1171
:1005AE004C230A128A11FF30F70701307707803A81
:1005BE007F3E031CE32AE42AF02AFF308312031342
:1005CE00C50701304507803A7F3E0318EF2AF02A0F
:1005DE00D22A83120313C51FF52AF62AF72AC5015C
:1005EE000800F60076080139831203134711031D24
:1005FE00471573080139C710031DC7147308031D6F
:10060E00092B0B2B01300C2B0030F4007608031D48
:10061E00112B132B0130142B0030F50075077404C9
:10062E000438FF007F08F10000300A128A11AF2251
:10063E000A128A110800831203134308013EFF00B9
:10064E007F08FD00FC010030471801300A128A11A4
:10065E003C270A128A11392B20300A128A11AC2635
:10066E000A128A110130FD027D0A031D3F2B402B19
:10067E00332BFC01003083120313471801300A128A
:10068E008A113C270A128A110800F6007308031D0E
:10069E00512B532B0130542B0030F4000230031039
:1006AE00F40DFF3E031D562B7608031D5F2B612BA9
:1006BE000130622B0030F50002300310F50DFF3EC5
:1006CE00031D642B0310750D74041038FF007F0892
:1006DE00F10000300A128A11AF220A128A110800A4
:1006EE00F60083120313C71D7D2B7E2B832B6730E1
:1006FE00F4000030F500872B4F30F4000030F50089
:10070E007508803AF30080307302031D902B760833
:10071E007402031C932B942BA22B831203134712E8
:10072E0076088038FF007F08F10000300A128A1127
:10073E00AF220A128A110800F8007408031DA82BB4
:10074E00AA2B0130AB2B0030F5007308031DB02B24
:10075E00B22B0130B32B0030F60001300310F60D32
:10076E00FF3E031DB52B7808031DBE2BC02B013099
:10077E00C12B0030F70001300310F70DFF3E031DB3
:10078E00C32B0310770D760475040838FF007F081D
:10079E00F10000300A128A11AF220A128A110800E3
:1007AE00F8007408031DDC2BDE2B0130DF2B00302C
:1007BE00F50002300310F50DFF3E031DE12B73080B
:1007CE00031DEA2BEC2B0130ED2B0030F60003302D
:1007DE000310F60DFF3E031DEF2B7808031DF82BBB
:1007EE00FA2B0130FB2B0030F70003300310F70D0E
:1007FE00FF3E031DFD2B0310770D76047504203884
:10080E00FF007F08F10000300A128A11AF220A128F
:10081E008A117308031D142C182C83120313C71589
:10082E001B2C83120313C7110800FA008312031343
:10083E004308F13EFF007F08FB002C2CF301013032
:10084E000A128A114C230A128A11FF30FA0701305C
:10085E007A07803A7F3E031C352C362C4D2C013006
:10086E0083120313C507FF304507F700F801F71B86
:10087E00F8037808803AF90080307902031D492C7C
:10088E007B087702031C4C2C4D2C252C8312031352
:10089E004508F700F801F71BF8037808803A803C0A
:1008AE00031D5B2C7708430203185E2C5F2C652C0E
:1008BE00831203134308FF007F08C5000800FC00E5
:1008CE008316031388017C08031D6E2C702C0130D7
:1008DE00712C0030FF007F08FC007908031D782C76
:1008EE007A2C01307B2C0030FF007F08F9007C0849
:1008FE00FF007F08F3007908FF007F08F400013045
:10090E000A128A11D7230A128A117C08FF007F0867
:10091E00F3007908FF007F08F40001300A128A11F3
:10092E00D7230A128A11F301F40100300A128A1138
:10093E00A3230A128A110A128A1195220A128A1107
:10094E00F30101300A128A11F8220A128A11F301F8
:10095E00F30AF401F40A01300A128A11A3230A12CF
:10096E008A1183120313C401C719BE2CBF2CC42CC9
:10097E004F30FA000030FB00C82C2730FA00003050
:10098E00FB007A08FF007F08C300080083120313E0
:10099E00AD004719D32CD42CDC2C4308AB00AC0192
:1009AE002B08AE002C08AF00E32C4408AB00AC01C2
:1009BE002B08AE002C08AF002E08FF007F08B000F9
:1009CE00F3010310471D03140030031801300A12FF
:1009DE008A11F8220A128A11FA2C20300A128A1170
:1009EE00AC260A128A11FF3083120313AD070130B1
:1009FE002D07803A7F3E031C052D062D122D46082D
:100A0E00AB00AC01AB1BAC0330082B062C04031D52
:100A1E00112D122DF42C20300A128A11AC260A1236
:100A2E008A11F301031083120313471D03140030C0
:100A3E00031801300A128A11F8220A128A1183123F
:100A4E000313471D2B2D2C2D332D01300A128A1125
:100A5E003A250A128A11392D01300A128A11B3254C
:100A6E000A128A110800FC00792DF301F30A0030F6
:100A7E000A128A114C230A128A1183120313460892
:100A8E00A000A101A01BA1030E304507A200A301E7
:100A9E000318A30AC51F542DA303831203132108A1
:100AAE002306031D5C2D20082206031D5F2D602DDD
:100ABE00792D6F2DF301F30A00300A128A114C239F
:100ACE000A128A1101300A128A111C240A128A1182
:100ADE00FF30FF007F08FC077C0A031D772D782D61
:100AEE00612D3B2DFF30FC0701307C07803A7F3EA5
:100AFE00031C822D832D9A2D013083120313C607FA
:100B0E00FF304607A000A101A01BA1032108803AD7
:100B1E00A20080302202031D962D43082002031CE2
:100B2E00992D9A2D3C2D831203134608A000A10186
:100B3E00A01BA1032108803A803C031DA82D20088C
:100B4E0043020318AB2DAC2DB22D831203134308B1
:100B5E00FF007F08C6000800FD00F42DF3010030F1
:100B6E000A128A114C230A128A11013083120313BE
:100B7E004507F800F9010318F90AC51FC72DF90337
:100B8E00831203134608FA00FB01FA1BFB037B08D2
:100B9E00803AFC007908803A7C02031DD82D780833
:100BAE007A020318DB2DDC2DF42DEA2DF301003033
:100BBE000A128A114C230A128A1101300A128A1162
:100BCE00D0220A128A11FF30FF007F08FD077D0A2E
:100BDE00031DF22DF32DDD2DB42DFF30FD07013059
:100BEE007D07803A7F3E031CFD2DFE2D132EFF3018
:100BFE0083120313C60701304607F800F901F81BEC
:100C0E00F9037908803A803C031D0F2E78084402C0
:100C1E00031C122E132EB52D831203134608F80053
:100C2E00F901F81BF9037908803AFA0080307A024C
:100C3E00031D232E440878020318262E272E2D2E50
:100C4E00831203134408FF007F08C60008008316B2
:100C5E00031389018801870186018501FF30870012
:100C6E008312031389018801870186018501F90129
:100C7E0001300A128A1166240A128A116130FF00AD
:100C8E007F0883120313B600FC0100300A128A118A
:100C9E003C270A128A118312031307080319582ED0
:100CAE00592E522E071C5C2E5D2E862E613036027A
:100CBE00031C622E632E692E7B303602031C682EB7
:100CCE00692E6E2E6130B4000030B500752E3608D8
:100CDE00B100B2013108B4003208B5003408FF008B
:100CEE007F08B60036080A128A11AC260A128A113B
:100CFE000130FF007F0883120313B607A12E871C55
:100D0E00892E8A2E932E0130B60201300A128A11D4
:100D1E00CD240A128A11A12E071D962E972EA12ED2
:100D2E006130FF007F08B6000A128A1122230A12D0
:100D3E008A11A12E831203130708031DA72EA82EB6
:100D4E00A12E522E0A128A11002883120313A40018
:100D5E004719B22EB32EBB2E4408013EA50000301B
:100D6E0003180130A600C22E4308FF3EA500FF3037
:100D7E0003180030A6004608A000A101A01BA10385
:100D8E0026082106031DCD2E25082006031DD02E74
:100D9E00D12ED22E3B2F2408FF007F08F100013008
:100DAE000A128A11AF220A128A1183120313471DE7
:100DBE00E12EE22E032F4608A000A101A01BA103E5
:100DCE000F304507A200A3010318A30AC51FF02E7A
:100DDE00A3038312031321082306031DF82E2008F4
:100DEE002206031DFB2EFC2E032F01300A128A1140
:100DFE001C240A128A11132F4719062F072F132F9F
:100E0E0046084506031D0C2F0D2F132F01300A1215
:100E1E008A11D0220A128A11831203134719182F2E
:100E2E00192F1E2FFF30A700FF30A800222F0130F0
:100E3E00A7000030A8002708FF007F08C607C71CC0
:100E4E00292F2A2F3B2F47192D2F2E2F332FFF30CF
:100E5E00A900FF30AA00372F0130A9000030AA00E8
:100E6E002908FF007F08C507080083120313AF008F
:100E7E00C719422F432F462FA501A601532F2F0826
:100E8E00031D4A2F4C2F01304D2F0030A000A10121
:100E9E002008A5002108A6004710251C572F47142F
:100EAE008312031343087C02031C5E2F5F2F672FF0
:100EBE004308A000A1012008A7002108A8006E2F5A
:100ECE007C08A000A1012008A7002108A80027087F
:100EDE00FF007F08C6004608803AA0004508803A09
:100EEE00A00203187B2F7C2F842F460845020A127E
:100EFE008A111C240A128A11AB2F4608A000A101E8
:100F0E00A01BA1030F304507A200A3010318A30ADB
:100F1E00C51F922FA303831203132308803AA40044
:100F2E002108803A2402031D9E2F20082202031856
:100F3E00A12FA22FAB2F83120313450846020A12CC
:100F4E008A11D0220A128A1183120313C71DB02FE1
:100F5E00B12FD72F27307C02031CB62FB72FBC2FF3
:100F6E002730A9000030AA00C32F7C08A000A101E1
:100F7E002008A9002108AA002F08031DC72FC82F7B
:100F8E00CB2FAB01AC01CF2F4030AB000030AC000B
:100F9E0029082B070A128A1177230A128A11EF2FBA
:100FAE004F307C02031CDC2FDD2FE22F4F30AD00C3
:100FBE000030AE00E92F7C08A000A1012008AD0092
:100FCE002108AE002D080A128A1177230A128A11FF
:100FDE00080083120313C701831337308400473090
:100FEE000A128A118D220A128A1183010A128A119B
:020FFE002E2E95
:02400E00FA3F77
:00000001FF
