:100000000A128A11F02FFF1B0D2883137F18831704
:100010000008840A0319FF0A080000308A00040857
:10002000840A8207003454346834693473342034C9
:100030006934733420346E346F3474342034633450
:100040006F346F346C342134213421340A34003459
:1000500025342E34313436347334003425342E3480
:060060002A34663400346E
:10017E004230F000F00BC12800000800640080013E
:10018E00840A0406031900340406C62800308312BC
:10019E000313551801300A128A11B2220A128A115B
:1001AE00FA01003083120313551801300A128A1116
:1001BE003C250A128A110800F101F10A00300A12D8
:1001CE008A11FD200A128A110D30F400FB30F30063
:1001DE00F30BEF28F40BEF28F42883120313D3014B
:1001EE00D4015510541CFC2855140800F200831637
:1001FE000313860172080319052906290B29831298
:10020E000313881708130F29831203130813881377
:10021E00710886008816132914290000831203130F
:10022E0088120A128A11BF200A128A110800F600DB
:10023E0076080139831203135511031D55157308E2
:10024E000139D510031DD5147308031D2F2931292B
:10025E00013032290030F4007608031D3729392980
:10026E0001303A290030F500750774040438FF0098
:10027E007F08F10000300A128A11FD200A128A113D
:10028E000800F6007308031D4D294F29013050292F
:10029E000030F40002300310F40DFF3E031D52290E
:1002AE007608031D5B295D2901305E290030F500BB
:1002BE0002300310F50DFF3E031D60290310750D6E
:1002CE0074041038FF007F08F10000300A128A1102
:1002DE00FD200A128A110800F60083120313D51DA1
:1002EE0079297A297F296730F4000030F5008329B7
:1002FE004F30F4000030F5007508803AF30080307E
:10030E007302031D8C2976087402031C8F29902911
:10031E009E2983120313551276088038FF007F083A
:10032E00F10000300A128A11FD200A128A1108000B
:10033E00831203132708A9002808AA00BC292A083B
:10034E00FF00290884000A128A1103200A128A115A
:10035E000A128A11A1240A128A1101308312031380
:10036E00A9070318AA0A0030AA072A08FF002908BD
:10037E0084000A128A1103200A128A11003A031D00
:10038E00C929CA29A629270829020800F800D72951
:10039E00F301F30A01300A128A1148210A128A1156
:1003AE00FF30FF007F08F807780A0319DF29E029DC
:1003BE00EF29831203135208803AF700FF30D30758
:1003CE0001305307803AF702031CEE29EF29CF299B
:1003DE00831203135308803AF7005208803AF7024B
:1003EE000318FA29FB29FF295208FF007F08D300C2
:1003FE000800F8007408031D052A072A0130082A90
:10040E000030F5007308031D0D2A0F2A0130102A43
:10041E000030F60001300310F60DFF3E031D122AC8
:10042E007808031D1B2A1D2A01301E2A0030F700F2
:10043E0001300310F70DFF3E031D202A0310770D28
:10044E00760475040838FF007F08F10000300A12A8
:10045E008A11FD200A128A110800F8008312031374
:10046E005108F13EFF007F08F900442AF3010130E4
:10047E000A128A1148210A128A11FF30FF007F08E2
:10048E00F807780A03194C2A4D2A5C2A0130831288
:10049E000313D307FF305307803AF7007908803AE9
:1004AE00F702031C5B2A5C2A3D2A7908803AF70082
:1004BE00831203135308803AF7020318672A682A37
:1004CE006C2A7908FF007F08D3000800F800740832
:1004DE00031D722A742A0130752A0030F50002308D
:1004EE000310F50DFF3E031D772A7308031D802AA6
:1004FE00822A0130832A0030F60003300310F60DF5
:10050E00FF3E031D852A7808031D8E2A902A01308E
:10051E00912A0030F70003300310F70DFF3E031D44
:10052E00932A0310770D760475042038FF007F0898
:10053E00F10000300A128A11FD200A128A11730886
:10054E00031DAA2AAE2A83120313D515B12A8312CC
:10055E000313D511080083120313B200003055188F
:10056E000130B5005408FF007F08B6005108013E67
:10057E00FF007F08B7003208031DC62AC72ACA2A01
:10058E00B301B401CE2A4030B3000030B4003308BA
:10059E000A128A1173210A128A11DF2A2030FF00F3
:1005AE007F08F10001300A128A11FD200A128A1109
:1005BE00FF30FF007F0883120313B707370A031DAE
:1005CE00E92AEA2AD52A3608FF007F08FA003508FC
:1005DE00031DF22AF42A0130F52A00300A128A117C
:1005EE003C250A128A110800FA00292BF30100306B
:1005FE000A128A1148210A128A118312031354080F
:10060E005306031D0B2B0C2B202B01300A128A11C3
:10061E00CD210A128A11202BF30100300A128A1101
:10062E0048210A128A1101300A128A11CD210A12AA
:10063E008A11FF30FF007F08FA077A0A031D282B64
:10064E00292B132BFF30FA0701307A07803A7F3EB1
:10065E00031C322B332B422B831203135208803A86
:10066E00F900FF30D40701305407803AF902031C19
:10067E00412B422BFD2A831203135408803AF900B2
:10068E005208803AF90203184D2B4E2B522B52086A
:10069E00FF007F08D4000800FC00831603138801B6
:1006AE007C08031D5B2B5D2B01305E2B0030FF00A1
:1006BE007F08FC007908031D652B672B0130682B22
:1006CE000030FF007F08F9007C08FF007F08F30070
:1006DE007908FF007F08F40001300A128A116D229A
:1006EE000A128A117C08FF007F08F3007908FF00C8
:1006FE007F08F40001300A128A116D220A128A1143
:10070E00F301F40100300A128A1100220A128A1132
:10071E000A128A11E3200A128A11F30101300A1219
:10072E008A111E210A128A11F301F30AF401F40A46
:10073E0001300A128A1100220A128A11831203133F
:10074E00D201D519AB2BAC2BB12B4F30FA000030A8
:10075E00FB00B52B2730FA000030FB007A08FF00B3
:10076E007F08D100080083120313A000002CF301B0
:10077E00F30A00300A128A1148210A128A118312D2
:10078E0003135408FA00FB01FA1BFB030F30530747
:10079E00FC00FD010318FD0AD31FD62BFD037B08B9
:1007AE007D06031DDC2B7A087C06031DDF2BE02B58
:1007BE00F52B01300A128A1134220A128A11F52BF6
:1007CE00F301F30A00300A128A1148210A128A1123
:1007DE0001300A128A1134220A128A11FF30FF00E8
:1007EE007F0883120313A007200A031DFF2B002C82
:1007FE00E72BFF30A00701302007803A7F3E031C15
:10080E00092C0A2C172C0130D407FF305407803ADC
:10081E00FA005108803AFA02031C162C172CBE2B34
:10082E005108803AFA005408803AFA020318202C34
:10083E00212C252C5108FF007F08D40008008312BC
:10084E000313A90055192C2C2D2C372C01305107D0
:10085E00AA00AB010318AB0AD11F362CAB03442CF4
:10086E005208A700A801A71BA8032708FF3EAA004D
:10087E0028080318013EFF3EAB00831203132A081B
:10088E00FF007F08AC00551D4D2C4E2C552C013011
:10089E000A128A11FB220A128A115B2C01300A12EB
:1008AE008A11BA230A128A11F30103108312031359
:1008BE00551D03140030031801300A128A111E212F
:1008CE000A128A11702C20300A128A11A1240A12DF
:1008DE008A11FF30FF007F0883120313A907290A2C
:1008EE0003197A2C7B2C812C54082C06031D802C8A
:1008FE00812C6A2CF3010310551D031400300318CC
:10090E0001300A128A111E210A128A118312031350
:10091E00551D922C932C9A2C01300A128A11BA234F
:10092E000A128A11A02C01300A128A11FB220A1215
:10093E008A11080083120313A0005519A72CA82CA6
:10094E00B62C5208FA00FB01FA1BFB037A08FF3E95
:10095E00A1007B080318013EFF3EA200BF2C013010
:10096E005107A100A2010318A20AD11FBF2CA20396
:10097E00831203135408FA00FB01FA1BFB0322082F
:10098E007B06031DCC2C21087A06031DCF2CD02C00
:10099E00D22C08143B2D2008FF007F08F1000130F7
:1009AE000A128A11FD200A128A1183120313551D91
:1009BE00E12CE22C012D5408FA00FB01FA1BFB037B
:1009CE000F305307FC00FD010318FD0AD31FF02C56
:1009DE00FD037B087D06031DF62C7A087C06031D9D
:1009EE00F92CFA2C012D01300A128A1134220A1226
:1009FE008A11132D831203135519062D072D132D4E
:100A0E0054085306031D0C2D0D2D132D01300A1203
:100A1E008A11CD210A128A11831203135519182D2A
:100A2E00192D1E2DFF30A300FF30A400222D013002
:100A3E00A3000030A4002308FF007F08D407D51CB4
:100A4E00292D2A2D3B2D55192D2D2E2D332DFF30D1
:100A5E00A500FF30A600372D0130A5000030A600FE
:100A6E002508FF007F08D307080083120313B10087
:100A7E00D519422D432D462DA501A601532D310822
:100A8E00031D4A2D4C2D01304D2D0030A000A1012B
:100A9E002008A5002108A6005510251C572D551419
:100AAE007A08803A7F3E03185D2D5E2D632D8312EA
:100ABE000313A901AA016A2D7A0883120313A90050
:100ACE00AA01A91BAA035108A000A101A01BA10302
:100ADE002A08803AA2002108803A2202031D792DAD
:100AEE0020082902031C7C2D7D2D852D83120313D6
:100AFE005108A700A801A71BA8039C2D7A08803ACD
:100B0E007F3E03188B2D8C2D912D83120313AB0179
:100B1E00AC01982D7A0883120313AB00AC01AB1B0A
:100B2E00AC032C08A8002B08A7002708FF007F089D
:100B3E00D4005408803AA0005308803AA00203184B
:100B4E00A92DAA2DB22D540853020A128A11CD21B5
:100B5E000A128A11D92D5408A000A101A01BA103CD
:100B6E000F305307A200A3010318A30AD31FC02DF1
:100B7E00A303831203132308803AA4002108803AAA
:100B8E002402031DCC2D200822020318CF2DD02DB8
:100B9E00D92D83120313530854020A128A113422D8
:100BAE000A128A117A08803A83120313A0005108A0
:100BBE00803AA002031CE42DE52DEB2D5108AD006B
:100BCE00AE01AD1BAE03F02D7A08AD00AE01AD1B2C
:100BDE00AE033108031DF42DF52DF82DAF01B00134
:100BEE00FC2D4030AF000030B0002D082F070A1248
:100BFE008A1173210A128A110800831603138901C0
:100C0E008801870186018501FF3087008312031357
:100C1E0089018801870186018501F90101300A12D7
:100C2E008A1153230A128A116130FF007F08831242
:100C3E000313C400FA0100300A128A113C250A126D
:100C4E008A11013083120313A7008030A8000A1204
:100C5E008A119F210A128A1183120313070803199E
:100C6E00392E3A2E332E071C3D2E3E2E672E613026
:100C7E004402031C432E442E4A2E7B304402031C96
:100C8E00492E4A2E4F2E6130C2000030C300562E20
:100C9E004408BF00C0013F08C2004008C30042081C
:100CAE00FF007F08C40044080A128A11A1240A1208
:100CBE008A110130FF007F0883120313C407C22E6E
:100CCE00871C6A2E6B2E742E0130C40201300A125C
:100CDE008A1126240A128A11C22E071D772E782E0B
:100CEE00822E6130FF007F08C4000A128A11CD20C7
:100CFE000A128A11C22E871D852E862E8D2E013048
:100D0E000A128A11FB220A128A11C22E071E902E77
:100D1E00912E982E01300A128A11BA230A128A11C4
:100D2E00C22E871E9B2E9C2EA32E01300A128A11D4
:100D3E0034220A128A11C22E071FA62EA72EAE2EFD
:100D4E0001300A128A11CD210A128A11C22E871F72
:100D5E00B12EB22EC22EFB011430FF007F08FC0014
:100D6E000430FF007F08FD0003300A128A11CD26E1
:100D7E000A128A11C22E831203130708031DC82EEE
:100D8E00C92EC22E332E0A128A1100288312031383
:100D9E00B5007C08803AB2007B08803AB202031894
:100DAE00D92EDA2EDB2EEF2F7B08803AB2005208B6
:100DBE00803AB202031CE42EE52EEB2E7B08B60021
:100DCE00B701B61BB703F02E5208B600B701B61B1B
:100DDE00B7033608FF007F08FB007C08803AB2009C
:100DEE005108803AB202031CFD2EFE2E042F51082C
:100DFE00B800B901B81BB903092F7C08B800B901B6
:100E0E00B81BB9033808FF007F08FC007B087C0282
:100E1E00B200B301031CB303FC1F162FB303FB1F59
:100E2E001B2F83120313B30A831203133308803A62
:100E3E00FF0080307F02031D262F10303202031870
:100E4E00292F2A2F312F0F3083120313BA000030AF
:100E5E00BB00412F7B087C0283120313BA00BB0137
:100E6E00031CBB03FC1F3C2FBB03FB1F412F831234
:100E7E000313BB0A831203133A08F13EFF007F08E7
:100E8E00BC007B08FF007F08FA00003055180130C7
:100E9E000A128A113C250A128A11D72F0D3083129D
:100EAE000313B400AF30B300B530B200B20B5D2FF8
:100EBE00B30B5D2FB40B5D2F642F831203133C080D
:100ECE00FF007F08BD008F2F01300A128A113422D5
:100EDE000A128A117D08FF007F0883120313BE00D9
:100EEE00862F023083120313B4004530B300A930AD
:100EFE00B200B20B802FB30B802FB40B802F0130BA
:100F0E0083120313BE023E0A031D8E2F8F2F782FDE
:100F1E000130BD023D0A031D952F962F6B2F0D300C
:100F2E0083120313B400AF30B300B530B200B20B6E
:100F3E009E2FB30B9E2FB40B9E2FA52F8312031340
:100F4E003C08FF007F08BD00D02F01300A128A1125
:100F5E00CD210A128A117D08FF007F088312031328
:100F6E00BE00C72F023083120313B4004530B30006
:100F7E00A930B200B20BC12FB30BC12FB40BC12FCE
:100F8E00013083120313BE023E0A031DCF2FD02F52
:100F9E00B92F0130BD023D0A031DD62FD72FAC2F1E
:100FAE00013083120313B502350A031DDF2FE02F24
:100FBE00552F0D3083120313B400AF30B300B5308C
:100FCE00B200B20BE82FB30BE82FB40BE82FEF2FC4
:100FDE00080083120313D501831345308400553066
:100FEE000A128A11C5200A128A1183010A128A1165
:020FFE00042EBF
:02400E00FA3F77
:00000001FF
