:100000000A128A11EF2F00308A000408840A82073E
:10001000003425342E3431343634733400342534EE
:080020002E342A34663400344A
:10043C004230F000F00B202A00000800640080011C
:10044C00840A0406031900340406252A83120313B4
:10045C004A08FF007F08FC0000307D1801300A12AA
:10046C008A118B260A128A1108000230FF007F08BD
:10047C00F10000300A128A11EB230A128A110D3096
:10048C00F600FB30F500F50B492AF60B492A4E2AEB
:10049C0083120313CC01CD017D104D1C562A7D1403
:1004AC000800F101F10A00300A128A11EB230A123A
:1004BC008A110D30FA00FB30F900F90B632AFA0BA4
:1004CC00632A682A83120313CC01CD017D104D1CC5
:1004DC00702A7D140030FD180130F50000308312B5
:1004EC0003134E1801300A128A117F220A128A1144
:1004FC000800F80078080139831203134E10031D0D
:10050C004E1475080139FD10031DFD147508031DEB
:10051C00902A922A0130932A0030F6007808031DA5
:10052C00982A9A2A01309B2A0030F7007707760424
:10053C000438FF007F08F10000300A128A11EB2307
:10054C000A128A110800F8007508031DAE2AB02A99
:10055C000130B12A0030F60002300310F60DFF3ED8
:10056C00031DB32A7808031DBC2ABE2A0130BF2AFA
:10057C000030F70002300310F70DFF3E031DC12AB7
:10058C000310770D76041038FF007F08F10000305F
:10059C000A128A11EB230A128A110800FA00DE2AC9
:1005AC00F501F50A01300A128A11A9220A128A11E0
:1005BC00FF30FF007F08FA077A0A0319E62AE72AB8
:1005CC00F62A831203134B08803AF900FF30CC074C
:1005DC0001304C07803AF902031CF52AF62AD62A78
:1005EC00831203134C08803AF9004B08803AF90245
:1005FC000318012B022B062B4B08FF007F08CC00A5
:10060C000800FA007608031D0C2B0E2B01300F2B63
:10061C000030F7007508031D142B162B0130172B17
:10062C000030F80001300310F80DFF3E031D192BAC
:10063C007A08031D222B242B0130252B0030F900C6
:10064C0001300310F90DFF3E031D272B0310790D0C
:10065C00780477040838FF007F08F10000300A1294
:10066C008A11EB230A128A110800FA007D1D3F2B18
:10067C00402B452B6730F8000030F900492B4F30E8
:10068C00F8000030F9000310831203134E18031402
:10069C000030031801307807F50079080318790A3F
:1006AC00F6007608803AF70080307702031D602B45
:1006BC007A087502031C632B642B702BFD117A08CE
:1006CC008038FF007F08F10000300A128A11EB23FA
:1006DC000A128A110800FA00831203134A08F13E29
:1006EC00FF007F08FB00812BF50101300A128A11F3
:1006FC00A9220A128A11FF30FF007F08FA077A0A32
:10070C000319892B8A2B992B013083120313CC07E5
:10071C00FF304C07803AF9007B08803AF902031C41
:10072C00982B992B7A2B7B08803AF90083120313B0
:10073C004C08803AF9020318A42BA52BA92B7B0893
:10074C00FF007F08CC000800FA007608031DAF2BD1
:10075C00B12B0130B22B0030F70002300310F70D33
:10076C00FF3E031DB42B7508031DBD2BBF2B0130A1
:10077C00C02B0030F80003300310F80DFF3E031DB2
:10078C00C22B7A08031DCB2BCD2B0130CE2B003086
:10079C00F90003300310F90DFF3E031DD02B03109D
:1007AC00790D780477042038FF007F08F1000030C1
:1007BC000A128A11EB230A128A117508031DE72B02
:1007CC00E92B7D15EA2B7D110800F4000F30FF009A
:1007DC007F0883160313860574080319F62BF72B71
:1007EC00FC2B8312031388170813002C831203139A
:1007FC0008138813F0307105F20006080F397204E3
:10080C0086008816092C0A2C000083120313881208
:10081C000A128A111E220A128A117108F20004307F
:10082C000310F20DFF3E031D162CF0307205F30081
:10083C008312031306080F39730486008816262CBE
:10084C00272C00008312031388120A128A111E220D
:10085C000A128A11080083120313A4004E18372CB5
:10086C00382C462C4B08A000A101A01BA10320088A
:10087C00FF3EA50021080318013EFF3EA6004F2CA9
:10088C0001304A07A500A6010318A60ACA1F4F2C5F
:10089C00A603831203134D08A000A101A01BA10302
:1008AC0026082106031D5C2C25082006031D5F2C41
:1008BC00602C612CCA2C2408FF007F08F100013049
:1008CC000A128A11EB230A128A11831203134E1C8B
:1008DC00702C712C922C4D08A000A101A01BA1031F
:1008EC000F304C07A200A3010318A30ACC1F7F2CC6
:1008FC00A3038312031321082306031D872C20084E
:10090C002206031D8A2C8B2C922C01300A128A1180
:10091C0071230A128A11A22C4E18952C962CA22CFB
:10092C004D084C06031D9B2C9C2CA22C01300A124A
:10093C008A11D4220A128A11831203134E18A72C7F
:10094C00A82CAD2CFF30A700FF30A800B12C013033
:10095C00A7000030A8002708FF007F08CD07FD1C6A
:10096C00B82CB92CCA2C4E18BC2CBD2CC22CFF3068
:10097C00A900FF30AA00C62C0130A9000030AA0043
:10098C002908FF007F08CC07080083120313A70077
:10099C00831603138801831203132708031DD72C16
:1009AC00D92C0130DA2C0030FF007F08A7007B081F
:1009BC00031DE12CE32C0130E42C0030FF007F08F8
:1009CC00FB000F30FF007F0883160313860583128C
:1009DC000313081388132708A00003300310A00D7D
:1009EC00FF3E031DF42C7B08A10001300310A10D68
:1009FC00FF3E031DFC2C0310210D2004A20020300F
:100A0C002204A300F0302305A40006080F392404A7
:100A1C0086008816112D122D0000831203138812E4
:100A2C000A128A111E220A128A1183120313270832
:100A3C00A00003300310A00DFF3E031D202D7B08EA
:100A4C00A10001300310A10DFF3E031D282D031042
:100A5C00210D2004A20020302204A300F030230535
:100A6C00A40006080F392404860088163D2D3E2D5F
:100A7C0000008312031388120A128A111E220A1212
:100A8C008A11831203132708FF007F08F5007B08E7
:100A9C00FF007F08F60000300A128A11AA230A12FE
:100AAC008A11F501F60100300A128A1107230A1285
:100ABC008A110A128A1157220A128A11F501013081
:100ACC000A128A117F220A128A11F501F50AF6011F
:100ADC00F60A01300A128A1107230A128A112130F0
:100AEC0083120313A1007530A000A00B7B2DA10B6A
:100AFC007B2D802D83120313CB017D19862D872D21
:100B0C008C2D4F30A5000030A600902D2730A5006D
:100B1C000030A6002508FF007F08CA0008008316D5
:100B2C000313890188018701860185018312031350
:100B3C0089018801870186018501FB0100300A12B9
:100B4C008A11CB240A128A110030FD180130F500ED
:100B5C000310831203134E1C0314003003180130CE
:100B6C000A128A117F220A128A116130FF007F0853
:100B7C0083120313BD000A128A112C220A128A1145
:100B8C00831203134A08013EFF007F08B800062EAB
:100B9C003D080A128A1131240A128A110130FF0011
:100BAC007F0883120313BD07083083120313B600AA
:100BBC009D30B5000530B400B40BE22DB50BE22D21
:100BCC00B60BE22D6130831203133D02031CEF2D93
:100BDC00F02DF62D7B303D02031CF52DF62DFB2D53
:100BEC006130BB000030BC00022E3D08B400B501E2
:100BFC003408BB003508BC003B08FF007F08BD0073
:100C0C000130B802380A031D0C2E0D2ECE2D1A30D1
:100C1C0083120313B6005E30B5006D30B400B40B14
:100C2C00152EB50B152EB60B152E1C2E0A128A116D
:100C3C002C220A128A110A30FF007F088312031338
:100C4C00B9003E2EF50101300A128A11A9220A12AE
:100C5C008A110D3083120313B600AF30B500B530D6
:100C6C00B400B40B372EB50B372EB60B372E3E2EE9
:100C7C00013083120313B902390A031D462E472E85
:100C8C00282E0A128A113B220A128A111A30831258
:100C9C000313B6005E30B5006D30B400B40B542EA7
:100CAC00B50B542EB60B542E5B2E0A30FF007F086A
:100CBC0083120313BA00792EF501F50A01300A12DA
:100CCC008A11A9220A128A110D3083120313B6005D
:100CDC00AF30B500B530B400B40B722EB50B722E1C
:100CEC00B60B722E792E013083120313BA023A0A14
:100CFC00031D812E822E622E0A128A1157220A128D
:100D0C008A11BB2D0A128A11002883120313B30017
:100D1C0003104E1803140030031801304A07A000CA
:100D2C00A1010318A10ACA1F9C2EA1037C088312DF
:100D3C000313A200A301A21BA3032308803AA4005F
:100D4C002108803A2402031DAD2E20082202031C28
:100D5C00B02EB12EC22E0310831203134E1803149F
:100D6C000030031801304A07A700A8010318A80A8D
:100D7C00CA1FC12EA803C92E7C0883120313A70017
:100D8C00A801A71BA803831203133308031DCF2E3E
:100D9C00D02ED32EA901AA01D72E4030A9000030A5
:100DAC00AA00270829070A128A113B230A128A1162
:100DBC007D19E12EE22EE72E83120313AB01AC0159
:100DCC00F62E831203133308031DED2EEF2E013084
:100DDC00F02E0030A000A1012008AB002108AC00CF
:100DEC007D102B1CFA2E7D147C0883120313A0009B
:100DFC00A101A01BA1034B08A200A301A21BA303EA
:100E0C0003104E1C03140030031801302202A400FE
:100E1C002308031C2303A5002508803AA6002108FB
:100E2C00803A2602031D1C2F20082402031C1F2FAE
:100E3C00202F342F831203134B08A000A101A01BF9
:100E4C00A10303104E1C03140030031801302002C0
:100E5C00AF002108031C2103B0003B2F7C08831238
:100E6C000313AF00B001AF1BB00303104E180314F3
:100E7C000030031801304A07A000A1010318A10A91
:100E8C00CA1F492FA103831203133008803AA20012
:100E9C002108803A2202031D552F20082F02031C23
:100EAC00582F592F6A2F0310831203134E18031453
:100EBC000030031801304A07AD00AE010318AE0A2A
:100ECC00CA1F692FAE03AF2F7C0883120313A00037
:100EDC00A101A01BA1034B08A200A301A21BA30309
:100EEC0003104E1C03140030031801302202A4001E
:100EFC002308031C2303A5002508803AA60021081B
:100F0C00803A2602031D8C2F20082402031C8F2FED
:100F1C00902FA42F831203134B08A000A101A01B38
:100F2C00A10303104E1C03140030031801302002DF
:100F3C00B1002108031C2103B200AB2F7C088312E3
:100F4C000313B100B201B11BB2033208AE00310879
:100F5C00AD00831203132D08FF007F08CD004D0850
:100F6C00803AA0004C08803AA0020318BE2FBF2F75
:100F7C00C72F4D084C020A128A11D4220A128A1168
:100F8C00EE2F4D08A000A101A01BA1030F304C07B0
:100F9C00A200A3010318A30ACC1FD52FA30383120D
:100FAC0003132308803AA4002108803A2402031D6D
:100FBC00E12F200822020318E42FE52FEE2F8312D5
:100FCC0003134C084D020A128A1171230A128A115A
:100FDC000800FD0183120313CE0183133E308400FD
:100FEC004E300A128A1124220A128A1183010A1223
:040FFC008A11952D94
:02400E007A3FF7
:00000001FF
