:100000000A128A11EF2F00308A000408840A82073E
:10001000003425342E3431343634733400342534EE
:080020002E342A34663400344A
:100254004230F000F00B2C290000080064008001FB
:10026400840A04060319003404063129F101F10A51
:1002740000300A128A1102230A128A110D30F60084
:10028400FB30F500F50B4429F60B44294929831268
:100294000313DB01DC017D105C1C51297D14080073
:1002A4007D1C552956297529831203135C08FF0008
:1002B4007F08FC0003107D1803140030031801307C
:1002C400FF3EB400FF3003180030B5003408350495
:1002D400031D6D296F290130702900300A128A111B
:1002E4008B260A128A110800F8007D1D7A297B29C1
:1002F40080296730F6000030F70084294F30F6007B
:100304000030F7007708803AF50080307502031D4D
:100314008D2978087602031C902991299D29FD11C5
:1003240078088038FF007F08F10000300A128A1133
:1003340002230A128A110800F8007808013983128E
:1003440003135D10031D5D1475080139FD10031DB1
:10035400FD147508031DAF29B1290130B2290030FD
:10036400F6007808031DB729B9290130BA290030ED
:10037400F700770776040438FF007F08F1000030A7
:100384000A128A1102230A128A110800F800750859
:10039400031DCD29CF290130D0290030F6000230C9
:1003A4000310F60DFF3E031DD2297808031DDB2937
:1003B400DD290130DE290030F70002300310F70D8B
:1003C400FF3E031DE0290310770D76041038FF006B
:1003D4007F08F10000300A128A1102230A128A11DE
:1003E400080000307D19013083120313B40000307B
:1003F4007D180130B500340835020318022A032A97
:10040400202A5C08FF007F08FC0003107D180314F9
:10041400003003180130013EB400003003180130ED
:10042400B50034083504031D182A1A2A01301B2A82
:1004340000300A128A118B260A128A110800FA0067
:100444002B2AF501F50A01300A128A11C8210A1271
:100454008A11FF30FF007F08FA077A0A0319332A4A
:10046400342A432A831203135A08803AF900FF30CE
:10047400DB0701305B07803AF902031C422A432A56
:10048400232A831203135B08803AF9005A08803A3E
:10049400F90203184E2A4F2A532A5A08FF007F08EC
:1004A400DB000800FA007608031D592A5B2A013094
:1004B4005C2A0030F7007508031D612A632A0130A5
:1004C400642A0030F80001300310F80DFF3E031DCC
:1004D400662A7A08031D6F2A712A0130722A0030B5
:1004E400F90001300310F90DFF3E031D742A0310B7
:1004F400790D780477040838FF007F08F100003094
:100504000A128A1102230A128A110800FA008312BD
:1005140003135908F13EFF007F08FB00982AF501F8
:1005240001300A128A11C8210A128A11FF30FF0011
:100534007F08FA077A0A0319A02AA12AB02A0130EF
:1005440083120313DB07FF305B07803AF9007B0853
:10055400803AF902031CAF2AB02A912A7B08803A18
:10056400F900831203135B08803AF9020318BB2ACB
:10057400BC2AC02A7B08FF007F08DB000800FA00C1
:100584007608031DC62AC82A0130C92A0030F7009C
:1005940002300310F70DFF3E031DCB2A7508031D1F
:1005A400D42AD62A0130D72A0030F80003300310A9
:1005B400F80DFF3E031DD92A7A08031DE22AE42A16
:1005C4000130E52A0030F90003300310F90DFF3E35
:1005D400031DE72A0310790D780477042038FF00FF
:1005E4007F08F10000300A128A1102230A128A11CC
:1005F4007508031DFE2A002B7D15012B7D110800B3
:10060400F4000F30FF007F08831603138605740877
:1006140003190D2B0E2B132B8312031388170813A6
:10062400172B8312031308138813F0307105F2009B
:1006340006080F39720486008816202B212B00002F
:100644008312031388120A128A112A210A128A11A8
:100654007108F20004300310F20DFF3E031D2D2B30
:10066400F0307205F3008312031306080F39730484
:10067400860088163D2B3E2B00008312031388123C
:100684000A128A112A210A128A11080083120313FA
:10069400A4005D184E2B4F2B5D2B5A08A000A1011E
:1006A400A01BA1032008FF3EA50021080318013E5A
:1006B400FF3EA600662B01305907A500A6010318CA
:1006C400A60AD91F662BA603831203135C08A00095
:1006D400A101A01BA10326082106031D732B2508D5
:1006E4002006031D762B772B792B0814E22B240884
:1006F400FF007F08F10001300A128A1102230A1256
:100704008A11831203135D1C882B892BAA2B5C0886
:10071400A000A101A01BA1030F305B07A200A3014D
:100724000318A30ADB1F972BA303831203132108C7
:100734002306031D9F2B20082206031DA22BA32B97
:10074400AA2B01300A128A1188220A128A11BA2BA2
:100754005D18AD2BAE2BBA2B5C085B06031DB32BC7
:10076400B42BBA2B01300A128A1121220A128A11DF
:10077400831203135D18BF2BC02BC52BFF30A700BA
:10078400FF30A800C92B0130A7000030A8002708BB
:10079400FF007F08DC07FD1CD02BD12BE22B5D185A
:1007A400D42BD52BDA2BFF30A900FF30AA00DE2B87
:1007B4000130A9000030AA002908FF007F08DB07E8
:1007C400080083120313A7008316031388018312FE
:1007D40003132708031DEF2BF12B0130F22B0030FC
:1007E400FF007F08A7007B08031DF92BFB2B0130BA
:1007F400FC2B0030FF007F08FB000F30FF007F0858
:10080400831603138605831203130813881327081A
:10081400A00003300310A00DFF3E031D0C2C7B0829
:10082400A10001300310A10DFF3E031D142C031081
:10083400210D2004A20020302204A300F03023055F
:10084400A40006080F39240486008816292C2A2CB3
:1008540000008312031388120A128A112A210A1231
:100864008A11831203132708A00003300310A00D7C
:10087400FF3E031D382C7B08A10001300310A10D9D
:10088400FF3E031D402C0310210D2004A200203044
:100894002204A300F0302305A40006080F39240421
:1008A40086008816552C562C0000831203138812D8
:1008B4000A128A112A210A128A11831203132708A1
:1008C400FF007F08F5007B08FF007F08F60000307A
:1008D4000A128A11C1220A128A11F501F6010030A6
:1008E4000A128A1154220A128A110A128A11382110
:1008F4000A128A11F50101300A128A119E210A1284
:100904008A11F501F50AF601F60A01300A128A1174
:1009140054220A128A1183120313DA017D19932CCB
:10092400942C992C4F30A5000030A6009D2C273024
:10093400A5000030A6002508FF007F08D9000800A4
:100944008316031389018801870186018501FF301D
:1009540087008312031389018801870186018501B9
:10096400FB0101300A128A11E3230A128A11613051
:10097400FF007F0883120313CC00FC0100300A122D
:100984008A118B260A128A11252D613083120313D2
:100994004C02031CCE2CCF2CD52C7B304C02031CD8
:1009A400D42CD52CDA2C6130CA000030CB00E12CD9
:1009B4004C08C400C5014408CA004508CB004A08D5
:1009C400FF007F08CC004C080A128A1148230A123F
:1009D4008A110130FF007F0883120313CC070A1227
:1009E4008A11F3210A128A11083083120313C600F4
:1009F4009D30C5000530C400C40BFE2CC50BFE2C75
:100A0400C60BFE2C831203134C080A128A114823C6
:100A14000A128A110130FF007F0883120313CC07E6
:100A24000A128A1152210A128A11083083120313FE
:100A3400C6009D30C5000530C400C40B1F2DC50B76
:100A44001F2DC60B1F2D0130831203135907C40039
:100A5400C5010318C50AD91F302DC503831203131A
:100A64005C08C600C701C61BC7034708803AC80014
:100A74004508803A4802031D412D44084602031CE0
:100A8400442D452DC72C831203135A08FF007F08F9
:100A9400B4005908FF007F08B5000430FF007F0848
:100AA400B60001300A128A1168250A128A110A1244
:100AB4008A1138210A128A116130FF007F088312DB
:100AC4000313CC00252D0A128A1100288312031364
:100AD400BA003508803AB7003408803AB7020318E0
:100AE400742D752D762D8A2E3408803AB7005A0855
:100AF400803AB702031C7F2D802D862D3408BB005D
:100B0400BC01BB1BBC038B2D5A08BB00BC01BB1B27
:100B1400BC033B08FF007F08B4003508803AB700E7
:100B24005908803AB702031C982D992D9F2D590816
:100B3400BD00BE01BD1BBE03A42D3508BD00BE0112
:100B4400BD1BBE033D08FF007F08B5003408350215
:100B5400B700B801031CB803B51FB12DB803831245
:100B64000313B41FB62DB80A831203133808803A4E
:100B7400FF0080307F02031DC12D1030370203189F
:100B8400C42DC52DCC2D0F3083120313BF000030AC
:100B9400C000DC2D8312031334083502BF00C001EA
:100BA400031CC003B51FD72DC00383120313B41F46
:100BB400DC2DC00A831203133F08F13EFF007F08B7
:100BC400C1003408FF007F08FC0000307D180130AC
:100BD4000A128A118B260A128A11722E0D30831280
:100BE4000313B900AF30B800B530B700B70BF82D18
:100BF400B80BF82DB90BF82DFF2D83120313410800
:100C0400FF007F08C2002A2E01300A128A118822AE
:100C14000A128A11831203133608FF007F08C300E7
:100C2400212E023083120313B9004530B800A930D5
:100C3400B700B70B1B2EB80B1B2EB90B1B2E0130A4
:100C440083120313C302430A031D292E2A2E132ED3
:100C54000130C202420A031D302E312E062E0D3001
:100C640083120313B900AF30B800B530B700B70B27
:100C7400392EB80B392EB90B392E402E831203139B
:100C84004108FF007F08C2006B2E01300A128A114E
:100C940021220A128A11831203133608FF007F08E7
:100CA400C300622E023083120313B9004530B8002A
:100CB400A930B700B70B5C2EB80B5C2EB90B5C2EB9
:100CC400013083120313C302430A031D6A2E6B2EE1
:100CD400542E0130C202420A031D712E722E472E79
:100CE400013083120313BA023A0A031D7A2E7B2EB3
:100CF400F02D0D3083120313B900AF30B800B530B6
:100D0400B700B70B832EB80B832EB90B832E8A2E14
:100D1400080083120313B30003105D18031400309A
:100D2400031801305907A000A1010318A10AD91F13
:100D34009C2EA1037C0883120313A200A301A21B0F
:100D4400A3032308803AA4002108803A2402031D47
:100D5400AD2E20082202031CB02EB12EC22E031089
:100D6400831203135D18031400300318013059076C
:100D7400A700A8010318A80AD91FC12EA803C92EC9
:100D84007C0883120313A700A801A71BA8038312DE
:100D940003133308031DCF2ED02ED32EA901AA018D
:100DA400D72E4030A9000030AA00270829070A12CC
:100DB4008A1176210A128A117D19E12EE22EE72E7C
:100DC40083120313AB01AC01F62E83120313330811
:100DD400031DED2EEF2E0130F02E0030A000A101F6
:100DE4002008AB002108AC007D102B1CFA2E7D14CA
:100DF4007C0883120313A000A101A01BA1035A08BD
:100E0400A200A301A21BA30303105D1C0314003062
:100E1400031801302202A4002308031C2303A500A5
:100E24002508803AA6002108803A2602031D1C2FBB
:100E340020082402031C1F2F202F342F8312031396
:100E44005A08A000A101A01BA10303105D1C0314F8
:100E54000030031801302002AF002108031C2103D5
:100E6400B0003B2F7C0883120313AF00B001AF1B0B
:100E7400B00303105D180314003003180130590740
:100E8400A000A1010318A10AD91F492FA1038312AD
:100E940003133008803AA2002108803A2202031D7D
:100EA400552F20082F02031C582F592F6A2F031087
:100EB400831203135D18031400300318013059071B
:100EC400AD00AE010318AE0AD91F692FAE03AF2FD0
:100ED4007C0883120313A000A101A01BA1035A08DC
:100EE400A200A301A21BA30303105D1C0314003082
:100EF400031801302202A4002308031C2303A500C5
:100F04002508803AA6002108803A2602031D8C2F6A
:100F140020082402031C8F2F902FA42F8312031365
:100F24005A08A000A101A01BA10303105D1C031417
:100F34000030031801302002B1002108031C2103F2
:100F4400B200AB2F7C0883120313B100B201B11BB2
:100F5400B2033208AE003108AD00831203132D082A
:100F6400FF007F08DC005C08803AA0005B08803A40
:100F7400A0020318BE2FBF2FC72F5C085B020A1202
:100F84008A1121220A128A11EE2F5C08A000A10105
:100F9400A01BA1030F305B07A200A3010318A30A3F
:100FA400DB1FD52FA303831203132308803AA40065
:100FB4002108803A2402031DE12F2008220203188D
:100FC400E42FE52FEE2F831203135B085C020A1251
:100FD4008A1188220A128A110800FD018312031360
:100FE400DD0183134D3084005D300A128A113021F3
:0C0FF4000A128A1183010A128A11A22C31
:02400E00FA3F77
:00000001FF
