:100000000A128A11EE2FFF0000308A007F08820753
:0800100008280A128A111E2EB5
:100AB400003401344230F000F00B5E2D00000800D9
:100AC400F6007608F5007507740404380A128A11D2
:100AD40059260A128A11080001300A128A1159266D
:100AE4000A128A110D30F500FB30F400F40B782D56
:100AF400F50B782D7D2D0800F8007408F600013000
:100B04000310F60DFF3E031D822D7808F700013017
:100B14000310F70DFF3E031D8A2D0310770D760495
:100B2400750408380A128A1159260A128A11080013
:100B3400F7007C0803199F2DA02DA52D6730F50023
:100B44000030F600A92D4F30F5000030F60076088D
:100B5400803AF40080307402031DB22D77087502C8
:100B6400031CB52DB62DBE2DFD01770880380A1261
:100B74008A1159260A128A110800F9007508F6002C
:100B840002300310F60DFF3E031DC32D7408F70059
:100B940003300310F70DFF3E031DCB2D7908F80039
:100BA40003300310F80DFF3E031DD32D0310780D01
:100BB4007704760420380A128A1159260A128A11F7
:100BC4007408FF007F08FC00080083120313AA00C6
:100BD4007C08031DEE2DEF2DF42D4F30A7000030BF
:100BE400A800F82D2730A7000030A8002708FF0030
:100BF4007F08A900F8012A080A128A1195260A1208
:100C04008A110D2E2030FF007F08F1000A128A118C
:100C14001E260A128A11013083120313A902290A1B
:100C2400031D152E162E042EF8012A080A128A1105
:100C340095260A128A1108000F30FF007F088316D8
:100C4400031386058312031388170813F030710504
:100C5400F20006080F39720486008816312E322EEF
:100C640000008312031388120A128A115C250A12E7
:100C74008A117108F20004300310F20DFF3E031DC7
:100C84003E2EF0307205F3008312031306080F3969
:100C94007304860088164E2E4F2E00008312031311
:100CA40088120A128A115C250A128A110800F300BC
:100CB4000F30FF007F088316031386058312031386
:100CC40008138813F0307305F10006080F39710416
:100CD400860088166D2E6E2E000083120313881270
:100CE4000A128A115C250A128A117308F100043071
:100CF4000310F10DFF3E031D7A2EF0307105F20052
:100D04008312031306080F397204860088168A2E8C
:100D14008B2E00008312031388120A128A115C2599
:100D24000A128A11080083120313A0007C03031D16
:100D34009C2E9D2EC32E27307802031CA22EA32E98
:100D4400A82E2730A1000030A200AF2E7808F900A9
:100D5400FA017908A1007A08A2002008031DB32E25
:100D6400B42EB72EA301A401BB2E4030A300003043
:100D7400A400210823070A128A119A250A128A114B
:100D8400DB2E4F307802031CC82EC92ECE2E4F30D6
:100D9400A5000030A600D52E7808F900FA017908DC
:100DA400A5007A08A60025080A128A119A250A12B3
:100DB4008A110800831603138901880187018601BB
:100DC4008501831203138901880187018601850146
:100DD400FA01FA0A01300A128A115F270A128A11EB
:100DE40083120313B101F80100300A128A11952607
:100DF4000A128A116130FF007F0883120313B000C6
:100E04000A30AE000030AF00262F30088038FF00D3
:100E14007F08F1000A128A111E260A128A11013073
:100E2400FF007F0883120313B0070D3083120313EE
:100E3400AD00AF30AC00B530AB00AB0B1F2FAC0B2B
:100E44001F2FAD0B1F2F262FFF3083120313AE0766
:100E54000318AF0AFF30AF072E0A031D352F2F0AE0
:100E6400031D352F362F072FF801310803193B2FA7
:100E74003D2F01303E2F0030FF007F08B1003108C4
:100E8400031D452F472F0130482F00300A128A11C5
:100E940095260A128A11831203133108031D532F56
:100EA400552F0130562F00300A128A11E7250A12F5
:100EB4008A11FC2E0A128A110028FB0083160313E0
:100EC40088010F30FF007F0886058312031308137F
:100ED40088137B08A00003300310A00DFF3E031D00
:100EE4006E2F7A08A10001300310A10DFF3E031DEF
:100EF400762F0310210D2004A20020302204A30029
:100F0400F0302305A40006080F392404860088164F
:100F14008B2F8C2F00008312031388120A128A115C
:100F24005C250A128A117B0883120313A000033084
:100F34000310A00DFF3E031D9A2F7A08A100013073
:100F44000310A10DFF3E031DA22F0310210D200449
:100F5400A20020302204A300F0302305A4000608D8
:100F64000F39240486008816B72FB82F0000831287
:100F7400031388120A128A115C250A128A117B084B
:100F8400FF007F08F4007A08FF007F08F5000030B6
:100F94000A128A11BF250A128A11F401F5010030E0
:100FA4000A128A117E250A128A110A128A116E25E2
:100FB4000A128A11F40101300A128A1162250A12F6
:100FC4008A11F401F40AF501F50A01300A128A11B2
:100FD4007E250A128A1108000A128A115A250A1259
:100FE4008A11B2000A128A115B250A128A11B3000F
:0C0FF400FC01FD0183010A128A11DC2EB1
:02400E00FA3F77
:00000001FF
