:100000000A128A11F02F00308A000408840A82073D
:100010000034003425342E34313436347334003413
:0A00200025342E342A3466340034EF
:1004B4004230F000F00B5C2A000008006400800168
:1004C400840A0406031900340406612AF101F10ABE
:1004D40000300A128A1182220A128A110D30F400A5
:1004E400FB30F300F30B742AF40B742A792A831279
:1004F4000313C501C6014710461C812A471408008E
:10050400F200831603138601720803198A2A8B2AC0
:10051400902A8312031388170813942A831203134F
:1005240008138813710886008816982A992A0000EF
:100534008312031388120A128A115A220A128A1188
:100544000800F700AD2AF301F30A01300A128A11F8
:100554001F230A128A11FF30F70701307707803A08
:100564007F3E031CB62AB72AC32AFF308312031323
:10057400C50701304507803A7F3E0318C22AC32AC3
:10058400A52A83120313C51FC82AC92ACA2AC5016A
:100594000800F60076080139831203134711031D7E
:1005A400471573080139C710031DC7147308031DC9
:1005B400DC2ADE2A0130DF2A0030F4007608031D2D
:1005C400E42AE62A0130E72A0030F50075077404AE
:1005D4000438FF007F08F10000300A128A118222D9
:1005E4000A128A110800831203134308013EFF0014
:1005F4007F08FD00FC010030471801300A128A11FF
:100604003C270A128A110C2B20300A128A11012667
:100614000A128A110130FD027D0A031D122B132BCD
:10062400062BFC01003083120313471801300A1211
:100634008A113C270A128A110800F6007308031D68
:10064400242B262B0130272B0030F400023003101A
:10065400F40DFF3E031D292B7608031D322B342B8A
:100664000130352B0030F50002300310F50DFF3E4C
:10067400031D372B0310750D74041038FF007F0819
:10068400F10000300A128A1182220A128A1108002B
:10069400F60083120313C71D502B512B562B6730C2
:1006A400F4000030F5005A2B4F30F4000030F50010
:1006B4007508803AF30080307302031D632B7608BB
:1006C4007402031C662B672B752B831203134712CA
:1006D40076088038FF007F08F10000300A128A1182
:1006E40082220A128A110800F8007408031D7B2B69
:1006F4007D2B01307E2B0030F5007308031D832B06
:10070400852B0130862B0030F60001300310F60DE6
:10071400FF3E031D882B7808031D912B932B01307A
:10072400942B0030F70001300310F70DFF3E031D3A
:10073400962B0310770D760475040838FF007F08A4
:10074400F10000300A128A1182220A128A1108006A
:10075400F8007408031DAF2BB12B0130B22B00300D
:10076400F50002300310F50DFF3E031DB42B730892
:10077400031DBD2BBF2B0130C02B0030F60003300E
:100784000310F60DFF3E031DC22B7808031DCB2B6F
:10079400CD2B0130CE2B0030F70003300310F70DC2
:1007A400FF3E031DD02B0310770D7604750420380B
:1007B400FF007F08F10000300A128A1182220A1217
:1007C4008A117308031DE72BEB2B83120313C71540
:1007D400EE2B83120313C7110800FA0083120313CC
:1007E4004308F13EFF007F08FB00FF2BF3010130BB
:1007F4000A128A111F230A128A11FF30FA070130E4
:100804007A07803A7F3E031C082C092C202C0130E7
:1008140083120313C507FF304507F700F801F71BE0
:10082400F8037808803AF90080307902031D1C2C03
:100834007B087702031C1F2C202CF82B8312031334
:100844004508F700F801F71BF8037808803A803C64
:10085400031D2E2C770843020318312C322C382C1C
:10086400831203134308FF007F08C5000800FC003F
:100874008316031388017C08031D412C432C01308B
:10088400442C0030FF007F08FC007908031D4B2C2A
:100894004D2C01304E2C0030FF007F08F9007C08FD
:1008A400FF007F08F3007908FF007F08F40001309F
:1008B4000A128A11AA230A128A117C08FF007F08EF
:1008C400F3007908FF007F08F40001300A128A114E
:1008D400AA230A128A11F301F40100300A128A11C0
:1008E40076230A128A110A128A1168220A128A11BC
:1008F400F30101300A128A11CB220A128A11F30180
:10090400F30AF401F40A01300A128A1176230A1256
:100914008A1183120313C401C719912C922C972CAA
:100924004F30FA000030FB009B2C2730FA000030D7
:10093400FB007A08FF007F08C3000800831203133A
:10094400AD004719A62CA72CAF2C4308AB00AC0173
:100954002B08AE002C08AF00B62C4408AB00AC0149
:100964002B08AE002C08AF002E08FF007F08B00053
:10097400F3010310471D03140030031801300A1259
:100984008A11CB220A128A11CD2C20300A128A1124
:1009940001260A128A11FF3083120313AD070130B6
:1009A4002D07803A7F3E031CD82CD92CE52C460811
:1009B400AB00AC01AB1BAC0330082B062C04031DAD
:1009C400E42CE52CC72C20300A128A1101260A12C5
:1009D4008A11F301031083120313471D031400301B
:1009E400031801300A128A11CB220A128A118312C7
:1009F4000313471DFE2CFF2C062D01300A128A1109
:100A04000D250A128A110C2D01300A128A1186252D
:100A14000A128A110800FC004C2DF301F30A00307D
:100A24000A128A111F230A128A1183120313460819
:100A3400A000A101A01BA1030E304507A200A30141
:100A44000318A30AC51F272DA30383120313210828
:100A54002306031D2F2D20082206031D322D332DBE
:100A64004C2D422DF301F30A00300A128A111F2380
:100A74000A128A1101300A128A11EF230A128A110A
:100A8400FF30FF007F08FC077C0A031D4A2D4B2D15
:100A9400342D0E2DFF30FC0701307C07803A7F3E59
:100AA400031C552D562D6D2D013083120313C607DB
:100AB400FF304607A000A101A01BA1032108803A32
:100AC400A20080302202031D692D43082002031C6A
:100AD4006C2D6D2D0F2D831203134608A000A10168
:100AE400A01BA1032108803A803C031D7B2D200814
:100AF400430203187E2D7F2D852D83120313430893
:100B0400FF007F08C6000800FD00C72DF301003078
:100B14000A128A111F230A128A1101308312031345
:100B24004507F800F9010318F90AC51F9A2DF903BE
:100B3400831203134608FA00FB01FA1BFB037B082C
:100B4400803AFC007908803A7C02031DAB2D7808BA
:100B54007A020318AE2DAF2DC72DBD2DF301003041
:100B64000A128A111F230A128A1101300A128A11E9
:100B7400A3220A128A11FF30FF007F08FD077D0AB5
:100B8400031DC52DC62DB02D872DFF30FD07013067
:100B94007D07803A7F3E031CD02DD12DE62DFF30FA
:100BA40083120313C60701304607F800F901F81B46
:100BB400F9037908803A803C031DE22D7808440249
:100BC400031CE52DE62D882D831203134608F80037
:100BD400F901F81BF9037908803AFA0080307A02A7
:100BE400031DF62D440878020318F92DFA2D002E62
:100BF400831203134408FF007F08C6000800831211
:100C04000313A4004719072E082E102E4408013E92
:100C1400A500003003180130A600172E4308FF3E3C
:100C2400A500FF3003180030A6004608A000A1016B
:100C3400A01BA10326082106031D222E2508200639
:100C4400031D252E262E282E0814912E2408FF007D
:100C54007F08F10001300A128A1182220A128A11D5
:100C640083120313471D372E382E592E4608A00031
:100C7400A101A01BA1030F304507A200A301031883
:100C8400A30AC51F462EA3038312031321082306B8
:100C9400031D4E2E20082206031D512E522E592EBE
:100CA40001300A128A11EF230A128A11692E471998
:100CB4005C2E5D2E692E46084506031D622E632EAA
:100CC400692E01300A128A11A3220A128A11831290
:100CD400031347196E2E6F2E742EFF30A700FF30BA
:100CE400A800782E0130A7000030A8002708FF00D4
:100CF4007F08C607C71C7F2E802E912E4719832E8E
:100D0400842E892EFF30A900FF30AA008D2E0130D9
:100D1400A9000030AA002908FF007F08C5070800C1
:100D24008316031389018801870186018501FF3039
:100D340087008312031389018801870186018501D5
:100D4400F90101300A128A1139240A128A11613018
:100D5400FF007F0883120313B600FC0100300A125F
:100D64008A113C270A128A118312031307080319F4
:100D7400BC2EBD2EB62E071CC02EC12EEA2E61300D
:100D84003602031CC62EC72ECD2E7B303602031C22
:100D9400CC2ECD2ED22E6130B4000030B500D92E29
:100DA4003608B100B2013108B4003208B500340885
:100DB400FF007F08B60036080A128A1101260A12BB
:100DC4008A110130FF007F0883120313B607312F05
:100DD400871CED2EEE2EF72E0130B60201300A12DA
:100DE4008A11A0240A128A11312F071DFA2EFB2E14
:100DF400052F6130FF007F08B6000A128A11F52220
:100E04000A128A11312F871D082F092F102F013044
:100E14000A128A1186250A128A11312F071E132FEE
:100E2400142F1B2F01300A128A110D250A128A1160
:100E3400312F871E1E2F1F2F262F01300A128A11D1
:100E4400EF230A128A11312F071F292F2A2F312F3E
:100E540001300A128A11A3220A128A11312F831235
:100E640003130708031D372F382F312FB62E0A120C
:100E74008A11002883120313AF00C719422F432F8E
:100E8400462FA501A601532F2F08031D4A2F4C2FCF
:100E940001304D2F0030A000A1012008A500210839
:100EA400A6004710251C572F471483120313430829
:100EB4007C02031C5E2F5F2F672F4308A000A10153
:100EC4002008A7002108A8006E2F7C08A000A1011B
:100ED4002008A7002108A8002708FF007F08C600F3
:100EE4004608803AA0004508803AA00203187B2FE8
:100EF4007C2F842F460845020A128A11EF230A1216
:100F04008A11AB2F4608A000A101A01BA1030F303A
:100F14004507A200A3010318A30AC51F922FA30328
:100F2400831203132308803AA4002108803A240280
:100F3400031D9E2F200822020318A12FA22FAB2FDE
:100F440083120313450846020A128A11A3220A12C5
:100F54008A1183120313C71DB02FB12FD72F273047
:100F64007C02031CB62FB72FBC2F2730A9000030FA
:100F7400AA00C32F7C08A000A1012008A900210811
:100F8400AA002F08031DC72FC82FCB2FAB01AC011C
:100F9400CF2F4030AB000030AC0029082B070A12D9
:100FA4008A114A230A128A11EF2F4F307C02031C44
:100FB400DC2FDD2FE22F4F30AD000030AE00E92FE3
:100FC4007C08A000A1012008AD002108AE002D0876
:100FD4000A128A114A230A128A110800831203137F
:100FE400C70183133730840047300A128A11602204
:0C0FF4000A128A1183010A128A11922E3F
:02400E00FA3F77
:00000001FF
