:100000000A128A11F02FFF1B0D2883137F18831704
:100010000008840A0319FF0A080000308A00040857
:10002000840A82070034483465346C346C346F348D
:10003000203457346F3472346C34643421340034D7
:1000400025342E34313436347334003425342E3490
:060050002A34663400347E
:1001C2004230F000F00BE3280000080064008001D8
:1001D200840A0406031900340406E8280030831256
:1001E20003135A1801300A128A1132230A128A1191
:1001F200FA010030831203135A1801300A128A11CD
:100202008E260A128A110800F101F10A00300A1240
:100212008A111F210A128A110D30F400FB30F300FB
:10022200F30B1129F40B1129162983120313D80198
:10023200D9015A10591C1E295A140800F2008316BB
:100242000313860172080319272928292D298312ED
:100252000313881708133129831203130813881311
:100262007108860088163529362900008312031387
:1002720088120A128A11E1200A128A1108008312D6
:1002820003135A1C4529462963295908FF007F0890
:10029200FA0003105A180314003003180130FF3E0D
:1002A200FB00FF3003180030FC007B087C04031DB8
:1002B2005B295D2901305E2900300A128A118E26DF
:1002C2000A128A110800F600760801398312031314
:1002D2005A11031D5A1573080139DA10031DDA1475
:1002E2007308031D75297729013078290030F4003D
:1002F2007608031D7D297F29013080290030F50011
:10030200750774040438FF007F08F10000300A12F8
:100312008A111F210A128A110800F6007308031DB0
:1003220093299529013096290030F40002300310F8
:10033200F40DFF3E031D98297608031DA129A32968
:100342000130A4290030F50002300310F50DFF3E04
:10035200031DA6290310750D74041038FF007F08D1
:10036200F10000300A128A111F210A128A110800B4
:10037200003083120313DA190130FB0000305A18DF
:100382000130FC007B087C020318C829C929E62930
:100392005908FF007F08FA0003105A1803140030AE
:1003A20003180130013EFB00003003180130FC004D
:1003B2007B087C04031DDE29E0290130E12900309D
:1003C2000A128A118E260A128A1108008312031356
:1003D2002708A9002808AA00042A2A08FF002908D9
:1003E20084000A128A1103200A128A110A128A113F
:1003F200F1230A128A11013083120313A907031889
:10040200AA0A0030AA072A08FF00290884000A1253
:100412008A1103200A128A11003A031D112A122A94
:10042200EE29270829020800F8001F2AF301F30A1F
:1004320001300A128A118E210A128A11FF30FF003E
:100442007F08F807780A0319272A282A372A8312ED
:1004520003135708803AF700FF30D80701305807D6
:10046200803AF702031C362A372A172A831203130B
:100472005808803AF7005708803AF7020318422AD0
:10048200432A472A5708FF007F08D8000800F800CF
:100492007408031D4D2A4F2A0130502A0030F500FE
:1004A2007308031D552A572A0130582A0030F600D6
:1004B20001300310F60DFF3E031D5A2A7808031D72
:1004C200632A652A0130662A0030F70001300310E2
:1004D200F70DFF3E031D682A0310770D760475049D
:1004E2000838FF007F08F10000300A128A111F212C
:1004F2000A128A110800F80083120313DA1D822AF5
:10050200832A882A6730F6000030F7008C2A4F30A1
:10051200F6000030F70003105A19031400300318D4
:1005220001307607F30077080318770AF40074089D
:10053200803AF50080307502031DA12A7808730203
:10054200031CA42AA52AB32A831203135A12780879
:100552008038FF007F08F10000300A128A111F2143
:100562000A128A110800F800831203135608F13E9A
:10057200FF007F08F900C42AF30101300A128A1130
:100582008E210A128A11FF30FF007F08F807780ACD
:100592000319CC2ACD2ADC2A013083120313D8078F
:1005A200FF305807803AF7007908803AF702031CB7
:1005B200DB2ADC2ABD2A7908803AF700831203136A
:1005C2005808803AF7020318E72AE82AEC2A790841
:1005D200FF007F08D8000800F8007408031DF22A03
:1005E200F42A0130F52A0030F50002300310F50D2F
:1005F200FF3E031DF72A7308031D002B022B013057
:10060200032B0030F60003300310F60DFF3E031DEE
:10061200052B7808031D0E2B102B0130112B0030F7
:10062200F70003300310F70DFF3E031D132B0310D9
:10063200770D760475042038FF007F08F100003042
:100642000A128A111F210A128A117308031D2A2B0A
:100652002E2B83120313DA15312B83120313DA11B3
:10066200080083120313B40000305A180130B70097
:100672005908FF007F08B8005608013EFF007F08B6
:10068200B9003408031D462B472B4A2BB501B6018E
:100692004E2B4030B5000030B60035080A128A11E0
:1006A2007C220A128A115F2B2030FF007F08F100A2
:1006B20001300A128A111F210A128A11FF30FF002B
:1006C2007F0883120313B907390A031D692B6A2BAA
:1006D200552B3808FF007F08FA003708031D722BDC
:1006E200742B0130752B00300A128A118E260A12E1
:1006F2008A11080083120313A200831603138801D0
:10070200831203132208031D872B892B01308A2BA6
:100712000030FF007F08A2007908031D912B932B64
:100722000130942B0030FF007F08F9002208FF00FF
:100732007F08F3007908FF007F08F40001300A12F5
:100742008A11ED220A128A11831203132208FF0072
:100752007F08F3007908FF007F08F40001300A12D5
:100762008A11ED220A128A11F301F40100300A12F1
:100772008A1148220A128A110A128A1105210A12C2
:100782008A11F30101300A128A1164210A128A11B4
:10079200F301F30AF401F40A01300A128A11482221
:1007A2000A128A112130FB007630FA00FA0BD72B9D
:1007B200FB0BD72B000083120313D701DA19E22BAC
:1007C200E32BE82B4F30A0000030A100EC2B2730A8
:1007D200A0000030A1002008FF007F08D60008001A
:1007E20083120313A0005A19F72BF82B062C570873
:1007F200FA00FB01FA1BFB037A08FF3EA1007B080B
:100802000318013EFF3EA2000F2C01305607A10043
:10081200A2010318A20AD61F0F2CA20383120313EC
:100822005908FA00FB01FA1BFB0322087B06031D91
:100832001C2C21087A06031D1F2C202C212C8A2C0B
:100842002008FF007F08F10001300A128A111F21DF
:100852000A128A11831203135A1D302C312C502C88
:100862005908FA00FB01FA1BFB030F305807FC0082
:10087200FD010318FD0AD81F3F2CFD037B087D06EE
:10088200031D452C7A087C06031D482C492C502C4C
:1008920001300A128A11B4220A128A11622C8312BE
:1008A20003135A19552C562C622C59085806031D4D
:1008B2005B2C5C2C622C01300A128A1115220A125E
:1008C2008A11831203135A19672C682C6D2CFF307E
:1008D200A300FF30A400712C0130A3000030A4005B
:1008E2002308FF007F08D907DA1C782C792C8A2C80
:1008F2005A197C2C7D2C822CFF30A500FF30A600DB
:10090200862C0130A5000030A6002508FF007F08D4
:10091200D80708008316031389018801870186011D
:1009220085018312031389018801870186018501EC
:10093200F90101300A128A117B230A128A116130ED
:10094200FF007F0883120313C9000A128A11EF20E5
:100952000A128A11013083120313A7008030A80003
:100962000A128A11E7210A128A117F3083120313B5
:10097200C300D430C2003130C100C10BBE2CC20B47
:10098200BE2CC30BBE2C0A128A11EF200A128A1146
:10099200282D6130831203134902031CD12CD22C5F
:1009A200D82C7B304902031CD72CD82CDD2C61308B
:1009B200C7000030C800E42C4908C100C201410848
:1009C200C7004208C8004708FF007F08C90049085D
:1009D2000A128A11F1230A128A110130FF007F08DC
:1009E20083120313C9070A128A11B9210A128A1142
:1009F2000B3083120313C3002630C2005D30C100E6
:100A0200C10B012DC20B012DC30B012D8312031348
:100A120049080A128A11F1230A128A110130FF00D1
:100A22007F0883120313C9070A128A1140210A128E
:100A32008A110B3083120313C3002630C2005D30CB
:100A4200C100C10B222DC20B222DC30B222D01305E
:100A5200831203135607C100C2010318C20AD61F2C
:100A6200332DC203831203135908C300C401C31BED
:100A7200C4034408803AC5004208803A4502031D77
:100A8200442D41084302031C472D482DCA2C8312D2
:100A920003135708FF007F08FB005608FF007F087A
:100AA200FC000530FF007F08FD0001300A128A11A8
:100AB2006B250A128A110A128A1105210A128A1159
:100AC2006130FF007F0883120313C900282D0A1228
:100AD2008A11002883120313B7007C08803AB400FD
:100AE2007B08803AB4020318772D782D792D8D2E4C
:100AF2007B08803AB4005708803AB402031C822D66
:100B0200832D892D7B08B800B901B81BB9038E2D3E
:100B12005708B800B901B81BB9033808FF007F08AD
:100B2200FB007C08803AB4005608803AB402031CE9
:100B32009B2D9C2DA22D5608BA00BB01BA1BBB03EC
:100B4200A72D7C08BA00BB01BA1BBB033A08FF0001
:100B52007F08FC007B087C02B400B501031CB503CE
:100B6200FC1FB42DB503FB1FB92D83120313B50A65
:100B7200831203133508803AFF0080307F02031D81
:100B8200C42D103034020318C72DC82DCF2D0F30BD
:100B920083120313BC000030BD00DF2D7B087C02F2
:100BA20083120313BC00BD01031CBD03FC1FDA2D1D
:100BB200BD03FB1FDF2D83120313BD0A8312031330
:100BC2003C08F13EFF007F08BE007B08FF007F0863
:100BD200FA0000305A1801300A128A118E260A12BF
:100BE2008A11752E0D3083120313B600AF30B50093
:100BF200B530B400B40BFB2DB50BFB2DB60BFB2DA2
:100C0200022E831203133E08FF007F08BF002D2E21
:100C120001300A128A11B4220A128A117D08FF00D9
:100C22007F0883120313C000242E023083120313A1
:100C3200B6004530B500A930B400B40B1E2EB50B7A
:100C42001E2EB60B1E2E013083120313C002400A61
:100C5200031D2C2E2D2E162E0130BF023F0A031D1E
:100C6200332E342E092E0D3083120313B600AF300B
:100C7200B500B530B400B40B3C2EB50B3C2EB60B10
:100C82003C2E432E831203133E08FF007F08BF0051
:100C92006E2E01300A128A1115220A128A117D085B
:100CA200FF007F0883120313C000652E02308312F7
:100CB2000313B6004530B500A930B400B40B5F2E63
:100CC200B50B5F2EB60B5F2E013083120313C002E9
:100CD200400A031D6D2E6E2E572E0130BF023F0AB1
:100CE200031D742E752E4A2E013083120313B70290
:100CF200370A031D7D2E7E2EF32D0D308312031332
:100D0200B600AF30B500B530B400B40B862EB50BCB
:100D1200862EB60B862E8D2E080083120313B30087
:100D220003105A1903140030031801305607A000AB
:100D3200A1010318A10AD61F9F2EA1037A088312CC
:100D42000313A200A301A21BA3032308803AA40059
:100D52002108803A2402031DB02E20082202031C1F
:100D6200B32EB42EC52E0310831203135A19031483
:100D72000030031801305607A700A8010318A80A7B
:100D8200D61FC42EA803CC2E7A0883120313A70001
:100D9200A801A71BA803831203133308031DD22E35
:100DA200D32ED62EA901AA01DA2E4030A900003096
:100DB200AA00270829070A128A117C220A128A111C
:100DC20083120313DA19E62EE72EEA2EAB01AC01E9
:100DD200F72E3308031DEE2EF02E0130F12E0030D7
:100DE200A000A1012008AB002108AC005A102B1C66
:100DF200FB2E5A147A0883120313A000A101A01B30
:100E0200A1035708A200A301A21BA30303105A1DAA
:100E120003140030031801302202A4002308031C2B
:100E22002303A5002508803AA6002108803A26025D
:100E3200031D1D2F20082402031C202F212F352FD4
:100E4200831203135708A000A101A01BA1030310E2
:100E52005A1D03140030031801302002AF0021088C
:100E6200031C2103B0003C2F7A0883120313AF0046
:100E7200B001AF1BB00303105A190314003003185A
:100E820001305607A000A1010318A10AD61F4A2F5C
:100E9200A103831203133008803AA2002108803A8A
:100EA2002202031D562F20082F02031C592F5A2FEE
:100EB2006B2F0310831203135A1903140030031803
:100EC20001305607AD00AE010318AE0AD61F6A2FD5
:100ED200AE03B02F7A0883120313A000A101A01B56
:100EE200A1035708A200A301A21BA30303105A1DCA
:100EF20003140030031801302202A4002308031C4B
:100F02002303A5002508803AA6002108803A26027C
:100F1200031D8D2F20082402031C902F912FA52F33
:100F2200831203135708A000A101A01BA103031001
:100F32005A1D03140030031801302002B1002108A9
:100F4200031C2103B200AC2F7A0883120313B100F1
:100F5200B201B11BB2033208AE003108AD008312F8
:100F620003132D08FF007F08D9005908803AA0001A
:100F72005808803AA0020318BF2FC02FC82F590863
:100F820058020A128A1115220A128A11EF2F5908E1
:100F9200A000A101A01BA1030F305807A200A301CA
:100FA2000318A30AD81FD62FA303831203132308FF
:100FB200803AA4002108803A2402031DE22F20086F
:100FC20022020318E52FE62FEF2F8312031358088E
:100FD20059020A128A11B4220A128A1108008312D3
:100FE2000313DA0183134A3084005A300A128A1139
:0E0FF200E7200A128A1183010A128A118B2C41
:02400E007A3FF7
:00000001FF
