:060000000A128A11F82F1C
:100B06004230F000F00B852D00000800F700770852
:100B1600F600760775040438FF007F08F100003000
:100B26000A128A115A260A128A110800F101F10ADC
:100B360000300A128A115A260A128A110D30F6005E
:100B4600FB30F500F50BA52DF60BA52DAA2D0800FB
:100B5600F9007508F70001300310F70DFF3E031D7D
:100B6600AF2D7908F80001300310F80DFF3E031D84
:100B7600B72D0310780D770476040838FF007F0838
:100B8600F10000300A128A115A260A128A11080048
:100B9600F8007D080319D02DD12DD62D6730F6002B
:100BA6000030F700DA2D4F30F6000030F7007708F6
:100BB600803AF50080307502031DE32D7808760231
:100BC600031CE62DE72DF52D83120313B2017808D9
:100BD6008038FF007F08F10000300A128A115A2679
:100BE6000A128A110800FA007608F700023003108C
:100BF600F70DFF3E031DFA2D7508F80003300310AC
:100C0600F80DFF3E031D022E7A08F900033003108B
:100C1600F90DFF3E031D0A2E0310790D78047704A3
:100C26002038FF007F08F10000300A128A115A2688
:100C36000A128A117508FF007F08FD00080083125A
:100C46000313AA007D08031D292E2A2E2F2E4F30AE
:100C5600A7000030A800332E2730A7000030A800D8
:100C66002708FF007F08A900F9012A080A128A113D
:100C7600A0260A128A11492E2030FF007F08F100B3
:100C860001300A128A115A260A128A110130831279
:100C96000313A902290A031D512E522E3F2EF901D4
:100CA6002A080A128A11A0260A128A110800F400DC
:100CB6000F30FF007F088316031386057408031997
:100CC600652E662E6B2E83120313881708136F2E5C
:100CD6008312031308138813F0307105F200060817
:100CE6000F39720486008816782E792E000083123A
:100CF600031388120A128A1183250A128A117108AF
:100D0600F20004300310F20DFF3E031D852EF03075
:100D16007205F3008312031306080F397304860065
:100D26008816952E962E00008312031388120A1237
:100D36008A1183250A128A11080083120313A00060
:100D46007D03031DA72EA82ECE2E27307902031C65
:100D5600AD2EAE2EB32E2730A1000030A200BA2E43
:100D66007908FA00FB017A08A1007B08A200200896
:100D7600031DBE2EBF2EC22EA301A401C62E4030D7
:100D8600A3000030A400210823070A128A11CB25EC
:100D96000A128A11E62E4F307902031CD32ED42E66
:100DA600D92E4F30A5000030A600E02E7908FA00B3
:100DB600FB017A08A5007B08A60025080A128A11FD
:100DC600CB250A128A1108008316031389018801AC
:100DD6008701860185018312031389018801870132
:100DE60086018501FB0101300A128A1169270A1260
:100DF6008A1183120313B101F90100300A128A1114
:100E0600A0260A128A116130FF007F08831203139D
:100E1600B0000A30AE000030AF00302F3008FF00BF
:100E26007F08F10001300A128A115A260A128A1125
:100E36000130FF007F0883120313B0070D308312C1
:100E46000313AD00AF30AC00B530AB00AB0B292FB0
:100E5600AC0B292FAD0B292F302FFF308312031334
:100E6600AE070318AF0AFF30AF072E0A031D3F2F48
:100E76002F0A031D3F2F402F112FF90131080319A7
:100E8600452F472F0130482F0030FF007F08B10063
:100E96003108031D4F2F512F0130522F00300A12F7
:100EA6008A11A0260A128A11831203133108031D20
:100EB6005D2F5F2F0130602F00300A128A11222623
:100EC6000A128A11062F0A128A110028FC008316BC
:100ED600031388010F30FF007F0886058312031372
:100EE600081388137C08A00003300310A00DFF3EF2
:100EF600031D782F7B08A10001300310A10DFF3ED2
:100F0600031D802F0310210D2004A200203022048F
:100F1600A300F0302305A40006080F392404860038
:100F26008816952F962F00008312031388120A1233
:100F36008A1183250A128A117C0883120313A000E2
:100F460003300310A00DFF3E031DA42F7B08A10054
:100F560001300310A10DFF3E031DAC2F0310210D20
:100F66002004A20020302204A300F0302305A400B0
:100F760006080F39240486008816C12FC22F0000E8
:100F86008312031388120A128A1183250A128A1100
:100F96007C08FF007F08F5007B08FF007F08F6004D
:100FA60000300A128A11F6250A128A11F501F60195
:100FB60000300A128A11AB250A128A110A128A1106
:100FC60099250A128A11F50101300A128A1189251A
:100FD6000A128A11F501F50AF601F60A01300A121B
:100FE6008A11AB250A128A110800FD018312031328
:0A0FF600B20183010A128A11E72EEE
:02400E00FA3F77
:00000001FF
