:100000000A128A11F02F00308A000408840A82073D
:10001000003425342E3431343634733400342534EE
:080020002E342A34663400344A
:10004A004230F000F00B27280000080000300A12A6
:10005A008A111C210A128A117F3908006400800162
:10006A00840A040603190034040634280030831273
:10007A000313591801300A128A1193220A128A119B
:10008A00FA01003083120313591801300A128A1137
:10009A008E260A128A110800F101F10A00300A12AA
:1000AA008A1185200A128A110D30F400FB30F30000
:1000BA00F30B5D28F40B5D28622883120313D70122
:1000CA00D8015910581C6A285914080083120313BE
:1000DA005919702871287628FF30F200FF30F30092
:1000EA007A280130F2000030F3007208FF007F081E
:1000FA00D80701300A128A111C210A128A11080033
:10010A00F200831603138601720803198D288E28BC
:10011A00932883120313881708139728831203134B
:10012A00081388137108860088169B289C280000EB
:10013A008312031388120A128A1125200A128A11BD
:10014A00080083120313A7002708FF007F08A800EE
:10015A00BC282808840000080A128A11F7240A1207
:10016A008A110130FF007F0883120313A8072808A9
:10017A00840083130008031DC328C428AE28270857
:10018A0028020800F6007608013983120313591170
:10019A00031D591573080139D910031DD9147308A1
:1001AA00031DD828DA280130DB280030F40076084D
:1001BA00031DE028E2280130E3280030F500750726
:1001CA0074040438FF007F08F10000300A128A1113
:1001DA0085200A128A110800F6007308031DF62802
:1001EA00F8280130F9280030F40002300310F40D29
:1001FA00FF3E031DFB287608031D0429062901304A
:10020A0007290030F50002300310F50DFF3E031DEB
:10021A0009290310750D74041038FF007F08F100D6
:10022A0000300A128A1185200A128A110800F10088
:10023A00FF3083160313860071080319252926291E
:10024A003429831203130817081B2C293029831217
:10025A000313881733298312031388133829831247
:10026A0003138813081788163A293B2900008312BA
:10027A00031388120A128A1125200A128A1183127C
:10028A00031306080800003083120313D91901303A
:10029A00FB00003059180130FC007B087C0203186F
:1002AA005729582975295808FF007F08FA000310B2
:1002BA0059180314003003180130013EFB000030C6
:1002CA0003180130FC007B087C04031D6D296F298B
:1002DA000130702900300A128A118E260A128A11F8
:1002EA000800F8008029F301F30A01300A128A1182
:1002FA00F1200A128A11FF30FF007F08F807780AF6
:10030A000319882989299829831203135608803AE0
:10031A00F700FF30D70701305707803AF702031C6E
:10032A00972998297829831203135708803AF700E6
:10033A005608803AF7020318A329A429A8295608BF
:10034A00FF007F08D7000800F8007408031DAE29D3
:10035A00B0290130B1290030F5007308031DB62910
:10036A00B8290130B9290030F60001300310F60D22
:10037A00FF3E031DBB297808031DC429C629013085
:10038A00C7290030F70001300310F70DFF3E031DA7
:10039A00C9290310770D760475040838FF007F0811
:1003AA00F10000300A128A1185200A128A11080007
:1003BA00F80083120313D91DE329E429E9296730D8
:1003CA00F6000030F700ED294F30F6000030F70054
:1003DA000310591903140030031801307607F3008B
:1003EA0077080318770AF4007408803AF500803019
:1003FA007502031D022A78087302031C052A062ABD
:10040A00142A83120313591278088038FF007F08D0
:10041A00F10000300A128A1185200A128A11080096
:10042A00F800831203135508F13EFF007F08F90014
:10043A00252AF30101300A128A11F1200A128A11BF
:10044A00FF30FF007F08F807780A03192D2A2E2AA1
:10045A003D2A013083120313D707FF305707803A2A
:10046A00F7007908803AF702031C3C2A3D2A1E2A23
:10047A007908803AF700831203135708803AF70283
:10048A000318482A492A4D2A7908FF007F08D7000D
:10049A000800F8007408031D532A552A0130562A09
:1004AA000030F50002300310F50DFF3E031D582AF7
:1004BA007308031D612A632A0130642A0030F6009A
:1004CA0003300310F60DFF3E031D662A7808031D4C
:1004DA006F2A712A0130722A0030F70003300310A4
:1004EA00F70DFF3E031D742A0310770D7604750479
:1004FA002038FF007F08F10000300A128A11852097
:10050A000A128A117308031D8B2A8F2A8312031376
:10051A00D915922A83120313D911080083120313DF
:10052A00B400003059180130B7005808FF007F089E
:10053A00B8005508013EFF007F08B9003408031DC2
:10054A00A72AA82AAB2AB501B601AF2A4030B500BE
:10055A000030B60035080A128A11DD210A128A1102
:10056A00C02A2030FF007F08F10001300A128A11E8
:10057A0085200A128A11FF30FF007F0883120313B5
:10058A00B907390A031DCA2ACB2AB62A3808FF0036
:10059A007F08FA003708031DD32AD52A0130D62A44
:1005AA0000300A128A118E260A128A11080073086C
:1005BA007204710470040319E32AE42A272BF9014F
:1005CA00F90AF42A0130F8000310F00DF10DF20DCA
:1005DA00F30DF80BE92A0130FF007F08F907F31F32
:1005EA00F72AF82AE72A73087702031D062B7208EE
:1005FA007602031D062B71087502031D062B70086F
:10060A007402031C092B0A2B182B7008F4027108B8
:10061A00031C710FF5027208031C720FF6027308AD
:10062A00031C730FF70201300310F30CF20CF10CE8
:10063A00F00CFF3E031D192B0130F902031D262B76
:10064A00272BF82A7708F3007608F2007508F100DC
:10065A007408F00008000030FC000030FB00003095
:10066A00FA000030F9007308720471047004031967
:10067A003F2B402B8D2BFD01FD0A502B0130F8003A
:10068A000310F00DF10DF20DF30DF80B452B0130AF
:10069A00FF007F08FD07F31F532B542B432B013018
:1006AA00F8000310F90DFA0DFB0DFC0DF80B562B93
:1006BA0073087702031D6B2B72087602031D6B2BDE
:1006CA0071087502031D6B2B70087402031C6E2BD4
:1006DA006F2B7E2B7008F4027108031C710FF50250
:1006EA007208031C720FF6027308031C730FF702D9
:1006FA00791401300310F30CF20CF10CF00CFF3EEC
:10070A00031D7F2B0130FD02031D8C2B8D2B542BD7
:10071A007C08F3007B08F2007A08F1007908F000FF
:10072A00080083120313A000DC2BF301F30A003044
:10073A000A128A11F1200A128A1183120313580825
:10074A00FA00FB01FA1BFB030F305707FC00FD01FF
:10075A000318FD0AD71FB22BFD037B087D06031D74
:10076A00B82B7A087C06031DBB2BBC2BD12B01307E
:10077A000A128A1115220A128A11D12BF301F30ADD
:10078A0000300A128A11F1200A128A1101300A1263
:10079A008A1115220A128A11FF30FF007F0883127C
:1007AA000313A007200A031DDB2BDC2BC32BFF300E
:1007BA00A00701302007803A7F3E031CE52BE62B79
:1007CA00F32B0130D807FF305807803AFA00550852
:1007DA00803AFA02031CF22BF32B9A2B5508803A23
:1007EA00FA005808803AFA020318FC2BFD2B012C58
:1007FA005508FF007F08D800080083120313A200DF
:10080A00831603138801831203132208031D0E2C77
:10081A00102C0130112C0030FF007F08A20079084B
:10082A00031D182C1A2C01301B2C0030FF007F08E6
:10083A00F9002208FF007F08F3007908FF007F080B
:10084A00F40001300A128A114E220A128A11831206
:10085A0003132208FF007F08F3007908FF007F08CE
:10086A00F40001300A128A114E220A128A11F30187
:10087A00F40100300A128A11A9210A128A110A12F5
:10088A008A1151200A128A11F30101300A128A11BF
:10089A00C7200A128A11F301F30AF401F40A01309B
:1008AA000A128A11A9210A128A112130FB00763014
:1008BA00FA00FA0B5E2CFB0B5E2C0000831203136A
:1008CA00D601D919692C6A2C6F2C4F30A000003040
:1008DA00A100732C2730A0000030A1002008FF00DF
:1008EA007F08D50008002E3084000C30FF008313E7
:1008FA008001840AFF0B7C2C3930FF007F088312A9
:10090A000313BA00AC1F8A2C8B2CA02C2D300A1290
:10091A008A11F7240A128A11013083120313BA02C8
:10092A00A909AA09AB09AC09A90A0319AA0A031950
:10093A00AB0A0319AC0A0030F3000030F2000030B1
:10094A00F1000A30F0002C08F7002B08F6002A08FC
:10095A00F5002908F4000A128A11DC220A128A1107
:10096A007008303EFF00013083120313BA023A08BE
:10097A0084007F08831380002E30AD003A082D02D0
:10098A000318C82CC92CF02C0030F3000030F200F8
:10099A000030F1000A30F0002C08F7002B08F600AE
:1009AA002A08F5002908F4000A128A1130230A12CB
:1009BA008A11730883120313AC007208AB00710822
:1009CA00AA007008A9002C082B042A042904031D74
:1009DA00EF2CF02CA02C3A080A128A11A6200A122F
:1009EA008A11080083120313A0005919FD2CFE2C4A
:1009FA000C2D5608FA00FB01FA1BFB037A08FF3E8E
:100A0A00A1007B080318013EFF3EA200152D01300C
:100A1A005507A100A2010318A20AD51F152DA2038A
:100A2A00831203135808FA00FB01FA1BFB0322087E
:100A3A007B06031D222D21087A06031D252D262D4E
:100A4A00272D902D2008FF007F08F10001300A129F
:100A5A008A1185200A128A1183120313591D362D11
:100A6A00372D562D5808FA00FB01FA1BFB030F30ED
:100A7A005707FC00FD010318FD0AD71F452DFD038A
:100A8A007B087D06031D4B2D7A087C06031D4E2D1F
:100A9A004F2D562D01300A128A1115220A128A1177
:100AAA00682D8312031359195B2D5C2D682D580884
:100ABA005706031D612D622D682D01300A128A1115
:100ACA0076210A128A118312031359196D2D6E2D7C
:100ADA00732DFF30A300FF30A400772D0130A3004F
:100AEA000030A4002308FF007F08D807D91C7E2DF8
:100AFA007F2D902D5919822D832D882DFF30A50029
:100B0A00FF30A6008C2D0130A5000030A600250874
:100B1A00FF007F08D707080083160313890188019D
:100B2A0087018601850183120313890188018701E0
:100B3A0086018501F90101300A128A1102240A127A
:100B4A008A116130FF007F0883120313C800003046
:100B5A00AC000030AB005A30AA005330A9000A1288
:100B6A008A1178240A128A11333083120313BD00C2
:100B7A00BB30BC00DF30BB00BB0BC12DBC0BC12D91
:100B8A00BD0BC12D0A128A113B200A128A1161304B
:100B9A00831203134802031CD32DD42DDA2D7B3084
:100BAA004802031CD92DDA2DDF2D6130C400003034
:100BBA00C500E62D4808BB00BC013B08C4003C0840
:100BCA00C5004408FF007F08C800C7010D30C000F7
:100BDA000030C100FC2D48080A128A11F7240A12B3
:100BEA008A110130FF007F0883120313C807FF3000
:100BFA00C0070318C10AFF30C107400A031D092EA6
:100C0A00410A031D092E0A2EF02D0D30C2000030B4
:100C1A00C3007A2E4708FF007F08FA0000300A1244
:100C2A008A118E260A128A110130FF007F08831268
:100C3A000313C7070A128A112B200A128A11FF000E
:100C4A007F0883120313C6000A128A116B200A1244
:100C5A008A11FF007F0883120313C8000A128A113F
:100C6A0048210A128A110A128A113B200A128A1191
:100C7A00831203134608BB00BC01BD01BE013E0836
:100C8A00AC003D08AB003C08AA003B08A9000A12C8
:100C9A008A1178240A128A1101300A128A119623BB
:100CAA000A128A11831203134808BB00BC01BD0152
:100CBA00BE013E08AC003D08AB003C08AA003B0858
:100CCA00A9000A128A1178240A128A110D30831295
:100CDA000313BD00AF30BC00B530BB00BB0B732E95
:100CEA00BC0B732EBD0B732E7A2EFF3083120313A7
:100CFA00C2070318C30AFF30C307420A031D892E1D
:100D0A00430A031D892E8A2E0F2ECC2D0A128A1110
:100D1A00002883120313B300031059190314003077
:100D2A00031801305507A000A1010318A10AD51F15
:100D3A009F2EA1037A0883120313A200A301A21B08
:100D4A00A3032308803AA4002108803A2402031D41
:100D5A00B02E20082202031CB32EB42EC52E031077
:100D6A00831203135919031400300318013055076D
:100D7A00A700A8010318A80AD51FC42EA803CC2EC1
:100D8A007A0883120313A700A801A71BA8038312DA
:100D9A0003133308031DD22ED32ED62EA901AA017E
:100DAA00DA2E4030A9000030AA00270829070A12C3
:100DBA008A11DD210A128A1183120313D919E62E28
:100DCA00E72EEA2EAB01AC01F72E3308031DEE2EF7
:100DDA00F02E0130F12E0030A000A1012008AB0056
:100DEA002108AC0059102B1CFB2E59147A088312C7
:100DFA000313A000A101A01BA1035608A200A3018E
:100E0A00A21BA3030310591D031400300318013059
:100E1A002202A4002308031C2303A5002508803A04
:100E2A00A6002108803A2602031D1D2F200824024D
:100E3A00031C202F212F352F831203135608A000DD
:100E4A00A101A01BA1030310591D031400300318AC
:100E5A0001302002AF002108031C2103B0003C2FFF
:100E6A007A0883120313AF00B001AF1BB00303105B
:100E7A00591903140030031801305507A000A101C5
:100E8A000318A10AD51F4A2FA1038312031330089E
:100E9A00803AA2002108803A2202031D562F200818
:100EAA002F02031C592F5A2F6B2F0310831203137F
:100EBA00591903140030031801305507AD00AE016B
:100ECA000318AE0AD51F6A2FAE03B02F7A08831211
:100EDA000313A000A101A01BA1035608A200A301AD
:100EEA00A21BA3030310591D031400300318013079
:100EFA002202A4002308031C2303A5002508803A24
:100F0A00A6002108803A2602031D8D2F20082402FC
:100F1A00031C902F912FA52F831203135608A000AC
:100F2A00A101A01BA1030310591D031400300318CB
:100F3A0001302002B1002108031C2103B200AC2FAA
:100F4A007A0883120313B100B201B11BB20332084B
:100F5A00AE003108AD00831203132D08FF007F088D
:100F6A00D8005808803AA0005708803AA00203180F
:100F7A00BF2FC02FC82F580857020A128A1176218C
:100F8A000A128A11EF2F5808A000A101A01BA10381
:100F9A000F305707A200A3010318A30AD71FD62FA1
:100FAA00A303831203132308803AA4002108803A7A
:100FBA002402031DE22F200822020318E52FE62F40
:100FCA00EF2F83120313570858020A128A111522A7
:100FDA000A128A11080083120313D90183134930B4
:100FEA00840059300A128A1133200A128A118301A5
:060FFA000A128A11912D7C
:02400E007A3FF7
:00000001FF
