:060000000A128A11F82F1C
:100B02004230F000F00B832D00000800F700770858
:100B1200F600760775040438FF007F08F100003004
:100B22000A128A1158260A128A110800F101F10AE2
:100B320000300A128A1158260A128A110D30F60064
:100B4200FB30F500F50BA32DF60BA32DA82D080005
:100B5200F9007508F70001300310F70DFF3E031D81
:100B6200AD2D7908F80001300310F80DFF3E031D8A
:100B7200B52D0310780D770476040838FF007F083E
:100B8200F10000300A128A1158260A128A1108004E
:100B9200F8007D080319CE2DCF2DD42D6730F60035
:100BA2000030F700D82D4F30F6000030F7007708FC
:100BB200803AF50080307502031DE12D7808760237
:100BC200031CE42DE52DF32D83120313B2017808E3
:100BD2008038FF007F08F10000300A128A1158267F
:100BE2000A128A110800FA007608F7000230031090
:100BF200F70DFF3E031DF82D7508F80003300310B2
:100C0200F80DFF3E031D002E7A08F9000330031091
:100C1200F90DFF3E031D082E0310790D78047704A9
:100C22002038FF007F08F10000300A128A1158268E
:100C32000A128A117508FF007F08FD00080083125E
:100C42000313AA007D08031D272E282E2D2E4F30B8
:100C5200A7000030A800312E2730A7000030A800DE
:100C62002708FF007F08A900F9012A080A128A1141
:100C72009E260A128A11472E2030FF007F08F100BB
:100C820001300A128A1158260A128A11013083127F
:100C92000313A902290A031D4F2E502E3D2EF901DE
:100CA2002A080A128A119E260A128A110800F400E2
:100CB2000F30FF007F08831603138605740803199B
:100CC200632E642E692E83120313881708136D2E68
:100CD2008312031308138813F0307105F20006081B
:100CE2000F39720486008816762E772E0000831242
:100CF200031388120A128A1181250A128A117108B5
:100D0200F20004300310F20DFF3E031D832EF0307B
:100D12007205F3008312031306080F397304860069
:100D22008816932E942E00008312031388120A123F
:100D32008A1181250A128A11080083120313A00066
:100D42007D03031DA52EA62ECC2E27307902031C6F
:100D5200AB2EAC2EB12E2730A1000030A200B82E4F
:100D62007908FA00FB017A08A1007B08A20020089A
:100D7200031DBC2EBD2EC02EA301A401C42E4030E3
:100D8200A3000030A400210823070A128A11C925F2
:100D92000A128A11E42E4F307902031CD12ED22E70
:100DA200D72E4F30A5000030A600DE2E7908FA00BB
:100DB200FB017A08A5007B08A60025080A128A1101
:100DC200C9250A128A1108008316031389018801B2
:100DD2008701860185018312031389018801870136
:100DE20086018501FB01FB0A01300A128A1169277B
:100DF2000A128A1183120313B101F90100300A1297
:100E02008A119E260A128A116130FF007F0883121E
:100E12000313B0000A30AE000030AF00302F3008AC
:100E22008038FF007F08F10001300A128A1158262B
:100E32000A128A110130FF007F0883120313B007E0
:100E42000D3083120313AD00AF30AC00B530AB00F0
:100E5200AB0B292FAC0B292FAD0B292F302FFF30D5
:100E620083120313AE070318AF0AFF30AF072E0A2F
:100E7200031D3F2F2F0A031D3F2F402F102FF90173
:100E820031080319452F472F0130482F0030FF004A
:100E92007F08B1003108031D4F2F512F0130522F0F
:100EA20000300A128A119E260A128A118312031333
:100EB2003108031D5D2F5F2F0130602F00300A12B1
:100EC2008A1120260A128A11052F0A128A11002875
:100ED200FC008316031388010F30FF007F0886058C
:100EE20083120313081388137C08A0000330031035
:100EF200A00DFF3E031D782F7B08A10001300310D7
:100F0200A10DFF3E031D802F0310210D2004A2001E
:100F120020302204A300F0302305A40006080F3974
:100F2200240486008816952F962F0000831203133F
:100F320088120A128A1181250A128A117C088312E8
:100F42000313A00003300310A00DFF3E031DA42FC6
:100F52007B08A10001300310A10DFF3E031DAC2F41
:100F62000310210D2004A20020302204A300F0303F
:100F72002305A40006080F39240486008816C12F11
:100F8200C22F00008312031388120A128A118125CC
:100F92000A128A117C08FF007F08F5007B08FF0017
:100FA2007F08F60000300A128A11F4250A128A110B
:100FB200F501F60100300A128A11A9250A128A11D6
:100FC2000A128A1197250A128A11F50101300A12B2
:100FD2008A1187250A128A11F501F50AF601F60A25
:100FE20001300A128A11A9250A128A110800FD018C
:0E0FF20083120313B20183010A128A11E52E45
:02400E00FA3F77
:00000001FF
